{
  "_format": "hh-sol-artifact-1",
  "contractName": "Ballot",
  "sourceName": "contracts/Voting.sol",
  "abi": [
    {
      "inputs": [
        {
          "internalType": "string[]",
          "name": "candidateNames",
          "type": "string[]"
        }
      ],
      "stateMutability": "nonpayable",
      "type": "constructor"
    },
    {
      "inputs": [
        {
          "internalType": "string[]",
          "name": "candidateNames",
          "type": "string[]"
        }
      ],
      "name": "addCandidates",
      "outputs": [],
      "stateMutability": "nonpayable",
      "type": "function"
    },
    {
      "inputs": [
        {
          "internalType": "uint256",
          "name": "",
          "type": "uint256"
        }
      ],
      "name": "candidates",
      "outputs": [
        {
          "internalType": "string",
          "name": "name",
          "type": "string"
        },
        {
          "internalType": "uint256",
          "name": "voteCount",
          "type": "uint256"
        }
      ],
      "stateMutability": "view",
      "type": "function"
    },
    {
      "inputs": [],
      "name": "chairperson",
      "outputs": [
        {
          "internalType": "address",
          "name": "",
          "type": "address"
        }
      ],
      "stateMutability": "view",
      "type": "function"
    },
    {
      "inputs": [],
      "name": "endVote",
      "outputs": [],
      "stateMutability": "nonpayable",
      "type": "function"
    },
    {
      "inputs": [],
      "name": "get_test",
      "outputs": [
        {
          "internalType": "string",
          "name": "",
          "type": "string"
        }
      ],
      "stateMutability": "view",
      "type": "function"
    },
    {
      "inputs": [
        {
          "internalType": "address",
          "name": "voter",
          "type": "address"
        }
      ],
      "name": "giveRightToVote",
      "outputs": [],
      "stateMutability": "nonpayable",
      "type": "function"
    },
    {
      "inputs": [],
      "name": "startVote",
      "outputs": [],
      "stateMutability": "nonpayable",
      "type": "function"
    },
    {
      "inputs": [],
      "name": "state",
      "outputs": [
        {
          "internalType": "enum Ballot.State",
          "name": "",
          "type": "uint8"
        }
      ],
      "stateMutability": "view",
      "type": "function"
    },
    {
      "inputs": [
        {
          "internalType": "uint256",
          "name": "candidate",
          "type": "uint256"
        }
      ],
      "name": "vote",
      "outputs": [],
      "stateMutability": "nonpayable",
      "type": "function"
    },
    {
      "inputs": [
        {
          "internalType": "address",
          "name": "",
          "type": "address"
        }
      ],
      "name": "voters",
      "outputs": [
        {
          "internalType": "uint256",
          "name": "weight",
          "type": "uint256"
        },
        {
          "internalType": "bool",
          "name": "voted",
          "type": "bool"
        },
        {
          "internalType": "uint256",
          "name": "vote",
          "type": "uint256"
        }
      ],
      "stateMutability": "view",
      "type": "function"
    },
    {
      "inputs": [],
      "name": "winningCandidate",
      "outputs": [
        {
          "internalType": "string",
          "name": "winnerName_",
          "type": "string"
        }
      ],
      "stateMutability": "view",
      "type": "function"
    }
  ],
  "bytecode": "0x60806040523480156200001157600080fd5b506040516200203538038062002035833981810160405281019062000037919062000439565b6040518060400160405280600481526020017f6369616f0000000000000000000000000000000000000000000000000000000081525060009080519060200190620000849291906200025a565b5033600160006101000a81548173ffffffffffffffffffffffffffffffffffffffff021916908373ffffffffffffffffffffffffffffffffffffffff160217905550600160026000600160009054906101000a900473ffffffffffffffffffffffffffffffffffffffff1673ffffffffffffffffffffffffffffffffffffffff1673ffffffffffffffffffffffffffffffffffffffff168152602001908152602001600020600001819055506000600460006101000a81548160ff021916908360028111156200017d577f4e487b7100000000000000000000000000000000000000000000000000000000600052602160045260246000fd5b021790555060005b8151811015620002525760036040518060400160405280848481518110620001d6577f4e487b7100000000000000000000000000000000000000000000000000000000600052603260045260246000fd5b602002602001015181526020016000815250908060018154018082558091505060019003906000526020600020906002020160009091909190915060008201518160000190805190602001906200022f9291906200025a565b5060208201518160010155505080806200024990620005b8565b91505062000185565b5050620006a4565b82805462000268906200054c565b90600052602060002090601f0160209004810192826200028c5760008555620002d8565b82601f10620002a757805160ff1916838001178555620002d8565b82800160010185558215620002d8579182015b82811115620002d7578251825591602001919060010190620002ba565b5b509050620002e79190620002eb565b5090565b5b8082111562000306576000816000905550600101620002ec565b5090565b6000620003216200031b84620004a7565b6200047e565b905080838252602082019050828560208602820111156200034157600080fd5b60005b858110156200039057815167ffffffffffffffff8111156200036557600080fd5b8086016200037489826200040c565b8552602085019450602084019350505060018101905062000344565b5050509392505050565b6000620003b1620003ab84620004d6565b6200047e565b905082815260208101848484011115620003ca57600080fd5b620003d784828562000516565b509392505050565b600082601f830112620003f157600080fd5b8151620004038482602086016200030a565b91505092915050565b600082601f8301126200041e57600080fd5b8151620004308482602086016200039a565b91505092915050565b6000602082840312156200044c57600080fd5b600082015167ffffffffffffffff8111156200046757600080fd5b6200047584828501620003df565b91505092915050565b60006200048a6200049d565b905062000498828262000582565b919050565b6000604051905090565b600067ffffffffffffffff821115620004c557620004c462000664565b5b602082029050602081019050919050565b600067ffffffffffffffff821115620004f457620004f362000664565b5b620004ff8262000693565b9050602081019050919050565b6000819050919050565b60005b838110156200053657808201518184015260208101905062000519565b8381111562000546576000848401525b50505050565b600060028204905060018216806200056557607f821691505b602082108114156200057c576200057b62000635565b5b50919050565b6200058d8262000693565b810181811067ffffffffffffffff82111715620005af57620005ae62000664565b5b80604052505050565b6000620005c5826200050c565b91507fffffffffffffffffffffffffffffffffffffffffffffffffffffffffffffffff821415620005fb57620005fa62000606565b5b600182019050919050565b7f4e487b7100000000000000000000000000000000000000000000000000000000600052601160045260246000fd5b7f4e487b7100000000000000000000000000000000000000000000000000000000600052602260045260246000fd5b7f4e487b7100000000000000000000000000000000000000000000000000000000600052604160045260246000fd5b6000601f19601f8301169050919050565b61198180620006b46000396000f3fe608060405234801561001057600080fd5b50600436106100a95760003560e01c80639e7b8d61116100715780639e7b8d6114610141578063a3ec138d1461015d578063a999e5621461018f578063b9223946146101ab578063c19d93fb146101b5578063d28178d7146101d3576100a9565b80630121b93f146100ae5780632e4176cf146100ca5780633477ee2e146100e85780633c41db55146101195780634c0a6af014610137575b600080fd5b6100c860048036038101906100c391906110e4565b6101f1565b005b6100d2610420565b6040516100df919061129a565b60405180910390f35b61010260048036038101906100fd91906110e4565b610446565b6040516101109291906112f2565b60405180910390f35b610121610502565b60405161012e91906112d0565b60405180910390f35b61013f610594565b005b61015b6004803603810190610156919061107a565b6106a9565b005b6101776004803603810190610172919061107a565b610863565b60405161018693929190611422565b60405180910390f35b6101a960048036038101906101a491906110a3565b61089a565b005b6101b3610a79565b005b6101bd610c1e565b6040516101ca91906112b5565b60405180910390f35b6101db610c31565b6040516101e891906112d0565b60405180910390f35b6001600281111561022b577f4e487b7100000000000000000000000000000000000000000000000000000000600052602160045260246000fd5b600460009054906101000a900460ff166002811115610273577f4e487b7100000000000000000000000000000000000000000000000000000000600052602160045260246000fd5b146102b3576040517f08c379a00000000000000000000000000000000000000000000000000000000081526004016102aa906113e2565b60405180910390fd5b6000600260003373ffffffffffffffffffffffffffffffffffffffff1673ffffffffffffffffffffffffffffffffffffffff168152602001908152602001600020905060008160000154141561033e576040517f08c379a000000000000000000000000000000000000000000000000000000000815260040161033590611322565b60405180910390fd5b8060010160009054906101000a900460ff1615610390576040517f08c379a000000000000000000000000000000000000000000000000000000000815260040161038790611342565b60405180910390fd5b60018160010160006101000a81548160ff0219169083151502179055508181600201819055508060000154600383815481106103f5577f4e487b7100000000000000000000000000000000000000000000000000000000600052603260045260246000fd5b9060005260206000209060020201600101600082825461041591906114f7565b925050819055505050565b600160009054906101000a900473ffffffffffffffffffffffffffffffffffffffff1681565b6003818154811061045657600080fd5b9060005260206000209060020201600091509050806000018054610479906115fc565b80601f01602080910402602001604051908101604052809291908181526020018280546104a5906115fc565b80156104f25780601f106104c7576101008083540402835291602001916104f2565b820191906000526020600020905b8154815290600101906020018083116104d557829003601f168201915b5050505050908060010154905082565b606060008054610511906115fc565b80601f016020809104026020016040519081016040528092919081815260200182805461053d906115fc565b801561058a5780601f1061055f5761010080835404028352916020019161058a565b820191906000526020600020905b81548152906001019060200180831161056d57829003601f168201915b5050505050905090565b600060028111156105ce577f4e487b7100000000000000000000000000000000000000000000000000000000600052602160045260246000fd5b600460009054906101000a900460ff166002811115610616577f4e487b7100000000000000000000000000000000000000000000000000000000600052602160045260246000fd5b14610656576040517f08c379a000000000000000000000000000000000000000000000000000000000815260040161064d906113c2565b60405180910390fd5b6001600460006101000a81548160ff021916908360028111156106a2577f4e487b7100000000000000000000000000000000000000000000000000000000600052602160045260246000fd5b0217905550565b600160009054906101000a900473ffffffffffffffffffffffffffffffffffffffff1673ffffffffffffffffffffffffffffffffffffffff163373ffffffffffffffffffffffffffffffffffffffff1614610739576040517f08c379a000000000000000000000000000000000000000000000000000000000815260040161073090611382565b60405180910390fd5b600260008273ffffffffffffffffffffffffffffffffffffffff1673ffffffffffffffffffffffffffffffffffffffff16815260200190815260200160002060010160009054906101000a900460ff16156107c9576040517f08c379a00000000000000000000000000000000000000000000000000000000081526004016107c090611402565b60405180910390fd5b6000600260008373ffffffffffffffffffffffffffffffffffffffff1673ffffffffffffffffffffffffffffffffffffffff168152602001908152602001600020600001541461081857600080fd5b6001600260008373ffffffffffffffffffffffffffffffffffffffff1673ffffffffffffffffffffffffffffffffffffffff1681526020019081526020016000206000018190555050565b60026020528060005260406000206000915090508060000154908060010160009054906101000a900460ff16908060020154905083565b6002808111156108d3577f4e487b7100000000000000000000000000000000000000000000000000000000600052602160045260246000fd5b600460009054906101000a900460ff16600281111561091b577f4e487b7100000000000000000000000000000000000000000000000000000000600052602160045260246000fd5b1461095b576040517f08c379a0000000000000000000000000000000000000000000000000000000008152600401610952906113a2565b60405180910390fd5b6000600460006101000a81548160ff021916908360028111156109a7577f4e487b7100000000000000000000000000000000000000000000000000000000600052602160045260246000fd5b021790555060005b8151811015610a7557600360405180604001604052808484815181106109fe577f4e487b7100000000000000000000000000000000000000000000000000000000600052603260045260246000fd5b60200260200101518152602001600081525090806001815401808255809150506001900390600052602060002090600202016000909190919091506000820151816000019080519060200190610a55929190610e95565b506020820151816001015550508080610a6d9061165f565b9150506109af565b5050565b600160009054906101000a900473ffffffffffffffffffffffffffffffffffffffff1673ffffffffffffffffffffffffffffffffffffffff163373ffffffffffffffffffffffffffffffffffffffff1614610b09576040517f08c379a0000000000000000000000000000000000000000000000000000000008152600401610b0090611362565b60405180910390fd5b60016002811115610b43577f4e487b7100000000000000000000000000000000000000000000000000000000600052602160045260246000fd5b600460009054906101000a900460ff166002811115610b8b577f4e487b7100000000000000000000000000000000000000000000000000000000600052602160045260246000fd5b14610bcb576040517f08c379a0000000000000000000000000000000000000000000000000000000008152600401610bc2906113e2565b60405180910390fd5b6002600460006101000a81548160ff02191690836002811115610c17577f4e487b7100000000000000000000000000000000000000000000000000000000600052602160045260246000fd5b0217905550565b600460009054906101000a900460ff1681565b6060600280811115610c6c577f4e487b7100000000000000000000000000000000000000000000000000000000600052602160045260246000fd5b600460009054906101000a900460ff166002811115610cb4577f4e487b7100000000000000000000000000000000000000000000000000000000600052602160045260246000fd5b14610cf4576040517f08c379a0000000000000000000000000000000000000000000000000000000008152600401610ceb906113a2565b60405180910390fd5b6000805b600380549050811015610e90578160038281548110610d40577f4e487b7100000000000000000000000000000000000000000000000000000000600052603260045260246000fd5b9060005260206000209060020201600101541115610e7d5760038181548110610d92577f4e487b7100000000000000000000000000000000000000000000000000000000600052603260045260246000fd5b906000526020600020906002020160010154915060038181548110610de0577f4e487b7100000000000000000000000000000000000000000000000000000000600052603260045260246000fd5b90600052602060002090600202016000018054610dfc906115fc565b80601f0160208091040260200160405190810160405280929190818152602001828054610e28906115fc565b8015610e755780601f10610e4a57610100808354040283529160200191610e75565b820191906000526020600020905b815481529060010190602001808311610e5857829003601f168201915b505050505092505b8080610e889061165f565b915050610cf8565b505090565b828054610ea1906115fc565b90600052602060002090601f016020900481019282610ec35760008555610f0a565b82601f10610edc57805160ff1916838001178555610f0a565b82800160010185558215610f0a579182015b82811115610f09578251825591602001919060010190610eee565b5b509050610f179190610f1b565b5090565b5b80821115610f34576000816000905550600101610f1c565b5090565b6000610f4b610f468461147e565b611459565b90508083825260208201905082856020860282011115610f6a57600080fd5b60005b85811015610fb457813567ffffffffffffffff811115610f8c57600080fd5b808601610f99898261103b565b85526020850194506020840193505050600181019050610f6d565b5050509392505050565b6000610fd1610fcc846114aa565b611459565b905082815260208101848484011115610fe957600080fd5b610ff48482856115ba565b509392505050565b60008135905061100b8161191d565b92915050565b600082601f83011261102257600080fd5b8135611032848260208601610f38565b91505092915050565b600082601f83011261104c57600080fd5b813561105c848260208601610fbe565b91505092915050565b60008135905061107481611934565b92915050565b60006020828403121561108c57600080fd5b600061109a84828501610ffc565b91505092915050565b6000602082840312156110b557600080fd5b600082013567ffffffffffffffff8111156110cf57600080fd5b6110db84828501611011565b91505092915050565b6000602082840312156110f657600080fd5b600061110484828501611065565b91505092915050565b6111168161154d565b82525050565b6111258161155f565b82525050565b611134816115a8565b82525050565b6000611145826114db565b61114f81856114e6565b935061115f8185602086016115c9565b61116881611764565b840191505092915050565b60006111806014836114e6565b915061118b82611775565b602082019050919050565b60006111a3600e836114e6565b91506111ae8261179e565b602082019050919050565b60006111c6602d836114e6565b91506111d1826117c7565b604082019050919050565b60006111e96028836114e6565b91506111f482611816565b604082019050919050565b600061120c601a836114e6565b915061121782611865565b602082019050919050565b600061122f6015836114e6565b915061123a8261188e565b602082019050919050565b6000611252601b836114e6565b915061125d826118b7565b602082019050919050565b60006112756018836114e6565b9150611280826118e0565b602082019050919050565b6112948161159e565b82525050565b60006020820190506112af600083018461110d565b92915050565b60006020820190506112ca600083018461112b565b92915050565b600060208201905081810360008301526112ea818461113a565b905092915050565b6000604082019050818103600083015261130c818561113a565b905061131b602083018461128b565b9392505050565b6000602082019050818103600083015261133b81611173565b9050919050565b6000602082019050818103600083015261135b81611196565b9050919050565b6000602082019050818103600083015261137b816111b9565b9050919050565b6000602082019050818103600083015261139b816111dc565b9050919050565b600060208201905081810360008301526113bb816111ff565b9050919050565b600060208201905081810360008301526113db81611222565b9050919050565b600060208201905081810360008301526113fb81611245565b9050919050565b6000602082019050818103600083015261141b81611268565b9050919050565b6000606082019050611437600083018661128b565b611444602083018561111c565b611451604083018461128b565b949350505050565b6000611463611474565b905061146f828261162e565b919050565b6000604051905090565b600067ffffffffffffffff82111561149957611498611735565b5b602082029050602081019050919050565b600067ffffffffffffffff8211156114c5576114c4611735565b5b6114ce82611764565b9050602081019050919050565b600081519050919050565b600082825260208201905092915050565b60006115028261159e565b915061150d8361159e565b9250827fffffffffffffffffffffffffffffffffffffffffffffffffffffffffffffffff03821115611542576115416116a8565b5b828201905092915050565b60006115588261157e565b9050919050565b60008115159050919050565b600081905061157982611909565b919050565b600073ffffffffffffffffffffffffffffffffffffffff82169050919050565b6000819050919050565b60006115b38261156b565b9050919050565b82818337600083830152505050565b60005b838110156115e75780820151818401526020810190506115cc565b838111156115f6576000848401525b50505050565b6000600282049050600182168061161457607f821691505b6020821081141561162857611627611706565b5b50919050565b61163782611764565b810181811067ffffffffffffffff8211171561165657611655611735565b5b80604052505050565b600061166a8261159e565b91507fffffffffffffffffffffffffffffffffffffffffffffffffffffffffffffffff82141561169d5761169c6116a8565b5b600182019050919050565b7f4e487b7100000000000000000000000000000000000000000000000000000000600052601160045260246000fd5b7f4e487b7100000000000000000000000000000000000000000000000000000000600052602160045260246000fd5b7f4e487b7100000000000000000000000000000000000000000000000000000000600052602260045260246000fd5b7f4e487b7100000000000000000000000000000000000000000000000000000000600052604160045260246000fd5b6000601f19601f8301169050919050565b7f486173206e6f20726967687420746f20766f7465000000000000000000000000600082015250565b7f416c726561647920766f7465642e000000000000000000000000000000000000600082015250565b7f4f6e6c79206368616972706572736f6e2063616e20737461727420616e64206560008201527f6e642074686520766f74696e6700000000000000000000000000000000000000602082015250565b7f4f6e6c79206368616972706572736f6e2063616e20676976652072696768742060008201527f746f20766f74652e000000000000000000000000000000000000000000000000602082015250565b7f6974206d75737420626520696e20456e64656420506572696f64000000000000600082015250565b7f6974206d75737420626520696e20537461727465640000000000000000000000600082015250565b7f6974206d75737420626520696e20566f74696e6720506572696f640000000000600082015250565b7f54686520766f74657220616c726561647920766f7465642e0000000000000000600082015250565b6003811061191a576119196116d7565b5b50565b6119268161154d565b811461193157600080fd5b50565b61193d8161159e565b811461194857600080fd5b5056fea26469706673582212200fc58b60b5930a8828888e7340f6c203c338e3cc22f187ddb8356b19a97090a864736f6c63430008040033",
  "linkReferences": {},
  "deployedLinkReferences": {}
}