{
  "_format": "hh-sol-artifact-1",
  "contractName": "Ballot",
  "sourceName": "contracts/Voting.sol",
  "abi": [
    {
      "inputs": [],
      "stateMutability": "nonpayable",
      "type": "constructor"
    },
    {
      "inputs": [
        {
          "internalType": "uint256",
          "name": "",
          "type": "uint256"
        }
      ],
      "name": "candidates",
      "outputs": [
        {
          "internalType": "string",
          "name": "name",
          "type": "string"
        },
        {
          "internalType": "uint256",
          "name": "voteCount",
          "type": "uint256"
        }
      ],
      "stateMutability": "view",
      "type": "function"
    },
    {
      "inputs": [],
      "name": "endVotingSession",
      "outputs": [],
      "stateMutability": "nonpayable",
      "type": "function"
    },
    {
      "inputs": [],
      "name": "getCandidates",
      "outputs": [
        {
          "components": [
            {
              "internalType": "string",
              "name": "name",
              "type": "string"
            },
            {
              "internalType": "uint256",
              "name": "voteCount",
              "type": "uint256"
            }
          ],
          "internalType": "struct Ballot.Candidate[]",
          "name": "",
          "type": "tuple[]"
        }
      ],
      "stateMutability": "view",
      "type": "function"
    },
    {
      "inputs": [],
      "name": "getChairperson",
      "outputs": [
        {
          "internalType": "address",
          "name": "",
          "type": "address"
        }
      ],
      "stateMutability": "view",
      "type": "function"
    },
    {
      "inputs": [],
      "name": "getCurrentState",
      "outputs": [
        {
          "internalType": "string",
          "name": "",
          "type": "string"
        }
      ],
      "stateMutability": "view",
      "type": "function"
    },
    {
      "inputs": [
        {
          "internalType": "address",
          "name": "voter",
          "type": "address"
        }
      ],
      "name": "giveRightToVote",
      "outputs": [],
      "stateMutability": "nonpayable",
      "type": "function"
    },
    {
      "inputs": [
        {
          "internalType": "string",
          "name": "candidateName",
          "type": "string"
        }
      ],
      "name": "registerCandidate",
      "outputs": [],
      "stateMutability": "nonpayable",
      "type": "function"
    },
    {
      "inputs": [],
      "name": "startRegisteringCandidates",
      "outputs": [],
      "stateMutability": "nonpayable",
      "type": "function"
    },
    {
      "inputs": [],
      "name": "startRegisteringVoters",
      "outputs": [],
      "stateMutability": "nonpayable",
      "type": "function"
    },
    {
      "inputs": [],
      "name": "startVotingSession",
      "outputs": [],
      "stateMutability": "nonpayable",
      "type": "function"
    },
    {
      "inputs": [],
      "name": "state",
      "outputs": [
        {
          "internalType": "enum Ballot.State",
          "name": "",
          "type": "uint8"
        }
      ],
      "stateMutability": "view",
      "type": "function"
    },
    {
      "inputs": [],
      "name": "tallyVotes",
      "outputs": [
        {
          "internalType": "string",
          "name": "winnerName",
          "type": "string"
        }
      ],
      "stateMutability": "view",
      "type": "function"
    },
    {
      "inputs": [
        {
          "internalType": "uint256",
          "name": "candidate",
          "type": "uint256"
        }
      ],
      "name": "vote",
      "outputs": [],
      "stateMutability": "nonpayable",
      "type": "function"
    },
    {
      "inputs": [
        {
          "internalType": "address",
          "name": "",
          "type": "address"
        }
      ],
      "name": "voters",
      "outputs": [
        {
          "internalType": "bool",
          "name": "rightToVote",
          "type": "bool"
        },
        {
          "internalType": "bool",
          "name": "voted",
          "type": "bool"
        },
        {
          "internalType": "uint256",
          "name": "vote",
          "type": "uint256"
        }
      ],
      "stateMutability": "view",
      "type": "function"
    }
  ],
  "bytecode": "0x608060405234801561001057600080fd5b50336000806101000a81548173ffffffffffffffffffffffffffffffffffffffff021916908373ffffffffffffffffffffffffffffffffffffffff16021790555060018060008060009054906101000a900473ffffffffffffffffffffffffffffffffffffffff1673ffffffffffffffffffffffffffffffffffffffff1673ffffffffffffffffffffffffffffffffffffffff16815260200190815260200160002060000160006101000a81548160ff02191690831515021790555060038060006101000a81548160ff02191690836003811115610117577f4e487b7100000000000000000000000000000000000000000000000000000000600052602160045260246000fd5b02179055506122158061012b6000396000f3fe608060405234801561001057600080fd5b50600436106100ea5760003560e01c80639eb88db61161008c578063c19d93fb11610066578063c19d93fb14610228578063c3ce2a9214610246578063c8e999b814610250578063ee74c6781461025a576100ea565b80639eb88db6146101d0578063a3ec138d146101ec578063a7bfab161461021e576100ea565b8063378a2178116100c8578063378a21781461015a578063378aa701146101785780637d80c38e146101965780639e7b8d61146101b4576100ea565b80630121b93f146100ef57806306a49fce1461010b5780633477ee2e14610129575b600080fd5b61010960048036038101906101049190611880565b610264565b005b6101136104b4565b6040516101209190611b5f565b60405180910390f35b610143600480360381019061013e9190611880565b6105af565b604051610151929190611bf5565b60405180910390f35b61016261066b565b60405161016f9190611bd3565b60405180910390f35b61018061095d565b60405161018d9190611bd3565b60405180910390f35b61019e610c65565b6040516101ab9190611b44565b60405180910390f35b6101ce60048036038101906101c99190611816565b610c8e565b005b6101ea60048036038101906101e5919061183f565b610ed1565b005b61020660048036038101906102019190611816565b611000565b60405161021593929190611b81565b60405180910390f35b610226611044565b005b6102306111e6565b60405161023d9190611bb8565b60405180910390f35b61024e6111f9565b005b61025861139b565b005b61026261153e565b005b6002600381111561029e577f4e487b7100000000000000000000000000000000000000000000000000000000600052602160045260246000fd5b600360009054906101000a900460ff1660038111156102e6577f4e487b7100000000000000000000000000000000000000000000000000000000600052602160045260246000fd5b14610326576040517f08c379a000000000000000000000000000000000000000000000000000000000815260040161031d90611cc5565b60405180910390fd5b6000600160003373ffffffffffffffffffffffffffffffffffffffff1673ffffffffffffffffffffffffffffffffffffffff16815260200190815260200160002090508060000160019054906101000a900460ff16156103bb576040517f08c379a00000000000000000000000000000000000000000000000000000000081526004016103b290611c85565b60405180910390fd5b8060000160009054906101000a900460ff1661040c576040517f08c379a000000000000000000000000000000000000000000000000000000000815260040161040390611c45565b60405180910390fd5b60018160000160016101000a81548160ff0219169083151502179055508181600101819055506002828154811061046c577f4e487b7100000000000000000000000000000000000000000000000000000000600052603260045260246000fd5b9060005260206000209060020201600101600081548092919061048e90611ef3565b919050555060008160000160006101000a81548160ff0219169083151502179055505050565b60606002805480602002602001604051908101604052809291908181526020016000905b828210156105a6578382906000526020600020906002020160405180604001604052908160008201805461050b90611e90565b80601f016020809104026020016040519081016040528092919081815260200182805461053790611e90565b80156105845780601f1061055957610100808354040283529160200191610584565b820191906000526020600020905b81548152906001019060200180831161056757829003601f168201915b50505050508152602001600182015481525050815260200190600101906104d8565b50505050905090565b600281815481106105bf57600080fd5b90600052602060002090600202016000915090508060000180546105e290611e90565b80601f016020809104026020016040519081016040528092919081815260200182805461060e90611e90565b801561065b5780601f106106305761010080835404028352916020019161065b565b820191906000526020600020905b81548152906001019060200180831161063e57829003601f168201915b5050505050908060010154905082565b60606003808111156106a6577f4e487b7100000000000000000000000000000000000000000000000000000000600052602160045260246000fd5b600360009054906101000a900460ff1660038111156106ee577f4e487b7100000000000000000000000000000000000000000000000000000000600052602160045260246000fd5b1461072e576040517f08c379a000000000000000000000000000000000000000000000000000000000815260040161072590611c65565b60405180910390fd5b60008054906101000a900473ffffffffffffffffffffffffffffffffffffffff1673ffffffffffffffffffffffffffffffffffffffff163373ffffffffffffffffffffffffffffffffffffffff16146107bc576040517f08c379a00000000000000000000000000000000000000000000000000000000081526004016107b390611ca5565b60405180910390fd5b6000805b600280549050811015610958578160028281548110610808577f4e487b7100000000000000000000000000000000000000000000000000000000600052603260045260246000fd5b9060005260206000209060020201600101541115610945576002818154811061085a577f4e487b7100000000000000000000000000000000000000000000000000000000600052603260045260246000fd5b9060005260206000209060020201600101549150600281815481106108a8577f4e487b7100000000000000000000000000000000000000000000000000000000600052603260045260246000fd5b906000526020600020906002020160000180546108c490611e90565b80601f01602080910402602001604051908101604052809291908181526020018280546108f090611e90565b801561093d5780601f106109125761010080835404028352916020019161093d565b820191906000526020600020905b81548152906001019060200180831161092057829003601f168201915b505050505092505b808061095090611ef3565b9150506107c0565b505090565b60606000600360009054906101000a900460ff169050600060038111156109ad577f4e487b7100000000000000000000000000000000000000000000000000000000600052602160045260246000fd5b8160038111156109e6577f4e487b7100000000000000000000000000000000000000000000000000000000600052602160045260246000fd5b1415610a2a576040518060400160405280601681526020017f5265676973746572696e672043616e6469646174657300000000000000000000815250915050610c62565b60016003811115610a64577f4e487b7100000000000000000000000000000000000000000000000000000000600052602160045260246000fd5b816003811115610a9d577f4e487b7100000000000000000000000000000000000000000000000000000000600052602160045260246000fd5b1415610ae1576040518060400160405280601281526020017f5265676973746572696e6720566f746572730000000000000000000000000000815250915050610c62565b60026003811115610b1b577f4e487b7100000000000000000000000000000000000000000000000000000000600052602160045260246000fd5b816003811115610b54577f4e487b7100000000000000000000000000000000000000000000000000000000600052602160045260246000fd5b1415610b98576040518060400160405280600e81526020017f566f74696e672053657373696f6e000000000000000000000000000000000000815250915050610c62565b600380811115610bd1577f4e487b7100000000000000000000000000000000000000000000000000000000600052602160045260246000fd5b816003811115610c0a577f4e487b7100000000000000000000000000000000000000000000000000000000600052602160045260246000fd5b1415610c4e576040518060400160405280600b81526020017f54616c6c7920566f746573000000000000000000000000000000000000000000815250915050610c62565b604051806020016040528060008152509150505b90565b60008060009054906101000a900473ffffffffffffffffffffffffffffffffffffffff16905090565b60016003811115610cc8577f4e487b7100000000000000000000000000000000000000000000000000000000600052602160045260246000fd5b600360009054906101000a900460ff166003811115610d10577f4e487b7100000000000000000000000000000000000000000000000000000000600052602160045260246000fd5b14610d50576040517f08c379a0000000000000000000000000000000000000000000000000000000008152600401610d4790611ce5565b60405180910390fd5b60008054906101000a900473ffffffffffffffffffffffffffffffffffffffff1673ffffffffffffffffffffffffffffffffffffffff163373ffffffffffffffffffffffffffffffffffffffff1614610dde576040517f08c379a0000000000000000000000000000000000000000000000000000000008152600401610dd590611ca5565b60405180910390fd5b60001515600160008373ffffffffffffffffffffffffffffffffffffffff1673ffffffffffffffffffffffffffffffffffffffff16815260200190815260200160002060000160009054906101000a900460ff16151514610e74576040517f08c379a0000000000000000000000000000000000000000000000000000000008152600401610e6b90611d05565b60405180910390fd5b60018060008373ffffffffffffffffffffffffffffffffffffffff1673ffffffffffffffffffffffffffffffffffffffff16815260200190815260200160002060000160006101000a81548160ff02191690831515021790555050565b60006003811115610f0b577f4e487b7100000000000000000000000000000000000000000000000000000000600052602160045260246000fd5b600360009054906101000a900460ff166003811115610f53577f4e487b7100000000000000000000000000000000000000000000000000000000600052602160045260246000fd5b14610f93576040517f08c379a0000000000000000000000000000000000000000000000000000000008152600401610f8a90611c25565b60405180910390fd5b60026040518060400160405280838152602001600081525090806001815401808255809150506001900390600052602060002090600202016000909190919091506000820151816000019080519060200190610ff09291906116e1565b5060208201518160010155505050565b60016020528060005260406000206000915090508060000160009054906101000a900460ff16908060000160019054906101000a900460ff16908060010154905083565b60008054906101000a900473ffffffffffffffffffffffffffffffffffffffff1673ffffffffffffffffffffffffffffffffffffffff163373ffffffffffffffffffffffffffffffffffffffff16146110d2576040517f08c379a00000000000000000000000000000000000000000000000000000000081526004016110c990611ca5565b60405180910390fd5b6002600381111561110c577f4e487b7100000000000000000000000000000000000000000000000000000000600052602160045260246000fd5b600360009054906101000a900460ff166003811115611154577f4e487b7100000000000000000000000000000000000000000000000000000000600052602160045260246000fd5b14611194576040517f08c379a000000000000000000000000000000000000000000000000000000000815260040161118b90611cc5565b60405180910390fd5b60038060006101000a81548160ff021916908360038111156111df577f4e487b7100000000000000000000000000000000000000000000000000000000600052602160045260246000fd5b0217905550565b600360009054906101000a900460ff1681565b60008054906101000a900473ffffffffffffffffffffffffffffffffffffffff1673ffffffffffffffffffffffffffffffffffffffff163373ffffffffffffffffffffffffffffffffffffffff1614611287576040517f08c379a000000000000000000000000000000000000000000000000000000000815260040161127e90611ca5565b60405180910390fd5b6003808111156112c0577f4e487b7100000000000000000000000000000000000000000000000000000000600052602160045260246000fd5b600360009054906101000a900460ff166003811115611308577f4e487b7100000000000000000000000000000000000000000000000000000000600052602160045260246000fd5b14611348576040517f08c379a000000000000000000000000000000000000000000000000000000000815260040161133f90611c65565b60405180910390fd5b6000600360006101000a81548160ff02191690836003811115611394577f4e487b7100000000000000000000000000000000000000000000000000000000600052602160045260246000fd5b0217905550565b60008054906101000a900473ffffffffffffffffffffffffffffffffffffffff1673ffffffffffffffffffffffffffffffffffffffff163373ffffffffffffffffffffffffffffffffffffffff1614611429576040517f08c379a000000000000000000000000000000000000000000000000000000000815260040161142090611ca5565b60405180910390fd5b60006003811115611463577f4e487b7100000000000000000000000000000000000000000000000000000000600052602160045260246000fd5b600360009054906101000a900460ff1660038111156114ab577f4e487b7100000000000000000000000000000000000000000000000000000000600052602160045260246000fd5b146114eb576040517f08c379a00000000000000000000000000000000000000000000000000000000081526004016114e290611c25565b60405180910390fd5b6001600360006101000a81548160ff02191690836003811115611537577f4e487b7100000000000000000000000000000000000000000000000000000000600052602160045260246000fd5b0217905550565b60008054906101000a900473ffffffffffffffffffffffffffffffffffffffff1673ffffffffffffffffffffffffffffffffffffffff163373ffffffffffffffffffffffffffffffffffffffff16146115cc576040517f08c379a00000000000000000000000000000000000000000000000000000000081526004016115c390611ca5565b60405180910390fd5b60016003811115611606577f4e487b7100000000000000000000000000000000000000000000000000000000600052602160045260246000fd5b600360009054906101000a900460ff16600381111561164e577f4e487b7100000000000000000000000000000000000000000000000000000000600052602160045260246000fd5b1461168e576040517f08c379a000000000000000000000000000000000000000000000000000000000815260040161168590611ce5565b60405180910390fd5b6002600360006101000a81548160ff021916908360038111156116da577f4e487b7100000000000000000000000000000000000000000000000000000000600052602160045260246000fd5b0217905550565b8280546116ed90611e90565b90600052602060002090601f01602090048101928261170f5760008555611756565b82601f1061172857805160ff1916838001178555611756565b82800160010185558215611756579182015b8281111561175557825182559160200191906001019061173a565b5b5090506117639190611767565b5090565b5b80821115611780576000816000905550600101611768565b5090565b600061179761179284611d4a565b611d25565b9050828152602081018484840111156117af57600080fd5b6117ba848285611e4e565b509392505050565b6000813590506117d1816121b1565b92915050565b600082601f8301126117e857600080fd5b81356117f8848260208601611784565b91505092915050565b600081359050611810816121c8565b92915050565b60006020828403121561182857600080fd5b6000611836848285016117c2565b91505092915050565b60006020828403121561185157600080fd5b600082013567ffffffffffffffff81111561186b57600080fd5b611877848285016117d7565b91505092915050565b60006020828403121561189257600080fd5b60006118a084828501611801565b91505092915050565b60006118b58383611ae9565b905092915050565b6118c681611de1565b82525050565b60006118d782611d8b565b6118e18185611dae565b9350836020820285016118f385611d7b565b8060005b8581101561192f578484038952815161191085826118a9565b945061191b83611da1565b925060208a019950506001810190506118f7565b50829750879550505050505092915050565b61194a81611df3565b82525050565b61195981611e3c565b82525050565b600061196a82611d96565b6119748185611dbf565b9350611984818560208601611e5d565b61198d81611ff8565b840191505092915050565b60006119a382611d96565b6119ad8185611dd0565b93506119bd818560208601611e5d565b6119c681611ff8565b840191505092915050565b60006119de602383611dd0565b91506119e982612009565b604082019050919050565b6000611a01601483611dd0565b9150611a0c82612058565b602082019050919050565b6000611a24601983611dd0565b9150611a2f82612081565b602082019050919050565b6000611a47600e83611dd0565b9150611a52826120aa565b602082019050919050565b6000611a6a602d83611dd0565b9150611a75826120d3565b604082019050919050565b6000611a8d601c83611dd0565b9150611a9882612122565b602082019050919050565b6000611ab0602083611dd0565b9150611abb8261214b565b602082019050919050565b6000611ad3601d83611dd0565b9150611ade82612174565b602082019050919050565b60006040830160008301518482036000860152611b06828261195f565b9150506020830151611b1b6020860182611b26565b508091505092915050565b611b2f81611e32565b82525050565b611b3e81611e32565b82525050565b6000602082019050611b5960008301846118bd565b92915050565b60006020820190508181036000830152611b7981846118cc565b905092915050565b6000606082019050611b966000830186611941565b611ba36020830185611941565b611bb06040830184611b35565b949350505050565b6000602082019050611bcd6000830184611950565b92915050565b60006020820190508181036000830152611bed8184611998565b905092915050565b60006040820190508181036000830152611c0f8185611998565b9050611c1e6020830184611b35565b9392505050565b60006020820190508181036000830152611c3e816119d1565b9050919050565b60006020820190508181036000830152611c5e816119f4565b9050919050565b60006020820190508181036000830152611c7e81611a17565b9050919050565b60006020820190508181036000830152611c9e81611a3a565b9050919050565b60006020820190508181036000830152611cbe81611a5d565b9050919050565b60006020820190508181036000830152611cde81611a80565b9050919050565b60006020820190508181036000830152611cfe81611aa3565b9050919050565b60006020820190508181036000830152611d1e81611ac6565b9050919050565b6000611d2f611d40565b9050611d3b8282611ec2565b919050565b6000604051905090565b600067ffffffffffffffff821115611d6557611d64611fc9565b5b611d6e82611ff8565b9050602081019050919050565b6000819050602082019050919050565b600081519050919050565b600081519050919050565b6000602082019050919050565b600082825260208201905092915050565b600082825260208201905092915050565b600082825260208201905092915050565b6000611dec82611e12565b9050919050565b60008115159050919050565b6000819050611e0d8261219d565b919050565b600073ffffffffffffffffffffffffffffffffffffffff82169050919050565b6000819050919050565b6000611e4782611dff565b9050919050565b82818337600083830152505050565b60005b83811015611e7b578082015181840152602081019050611e60565b83811115611e8a576000848401525b50505050565b60006002820490506001821680611ea857607f821691505b60208210811415611ebc57611ebb611f9a565b5b50919050565b611ecb82611ff8565b810181811067ffffffffffffffff82111715611eea57611ee9611fc9565b5b80604052505050565b6000611efe82611e32565b91507fffffffffffffffffffffffffffffffffffffffffffffffffffffffffffffffff821415611f3157611f30611f3c565b5b600182019050919050565b7f4e487b7100000000000000000000000000000000000000000000000000000000600052601160045260246000fd5b7f4e487b7100000000000000000000000000000000000000000000000000000000600052602160045260246000fd5b7f4e487b7100000000000000000000000000000000000000000000000000000000600052602260045260246000fd5b7f4e487b7100000000000000000000000000000000000000000000000000000000600052604160045260246000fd5b6000601f19601f8301169050919050565b7f6974206d75737420626520696e205265676973746572696e672043616e64696460008201527f6174650000000000000000000000000000000000000000000000000000000000602082015250565b7f486173206e6f20726967687420746f20766f7465000000000000000000000000600082015250565b7f6974206d75737420626520696e2054616c6c7920566f74657300000000000000600082015250565b7f416c726561647920766f7465642e000000000000000000000000000000000000600082015250565b7f4f6e6c79206368616972706572736f6e2063616e20737461727420616e64206560008201527f6e642074686520766f74696e6700000000000000000000000000000000000000602082015250565b7f6974206d75737420626520696e20566f74696e672053657373696f6e00000000600082015250565b7f6974206d75737420626520696e205265676973746572696e6720566f74657273600082015250565b7f48617320616c72656164792074686520726967687420746f20766f7465000000600082015250565b600481106121ae576121ad611f6b565b5b50565b6121ba81611de1565b81146121c557600080fd5b50565b6121d181611e32565b81146121dc57600080fd5b5056fea264697066735822122055493be002408170f5084abbb94dd6f6724cce2850017eff7921bab9fedae68e64736f6c63430008040033",
  "linkReferences": {},
  "deployedLinkReferences": {}
}