{
  "_format": "hh-sol-artifact-1",
  "contractName": "Ballot",
  "sourceName": "contracts/Voting.sol",
  "abi": [
    {
      "inputs": [],
      "stateMutability": "nonpayable",
      "type": "constructor"
    },
    {
      "inputs": [
        {
          "internalType": "uint256",
          "name": "",
          "type": "uint256"
        }
      ],
      "name": "candidates",
      "outputs": [
        {
          "internalType": "string",
          "name": "name",
          "type": "string"
        },
        {
          "internalType": "uint256",
          "name": "voteCount",
          "type": "uint256"
        }
      ],
      "stateMutability": "view",
      "type": "function"
    },
    {
      "inputs": [],
      "name": "endVotingSession",
      "outputs": [],
      "stateMutability": "nonpayable",
      "type": "function"
    },
    {
      "inputs": [],
      "name": "getCandidatesNames",
      "outputs": [
        {
          "internalType": "string[]",
          "name": "",
          "type": "string[]"
        }
      ],
      "stateMutability": "view",
      "type": "function"
    },
    {
      "inputs": [],
      "name": "getChairperson",
      "outputs": [
        {
          "internalType": "address",
          "name": "",
          "type": "address"
        }
      ],
      "stateMutability": "view",
      "type": "function"
    },
    {
      "inputs": [],
      "name": "getCurrentState",
      "outputs": [
        {
          "internalType": "string",
          "name": "",
          "type": "string"
        }
      ],
      "stateMutability": "view",
      "type": "function"
    },
    {
      "inputs": [],
      "name": "getTest",
      "outputs": [
        {
          "internalType": "string",
          "name": "",
          "type": "string"
        }
      ],
      "stateMutability": "view",
      "type": "function"
    },
    {
      "inputs": [
        {
          "internalType": "address",
          "name": "voter",
          "type": "address"
        }
      ],
      "name": "giveRightToVote",
      "outputs": [],
      "stateMutability": "nonpayable",
      "type": "function"
    },
    {
      "inputs": [
        {
          "internalType": "string",
          "name": "candidateName",
          "type": "string"
        }
      ],
      "name": "registerCandidate",
      "outputs": [],
      "stateMutability": "nonpayable",
      "type": "function"
    },
    {
      "inputs": [],
      "name": "startRegisteringCandidates",
      "outputs": [],
      "stateMutability": "nonpayable",
      "type": "function"
    },
    {
      "inputs": [],
      "name": "startRegisteringVoters",
      "outputs": [],
      "stateMutability": "nonpayable",
      "type": "function"
    },
    {
      "inputs": [],
      "name": "startVotingSession",
      "outputs": [],
      "stateMutability": "nonpayable",
      "type": "function"
    },
    {
      "inputs": [],
      "name": "state",
      "outputs": [
        {
          "internalType": "enum Ballot.State",
          "name": "",
          "type": "uint8"
        }
      ],
      "stateMutability": "view",
      "type": "function"
    },
    {
      "inputs": [],
      "name": "tallyVotes",
      "outputs": [
        {
          "internalType": "string",
          "name": "winnerName",
          "type": "string"
        }
      ],
      "stateMutability": "view",
      "type": "function"
    },
    {
      "inputs": [
        {
          "internalType": "uint256",
          "name": "candidate",
          "type": "uint256"
        }
      ],
      "name": "vote",
      "outputs": [],
      "stateMutability": "nonpayable",
      "type": "function"
    },
    {
      "inputs": [
        {
          "internalType": "address",
          "name": "",
          "type": "address"
        }
      ],
      "name": "voters",
      "outputs": [
        {
          "internalType": "bool",
          "name": "rightToVote",
          "type": "bool"
        },
        {
          "internalType": "bool",
          "name": "voted",
          "type": "bool"
        },
        {
          "internalType": "uint256",
          "name": "vote",
          "type": "uint256"
        }
      ],
      "stateMutability": "view",
      "type": "function"
    }
  ],
  "bytecode": "0x60806040523480156200001157600080fd5b50336000806101000a81548173ffffffffffffffffffffffffffffffffffffffff021916908373ffffffffffffffffffffffffffffffffffffffff16021790555060018060008060009054906101000a900473ffffffffffffffffffffffffffffffffffffffff1673ffffffffffffffffffffffffffffffffffffffff1673ffffffffffffffffffffffffffffffffffffffff16815260200190815260200160002060000160006101000a81548160ff0219169083151502179055506003600560006101000a81548160ff021916908360038111156200011a577f4e487b7100000000000000000000000000000000000000000000000000000000600052602160045260246000fd5b02179055506040518060400160405280600481526020017f6369616f00000000000000000000000000000000000000000000000000000000815250600490805190602001906200016c92919062000173565b5062000288565b828054620001819062000223565b90600052602060002090601f016020900481019282620001a55760008555620001f1565b82601f10620001c057805160ff1916838001178555620001f1565b82800160010185558215620001f1579182015b82811115620001f0578251825591602001919060010190620001d3565b5b50905062000200919062000204565b5090565b5b808211156200021f57600081600090555060010162000205565b5090565b600060028204905060018216806200023c57607f821691505b6020821081141562000253576200025262000259565b5b50919050565b7f4e487b7100000000000000000000000000000000000000000000000000000000600052602260045260246000fd5b61229f80620002986000396000f3fe608060405234801561001057600080fd5b50600436106100f55760003560e01c80639eb88db611610097578063c19d93fb11610066578063c19d93fb14610251578063c3ce2a921461026f578063c8e999b814610279578063ee74c67814610283576100f5565b80639eb88db6146101db578063a3ec138d146101f7578063a7bfab1614610229578063a8cd0a8014610233576100f5565b8063378a2178116100d3578063378a217814610165578063378aa701146101835780637d80c38e146101a15780639e7b8d61146101bf576100f5565b80630121b93f146100fa578063185fd225146101165780633477ee2e14610134575b600080fd5b610114600480360381019061010f9190611956565b61028d565b005b61011e6104dd565b60405161012b9190611be9565b60405180910390f35b61014e60048036038101906101499190611956565b6105b6565b60405161015c929190611c7f565b60405180910390f35b61016d610672565b60405161017a9190611c5d565b60405180910390f35b61018b610964565b6040516101989190611c5d565b60405180910390f35b6101a9610c6c565b6040516101b69190611bce565b60405180910390f35b6101d960048036038101906101d491906118ec565b610c95565b005b6101f560048036038101906101f09190611915565b610ed8565b005b610211600480360381019061020c91906118ec565b611043565b60405161022093929190611c0b565b60405180910390f35b610231611087565b005b61023b61122a565b6040516102489190611c5d565b60405180910390f35b6102596112bc565b6040516102669190611c42565b60405180910390f35b6102776112cf565b005b610281611471565b005b61028b611614565b005b600260038111156102c7577f4e487b7100000000000000000000000000000000000000000000000000000000600052602160045260246000fd5b600560009054906101000a900460ff16600381111561030f577f4e487b7100000000000000000000000000000000000000000000000000000000600052602160045260246000fd5b1461034f576040517f08c379a000000000000000000000000000000000000000000000000000000000815260040161034690611d4f565b60405180910390fd5b6000600160003373ffffffffffffffffffffffffffffffffffffffff1673ffffffffffffffffffffffffffffffffffffffff16815260200190815260200160002090508060000160019054906101000a900460ff16156103e4576040517f08c379a00000000000000000000000000000000000000000000000000000000081526004016103db90611d0f565b60405180910390fd5b8060000160009054906101000a900460ff16610435576040517f08c379a000000000000000000000000000000000000000000000000000000000815260040161042c90611ccf565b60405180910390fd5b60018160000160016101000a81548160ff02191690831515021790555081816001018190555060028281548110610495577f4e487b7100000000000000000000000000000000000000000000000000000000600052603260045260246000fd5b906000526020600020906002020160010160008154809291906104b790611f7d565b919050555060008160000160006101000a81548160ff0219169083151502179055505050565b60606003805480602002602001604051908101604052809291908181526020016000905b828210156105ad57838290600052602060002001805461052090611f1a565b80601f016020809104026020016040519081016040528092919081815260200182805461054c90611f1a565b80156105995780601f1061056e57610100808354040283529160200191610599565b820191906000526020600020905b81548152906001019060200180831161057c57829003601f168201915b505050505081526020019060010190610501565b50505050905090565b600281815481106105c657600080fd5b90600052602060002090600202016000915090508060000180546105e990611f1a565b80601f016020809104026020016040519081016040528092919081815260200182805461061590611f1a565b80156106625780601f1061063757610100808354040283529160200191610662565b820191906000526020600020905b81548152906001019060200180831161064557829003601f168201915b5050505050908060010154905082565b60606003808111156106ad577f4e487b7100000000000000000000000000000000000000000000000000000000600052602160045260246000fd5b600560009054906101000a900460ff1660038111156106f5577f4e487b7100000000000000000000000000000000000000000000000000000000600052602160045260246000fd5b14610735576040517f08c379a000000000000000000000000000000000000000000000000000000000815260040161072c90611cef565b60405180910390fd5b60008054906101000a900473ffffffffffffffffffffffffffffffffffffffff1673ffffffffffffffffffffffffffffffffffffffff163373ffffffffffffffffffffffffffffffffffffffff16146107c3576040517f08c379a00000000000000000000000000000000000000000000000000000000081526004016107ba90611d2f565b60405180910390fd5b6000805b60028054905081101561095f57816002828154811061080f577f4e487b7100000000000000000000000000000000000000000000000000000000600052603260045260246000fd5b906000526020600020906002020160010154111561094c5760028181548110610861577f4e487b7100000000000000000000000000000000000000000000000000000000600052603260045260246000fd5b9060005260206000209060020201600101549150600281815481106108af577f4e487b7100000000000000000000000000000000000000000000000000000000600052603260045260246000fd5b906000526020600020906002020160000180546108cb90611f1a565b80601f01602080910402602001604051908101604052809291908181526020018280546108f790611f1a565b80156109445780601f1061091957610100808354040283529160200191610944565b820191906000526020600020905b81548152906001019060200180831161092757829003601f168201915b505050505092505b808061095790611f7d565b9150506107c7565b505090565b60606000600560009054906101000a900460ff169050600060038111156109b4577f4e487b7100000000000000000000000000000000000000000000000000000000600052602160045260246000fd5b8160038111156109ed577f4e487b7100000000000000000000000000000000000000000000000000000000600052602160045260246000fd5b1415610a31576040518060400160405280601681526020017f5265676973746572696e672043616e6469646174657300000000000000000000815250915050610c69565b60016003811115610a6b577f4e487b7100000000000000000000000000000000000000000000000000000000600052602160045260246000fd5b816003811115610aa4577f4e487b7100000000000000000000000000000000000000000000000000000000600052602160045260246000fd5b1415610ae8576040518060400160405280601281526020017f5265676973746572696e6720566f746572730000000000000000000000000000815250915050610c69565b60026003811115610b22577f4e487b7100000000000000000000000000000000000000000000000000000000600052602160045260246000fd5b816003811115610b5b577f4e487b7100000000000000000000000000000000000000000000000000000000600052602160045260246000fd5b1415610b9f576040518060400160405280600e81526020017f566f74696e672053657373696f6e000000000000000000000000000000000000815250915050610c69565b600380811115610bd8577f4e487b7100000000000000000000000000000000000000000000000000000000600052602160045260246000fd5b816003811115610c11577f4e487b7100000000000000000000000000000000000000000000000000000000600052602160045260246000fd5b1415610c55576040518060400160405280600b81526020017f54616c6c7920566f746573000000000000000000000000000000000000000000815250915050610c69565b604051806020016040528060008152509150505b90565b60008060009054906101000a900473ffffffffffffffffffffffffffffffffffffffff16905090565b60016003811115610ccf577f4e487b7100000000000000000000000000000000000000000000000000000000600052602160045260246000fd5b600560009054906101000a900460ff166003811115610d17577f4e487b7100000000000000000000000000000000000000000000000000000000600052602160045260246000fd5b14610d57576040517f08c379a0000000000000000000000000000000000000000000000000000000008152600401610d4e90611d6f565b60405180910390fd5b60008054906101000a900473ffffffffffffffffffffffffffffffffffffffff1673ffffffffffffffffffffffffffffffffffffffff163373ffffffffffffffffffffffffffffffffffffffff1614610de5576040517f08c379a0000000000000000000000000000000000000000000000000000000008152600401610ddc90611d2f565b60405180910390fd5b60001515600160008373ffffffffffffffffffffffffffffffffffffffff1673ffffffffffffffffffffffffffffffffffffffff16815260200190815260200160002060000160009054906101000a900460ff16151514610e7b576040517f08c379a0000000000000000000000000000000000000000000000000000000008152600401610e7290611d8f565b60405180910390fd5b60018060008373ffffffffffffffffffffffffffffffffffffffff1673ffffffffffffffffffffffffffffffffffffffff16815260200190815260200160002060000160006101000a81548160ff02191690831515021790555050565b60006003811115610f12577f4e487b7100000000000000000000000000000000000000000000000000000000600052602160045260246000fd5b600560009054906101000a900460ff166003811115610f5a577f4e487b7100000000000000000000000000000000000000000000000000000000600052602160045260246000fd5b14610f9a576040517f08c379a0000000000000000000000000000000000000000000000000000000008152600401610f9190611caf565b60405180910390fd5b60026040518060400160405280838152602001600081525090806001815401808255809150506001900390600052602060002090600202016000909190919091506000820151816000019080519060200190610ff79291906117b7565b5060208201518160010155505060038190806001815401808255809150506001900390600052602060002001600090919091909150908051906020019061103f9291906117b7565b5050565b60016020528060005260406000206000915090508060000160009054906101000a900460ff16908060000160019054906101000a900460ff16908060010154905083565b60008054906101000a900473ffffffffffffffffffffffffffffffffffffffff1673ffffffffffffffffffffffffffffffffffffffff163373ffffffffffffffffffffffffffffffffffffffff1614611115576040517f08c379a000000000000000000000000000000000000000000000000000000000815260040161110c90611d2f565b60405180910390fd5b6002600381111561114f577f4e487b7100000000000000000000000000000000000000000000000000000000600052602160045260246000fd5b600560009054906101000a900460ff166003811115611197577f4e487b7100000000000000000000000000000000000000000000000000000000600052602160045260246000fd5b146111d7576040517f08c379a00000000000000000000000000000000000000000000000000000000081526004016111ce90611d4f565b60405180910390fd5b6003600560006101000a81548160ff02191690836003811115611223577f4e487b7100000000000000000000000000000000000000000000000000000000600052602160045260246000fd5b0217905550565b60606004805461123990611f1a565b80601f016020809104026020016040519081016040528092919081815260200182805461126590611f1a565b80156112b25780601f10611287576101008083540402835291602001916112b2565b820191906000526020600020905b81548152906001019060200180831161129557829003601f168201915b5050505050905090565b600560009054906101000a900460ff1681565b60008054906101000a900473ffffffffffffffffffffffffffffffffffffffff1673ffffffffffffffffffffffffffffffffffffffff163373ffffffffffffffffffffffffffffffffffffffff161461135d576040517f08c379a000000000000000000000000000000000000000000000000000000000815260040161135490611d2f565b60405180910390fd5b600380811115611396577f4e487b7100000000000000000000000000000000000000000000000000000000600052602160045260246000fd5b600560009054906101000a900460ff1660038111156113de577f4e487b7100000000000000000000000000000000000000000000000000000000600052602160045260246000fd5b1461141e576040517f08c379a000000000000000000000000000000000000000000000000000000000815260040161141590611cef565b60405180910390fd5b6000600560006101000a81548160ff0219169083600381111561146a577f4e487b7100000000000000000000000000000000000000000000000000000000600052602160045260246000fd5b0217905550565b60008054906101000a900473ffffffffffffffffffffffffffffffffffffffff1673ffffffffffffffffffffffffffffffffffffffff163373ffffffffffffffffffffffffffffffffffffffff16146114ff576040517f08c379a00000000000000000000000000000000000000000000000000000000081526004016114f690611d2f565b60405180910390fd5b60006003811115611539577f4e487b7100000000000000000000000000000000000000000000000000000000600052602160045260246000fd5b600560009054906101000a900460ff166003811115611581577f4e487b7100000000000000000000000000000000000000000000000000000000600052602160045260246000fd5b146115c1576040517f08c379a00000000000000000000000000000000000000000000000000000000081526004016115b890611caf565b60405180910390fd5b6001600560006101000a81548160ff0219169083600381111561160d577f4e487b7100000000000000000000000000000000000000000000000000000000600052602160045260246000fd5b0217905550565b60008054906101000a900473ffffffffffffffffffffffffffffffffffffffff1673ffffffffffffffffffffffffffffffffffffffff163373ffffffffffffffffffffffffffffffffffffffff16146116a2576040517f08c379a000000000000000000000000000000000000000000000000000000000815260040161169990611d2f565b60405180910390fd5b600160038111156116dc577f4e487b7100000000000000000000000000000000000000000000000000000000600052602160045260246000fd5b600560009054906101000a900460ff166003811115611724577f4e487b7100000000000000000000000000000000000000000000000000000000600052602160045260246000fd5b14611764576040517f08c379a000000000000000000000000000000000000000000000000000000000815260040161175b90611d6f565b60405180910390fd5b6002600560006101000a81548160ff021916908360038111156117b0577f4e487b7100000000000000000000000000000000000000000000000000000000600052602160045260246000fd5b0217905550565b8280546117c390611f1a565b90600052602060002090601f0160209004810192826117e5576000855561182c565b82601f106117fe57805160ff191683800117855561182c565b8280016001018555821561182c579182015b8281111561182b578251825591602001919060010190611810565b5b509050611839919061183d565b5090565b5b8082111561185657600081600090555060010161183e565b5090565b600061186d61186884611dd4565b611daf565b90508281526020810184848401111561188557600080fd5b611890848285611ed8565b509392505050565b6000813590506118a78161223b565b92915050565b600082601f8301126118be57600080fd5b81356118ce84826020860161185a565b91505092915050565b6000813590506118e681612252565b92915050565b6000602082840312156118fe57600080fd5b600061190c84828501611898565b91505092915050565b60006020828403121561192757600080fd5b600082013567ffffffffffffffff81111561194157600080fd5b61194d848285016118ad565b91505092915050565b60006020828403121561196857600080fd5b6000611976848285016118d7565b91505092915050565b600061198b8383611a35565b905092915050565b61199c81611e6b565b82525050565b60006119ad82611e15565b6119b78185611e38565b9350836020820285016119c985611e05565b8060005b85811015611a0557848403895281516119e6858261197f565b94506119f183611e2b565b925060208a019950506001810190506119cd565b50829750879550505050505092915050565b611a2081611e7d565b82525050565b611a2f81611ec6565b82525050565b6000611a4082611e20565b611a4a8185611e49565b9350611a5a818560208601611ee7565b611a6381612082565b840191505092915050565b6000611a7982611e20565b611a838185611e5a565b9350611a93818560208601611ee7565b611a9c81612082565b840191505092915050565b6000611ab4602383611e5a565b9150611abf82612093565b604082019050919050565b6000611ad7601483611e5a565b9150611ae2826120e2565b602082019050919050565b6000611afa601983611e5a565b9150611b058261210b565b602082019050919050565b6000611b1d600e83611e5a565b9150611b2882612134565b602082019050919050565b6000611b40602d83611e5a565b9150611b4b8261215d565b604082019050919050565b6000611b63601c83611e5a565b9150611b6e826121ac565b602082019050919050565b6000611b86602083611e5a565b9150611b91826121d5565b602082019050919050565b6000611ba9601d83611e5a565b9150611bb4826121fe565b602082019050919050565b611bc881611ebc565b82525050565b6000602082019050611be36000830184611993565b92915050565b60006020820190508181036000830152611c0381846119a2565b905092915050565b6000606082019050611c206000830186611a17565b611c2d6020830185611a17565b611c3a6040830184611bbf565b949350505050565b6000602082019050611c576000830184611a26565b92915050565b60006020820190508181036000830152611c778184611a6e565b905092915050565b60006040820190508181036000830152611c998185611a6e565b9050611ca86020830184611bbf565b9392505050565b60006020820190508181036000830152611cc881611aa7565b9050919050565b60006020820190508181036000830152611ce881611aca565b9050919050565b60006020820190508181036000830152611d0881611aed565b9050919050565b60006020820190508181036000830152611d2881611b10565b9050919050565b60006020820190508181036000830152611d4881611b33565b9050919050565b60006020820190508181036000830152611d6881611b56565b9050919050565b60006020820190508181036000830152611d8881611b79565b9050919050565b60006020820190508181036000830152611da881611b9c565b9050919050565b6000611db9611dca565b9050611dc58282611f4c565b919050565b6000604051905090565b600067ffffffffffffffff821115611def57611dee612053565b5b611df882612082565b9050602081019050919050565b6000819050602082019050919050565b600081519050919050565b600081519050919050565b6000602082019050919050565b600082825260208201905092915050565b600082825260208201905092915050565b600082825260208201905092915050565b6000611e7682611e9c565b9050919050565b60008115159050919050565b6000819050611e9782612227565b919050565b600073ffffffffffffffffffffffffffffffffffffffff82169050919050565b6000819050919050565b6000611ed182611e89565b9050919050565b82818337600083830152505050565b60005b83811015611f05578082015181840152602081019050611eea565b83811115611f14576000848401525b50505050565b60006002820490506001821680611f3257607f821691505b60208210811415611f4657611f45612024565b5b50919050565b611f5582612082565b810181811067ffffffffffffffff82111715611f7457611f73612053565b5b80604052505050565b6000611f8882611ebc565b91507fffffffffffffffffffffffffffffffffffffffffffffffffffffffffffffffff821415611fbb57611fba611fc6565b5b600182019050919050565b7f4e487b7100000000000000000000000000000000000000000000000000000000600052601160045260246000fd5b7f4e487b7100000000000000000000000000000000000000000000000000000000600052602160045260246000fd5b7f4e487b7100000000000000000000000000000000000000000000000000000000600052602260045260246000fd5b7f4e487b7100000000000000000000000000000000000000000000000000000000600052604160045260246000fd5b6000601f19601f8301169050919050565b7f6974206d75737420626520696e205265676973746572696e672043616e64696460008201527f6174650000000000000000000000000000000000000000000000000000000000602082015250565b7f486173206e6f20726967687420746f20766f7465000000000000000000000000600082015250565b7f6974206d75737420626520696e2054616c6c7920566f74657300000000000000600082015250565b7f416c726561647920766f7465642e000000000000000000000000000000000000600082015250565b7f4f6e6c79206368616972706572736f6e2063616e20737461727420616e64206560008201527f6e642074686520766f74696e6700000000000000000000000000000000000000602082015250565b7f6974206d75737420626520696e20566f74696e672053657373696f6e00000000600082015250565b7f6974206d75737420626520696e205265676973746572696e6720566f74657273600082015250565b7f48617320616c72656164792074686520726967687420746f20766f7465000000600082015250565b6004811061223857612237611ff5565b5b50565b61224481611e6b565b811461224f57600080fd5b50565b61225b81611ebc565b811461226657600080fd5b5056fea26469706673582212202191e6a4bb85196a6e477e7d21a6714052da68b8e9886e816c647619034d208a64736f6c63430008040033",
  "linkReferences": {},
  "deployedLinkReferences": {}
}