{
  "_format": "hh-sol-artifact-1",
  "contractName": "Ballot",
  "sourceName": "contracts/Voting.sol",
  "abi": [
    {
      "inputs": [],
      "stateMutability": "nonpayable",
      "type": "constructor"
    },
    {
      "inputs": [
        {
          "internalType": "uint256",
          "name": "",
          "type": "uint256"
        }
      ],
      "name": "candidates",
      "outputs": [
        {
          "internalType": "string",
          "name": "name",
          "type": "string"
        },
        {
          "internalType": "uint256",
          "name": "voteCount",
          "type": "uint256"
        }
      ],
      "stateMutability": "view",
      "type": "function"
    },
    {
      "inputs": [],
      "name": "endVotingSession",
      "outputs": [],
      "stateMutability": "nonpayable",
      "type": "function"
    },
    {
      "inputs": [],
      "name": "getCandidates",
      "outputs": [
        {
          "components": [
            {
              "internalType": "string",
              "name": "name",
              "type": "string"
            },
            {
              "internalType": "uint256",
              "name": "voteCount",
              "type": "uint256"
            }
          ],
          "internalType": "struct Ballot.Candidate[]",
          "name": "",
          "type": "tuple[]"
        }
      ],
      "stateMutability": "view",
      "type": "function"
    },
    {
      "inputs": [],
      "name": "getChairperson",
      "outputs": [
        {
          "internalType": "address",
          "name": "",
          "type": "address"
        }
      ],
      "stateMutability": "view",
      "type": "function"
    },
    {
      "inputs": [
        {
          "internalType": "address",
          "name": "voter",
          "type": "address"
        }
      ],
      "name": "giveRightToVote",
      "outputs": [],
      "stateMutability": "nonpayable",
      "type": "function"
    },
    {
      "inputs": [
        {
          "internalType": "string",
          "name": "candidateName",
          "type": "string"
        }
      ],
      "name": "registerCandidate",
      "outputs": [],
      "stateMutability": "nonpayable",
      "type": "function"
    },
    {
      "inputs": [],
      "name": "startRegisteringCandidates",
      "outputs": [],
      "stateMutability": "nonpayable",
      "type": "function"
    },
    {
      "inputs": [],
      "name": "startRegisteringVoters",
      "outputs": [],
      "stateMutability": "nonpayable",
      "type": "function"
    },
    {
      "inputs": [],
      "name": "startVotingSession",
      "outputs": [],
      "stateMutability": "nonpayable",
      "type": "function"
    },
    {
      "inputs": [],
      "name": "state",
      "outputs": [
        {
          "internalType": "enum Ballot.State",
          "name": "",
          "type": "uint8"
        }
      ],
      "stateMutability": "view",
      "type": "function"
    },
    {
      "inputs": [],
      "name": "tallyVotes",
      "outputs": [
        {
          "internalType": "string",
          "name": "winnerName",
          "type": "string"
        }
      ],
      "stateMutability": "view",
      "type": "function"
    },
    {
      "inputs": [
        {
          "internalType": "uint256",
          "name": "candidate",
          "type": "uint256"
        }
      ],
      "name": "vote",
      "outputs": [],
      "stateMutability": "nonpayable",
      "type": "function"
    },
    {
      "inputs": [
        {
          "internalType": "address",
          "name": "",
          "type": "address"
        }
      ],
      "name": "voters",
      "outputs": [
        {
          "internalType": "bool",
          "name": "rightToVote",
          "type": "bool"
        },
        {
          "internalType": "bool",
          "name": "voted",
          "type": "bool"
        },
        {
          "internalType": "uint256",
          "name": "vote",
          "type": "uint256"
        }
      ],
      "stateMutability": "view",
      "type": "function"
    }
  ],
  "bytecode": "0x608060405234801561001057600080fd5b50336000806101000a81548173ffffffffffffffffffffffffffffffffffffffff021916908373ffffffffffffffffffffffffffffffffffffffff16021790555060018060008060009054906101000a900473ffffffffffffffffffffffffffffffffffffffff1673ffffffffffffffffffffffffffffffffffffffff1673ffffffffffffffffffffffffffffffffffffffff16815260200190815260200160002060000160006101000a81548160ff0219169083151502179055506000600360006101000a81548160ff02191690836003811115610118577f4e487b7100000000000000000000000000000000000000000000000000000000600052602160045260246000fd5b0217905550611ed48061012c6000396000f3fe608060405234801561001057600080fd5b50600436106100cf5760003560e01c80639eb88db61161008c578063c19d93fb11610066578063c19d93fb146101ef578063c3ce2a921461020d578063c8e999b814610217578063ee74c67814610221576100cf565b80639eb88db614610197578063a3ec138d146101b3578063a7bfab16146101e5576100cf565b80630121b93f146100d457806306a49fce146100f05780633477ee2e1461010e578063378a21781461013f5780637d80c38e1461015d5780639e7b8d611461017b575b600080fd5b6100ee60048036038101906100e9919061153f565b61022b565b005b6100f861047b565b604051610105919061181e565b60405180910390f35b6101286004803603810190610123919061153f565b610576565b6040516101369291906118b4565b60405180910390f35b610147610632565b6040516101549190611892565b60405180910390f35b610165610924565b6040516101729190611803565b60405180910390f35b610195600480360381019061019091906114d5565b61094d565b005b6101b160048036038101906101ac91906114fe565b610b90565b005b6101cd60048036038101906101c891906114d5565b610cbf565b6040516101dc93929190611840565b60405180910390f35b6101ed610d03565b005b6101f7610ea5565b6040516102049190611877565b60405180910390f35b610215610eb8565b005b61021f61105a565b005b6102296111fd565b005b60026003811115610265577f4e487b7100000000000000000000000000000000000000000000000000000000600052602160045260246000fd5b600360009054906101000a900460ff1660038111156102ad577f4e487b7100000000000000000000000000000000000000000000000000000000600052602160045260246000fd5b146102ed576040517f08c379a00000000000000000000000000000000000000000000000000000000081526004016102e490611984565b60405180910390fd5b6000600160003373ffffffffffffffffffffffffffffffffffffffff1673ffffffffffffffffffffffffffffffffffffffff16815260200190815260200160002090508060000160019054906101000a900460ff1615610382576040517f08c379a000000000000000000000000000000000000000000000000000000000815260040161037990611944565b60405180910390fd5b8060000160009054906101000a900460ff166103d3576040517f08c379a00000000000000000000000000000000000000000000000000000000081526004016103ca90611904565b60405180910390fd5b60018160000160016101000a81548160ff02191690831515021790555081816001018190555060028281548110610433577f4e487b7100000000000000000000000000000000000000000000000000000000600052603260045260246000fd5b9060005260206000209060020201600101600081548092919061045590611bb2565b919050555060008160000160006101000a81548160ff0219169083151502179055505050565b60606002805480602002602001604051908101604052809291908181526020016000905b8282101561056d57838290600052602060002090600202016040518060400160405290816000820180546104d290611b4f565b80601f01602080910402602001604051908101604052809291908181526020018280546104fe90611b4f565b801561054b5780601f106105205761010080835404028352916020019161054b565b820191906000526020600020905b81548152906001019060200180831161052e57829003601f168201915b505050505081526020016001820154815250508152602001906001019061049f565b50505050905090565b6002818154811061058657600080fd5b90600052602060002090600202016000915090508060000180546105a990611b4f565b80601f01602080910402602001604051908101604052809291908181526020018280546105d590611b4f565b80156106225780601f106105f757610100808354040283529160200191610622565b820191906000526020600020905b81548152906001019060200180831161060557829003601f168201915b5050505050908060010154905082565b606060038081111561066d577f4e487b7100000000000000000000000000000000000000000000000000000000600052602160045260246000fd5b600360009054906101000a900460ff1660038111156106b5577f4e487b7100000000000000000000000000000000000000000000000000000000600052602160045260246000fd5b146106f5576040517f08c379a00000000000000000000000000000000000000000000000000000000081526004016106ec90611924565b60405180910390fd5b60008054906101000a900473ffffffffffffffffffffffffffffffffffffffff1673ffffffffffffffffffffffffffffffffffffffff163373ffffffffffffffffffffffffffffffffffffffff1614610783576040517f08c379a000000000000000000000000000000000000000000000000000000000815260040161077a90611964565b60405180910390fd5b6000805b60028054905081101561091f5781600282815481106107cf577f4e487b7100000000000000000000000000000000000000000000000000000000600052603260045260246000fd5b906000526020600020906002020160010154111561090c5760028181548110610821577f4e487b7100000000000000000000000000000000000000000000000000000000600052603260045260246000fd5b90600052602060002090600202016001015491506002818154811061086f577f4e487b7100000000000000000000000000000000000000000000000000000000600052603260045260246000fd5b9060005260206000209060020201600001805461088b90611b4f565b80601f01602080910402602001604051908101604052809291908181526020018280546108b790611b4f565b80156109045780601f106108d957610100808354040283529160200191610904565b820191906000526020600020905b8154815290600101906020018083116108e757829003601f168201915b505050505092505b808061091790611bb2565b915050610787565b505090565b60008060009054906101000a900473ffffffffffffffffffffffffffffffffffffffff16905090565b60016003811115610987577f4e487b7100000000000000000000000000000000000000000000000000000000600052602160045260246000fd5b600360009054906101000a900460ff1660038111156109cf577f4e487b7100000000000000000000000000000000000000000000000000000000600052602160045260246000fd5b14610a0f576040517f08c379a0000000000000000000000000000000000000000000000000000000008152600401610a06906119a4565b60405180910390fd5b60008054906101000a900473ffffffffffffffffffffffffffffffffffffffff1673ffffffffffffffffffffffffffffffffffffffff163373ffffffffffffffffffffffffffffffffffffffff1614610a9d576040517f08c379a0000000000000000000000000000000000000000000000000000000008152600401610a9490611964565b60405180910390fd5b60001515600160008373ffffffffffffffffffffffffffffffffffffffff1673ffffffffffffffffffffffffffffffffffffffff16815260200190815260200160002060000160009054906101000a900460ff16151514610b33576040517f08c379a0000000000000000000000000000000000000000000000000000000008152600401610b2a906119c4565b60405180910390fd5b60018060008373ffffffffffffffffffffffffffffffffffffffff1673ffffffffffffffffffffffffffffffffffffffff16815260200190815260200160002060000160006101000a81548160ff02191690831515021790555050565b60006003811115610bca577f4e487b7100000000000000000000000000000000000000000000000000000000600052602160045260246000fd5b600360009054906101000a900460ff166003811115610c12577f4e487b7100000000000000000000000000000000000000000000000000000000600052602160045260246000fd5b14610c52576040517f08c379a0000000000000000000000000000000000000000000000000000000008152600401610c49906118e4565b60405180910390fd5b60026040518060400160405280838152602001600081525090806001815401808255809150506001900390600052602060002090600202016000909190919091506000820151816000019080519060200190610caf9291906113a0565b5060208201518160010155505050565b60016020528060005260406000206000915090508060000160009054906101000a900460ff16908060000160019054906101000a900460ff16908060010154905083565b60026003811115610d3d577f4e487b7100000000000000000000000000000000000000000000000000000000600052602160045260246000fd5b600360009054906101000a900460ff166003811115610d85577f4e487b7100000000000000000000000000000000000000000000000000000000600052602160045260246000fd5b14610dc5576040517f08c379a0000000000000000000000000000000000000000000000000000000008152600401610dbc90611984565b60405180910390fd5b60008054906101000a900473ffffffffffffffffffffffffffffffffffffffff1673ffffffffffffffffffffffffffffffffffffffff163373ffffffffffffffffffffffffffffffffffffffff1614610e53576040517f08c379a0000000000000000000000000000000000000000000000000000000008152600401610e4a90611964565b60405180910390fd5b60038060006101000a81548160ff02191690836003811115610e9e577f4e487b7100000000000000000000000000000000000000000000000000000000600052602160045260246000fd5b0217905550565b600360009054906101000a900460ff1681565b600380811115610ef1577f4e487b7100000000000000000000000000000000000000000000000000000000600052602160045260246000fd5b600360009054906101000a900460ff166003811115610f39577f4e487b7100000000000000000000000000000000000000000000000000000000600052602160045260246000fd5b14610f79576040517f08c379a0000000000000000000000000000000000000000000000000000000008152600401610f7090611924565b60405180910390fd5b60008054906101000a900473ffffffffffffffffffffffffffffffffffffffff1673ffffffffffffffffffffffffffffffffffffffff163373ffffffffffffffffffffffffffffffffffffffff1614611007576040517f08c379a0000000000000000000000000000000000000000000000000000000008152600401610ffe90611964565b60405180910390fd5b6000600360006101000a81548160ff02191690836003811115611053577f4e487b7100000000000000000000000000000000000000000000000000000000600052602160045260246000fd5b0217905550565b60006003811115611094577f4e487b7100000000000000000000000000000000000000000000000000000000600052602160045260246000fd5b600360009054906101000a900460ff1660038111156110dc577f4e487b7100000000000000000000000000000000000000000000000000000000600052602160045260246000fd5b1461111c576040517f08c379a0000000000000000000000000000000000000000000000000000000008152600401611113906118e4565b60405180910390fd5b60008054906101000a900473ffffffffffffffffffffffffffffffffffffffff1673ffffffffffffffffffffffffffffffffffffffff163373ffffffffffffffffffffffffffffffffffffffff16146111aa576040517f08c379a00000000000000000000000000000000000000000000000000000000081526004016111a190611964565b60405180910390fd5b6001600360006101000a81548160ff021916908360038111156111f6577f4e487b7100000000000000000000000000000000000000000000000000000000600052602160045260246000fd5b0217905550565b60016003811115611237577f4e487b7100000000000000000000000000000000000000000000000000000000600052602160045260246000fd5b600360009054906101000a900460ff16600381111561127f577f4e487b7100000000000000000000000000000000000000000000000000000000600052602160045260246000fd5b146112bf576040517f08c379a00000000000000000000000000000000000000000000000000000000081526004016112b6906119a4565b60405180910390fd5b60008054906101000a900473ffffffffffffffffffffffffffffffffffffffff1673ffffffffffffffffffffffffffffffffffffffff163373ffffffffffffffffffffffffffffffffffffffff161461134d576040517f08c379a000000000000000000000000000000000000000000000000000000000815260040161134490611964565b60405180910390fd5b6002600360006101000a81548160ff02191690836003811115611399577f4e487b7100000000000000000000000000000000000000000000000000000000600052602160045260246000fd5b0217905550565b8280546113ac90611b4f565b90600052602060002090601f0160209004810192826113ce5760008555611415565b82601f106113e757805160ff1916838001178555611415565b82800160010185558215611415579182015b828111156114145782518255916020019190600101906113f9565b5b5090506114229190611426565b5090565b5b8082111561143f576000816000905550600101611427565b5090565b600061145661145184611a09565b6119e4565b90508281526020810184848401111561146e57600080fd5b611479848285611b0d565b509392505050565b60008135905061149081611e70565b92915050565b600082601f8301126114a757600080fd5b81356114b7848260208601611443565b91505092915050565b6000813590506114cf81611e87565b92915050565b6000602082840312156114e757600080fd5b60006114f584828501611481565b91505092915050565b60006020828403121561151057600080fd5b600082013567ffffffffffffffff81111561152a57600080fd5b61153684828501611496565b91505092915050565b60006020828403121561155157600080fd5b600061155f848285016114c0565b91505092915050565b600061157483836117a8565b905092915050565b61158581611aa0565b82525050565b600061159682611a4a565b6115a08185611a6d565b9350836020820285016115b285611a3a565b8060005b858110156115ee57848403895281516115cf8582611568565b94506115da83611a60565b925060208a019950506001810190506115b6565b50829750879550505050505092915050565b61160981611ab2565b82525050565b61161881611afb565b82525050565b600061162982611a55565b6116338185611a7e565b9350611643818560208601611b1c565b61164c81611cb7565b840191505092915050565b600061166282611a55565b61166c8185611a8f565b935061167c818560208601611b1c565b61168581611cb7565b840191505092915050565b600061169d602383611a8f565b91506116a882611cc8565b604082019050919050565b60006116c0601483611a8f565b91506116cb82611d17565b602082019050919050565b60006116e3601983611a8f565b91506116ee82611d40565b602082019050919050565b6000611706600e83611a8f565b915061171182611d69565b602082019050919050565b6000611729602d83611a8f565b915061173482611d92565b604082019050919050565b600061174c601c83611a8f565b915061175782611de1565b602082019050919050565b600061176f602083611a8f565b915061177a82611e0a565b602082019050919050565b6000611792601d83611a8f565b915061179d82611e33565b602082019050919050565b600060408301600083015184820360008601526117c5828261161e565b91505060208301516117da60208601826117e5565b508091505092915050565b6117ee81611af1565b82525050565b6117fd81611af1565b82525050565b6000602082019050611818600083018461157c565b92915050565b60006020820190508181036000830152611838818461158b565b905092915050565b60006060820190506118556000830186611600565b6118626020830185611600565b61186f60408301846117f4565b949350505050565b600060208201905061188c600083018461160f565b92915050565b600060208201905081810360008301526118ac8184611657565b905092915050565b600060408201905081810360008301526118ce8185611657565b90506118dd60208301846117f4565b9392505050565b600060208201905081810360008301526118fd81611690565b9050919050565b6000602082019050818103600083015261191d816116b3565b9050919050565b6000602082019050818103600083015261193d816116d6565b9050919050565b6000602082019050818103600083015261195d816116f9565b9050919050565b6000602082019050818103600083015261197d8161171c565b9050919050565b6000602082019050818103600083015261199d8161173f565b9050919050565b600060208201905081810360008301526119bd81611762565b9050919050565b600060208201905081810360008301526119dd81611785565b9050919050565b60006119ee6119ff565b90506119fa8282611b81565b919050565b6000604051905090565b600067ffffffffffffffff821115611a2457611a23611c88565b5b611a2d82611cb7565b9050602081019050919050565b6000819050602082019050919050565b600081519050919050565b600081519050919050565b6000602082019050919050565b600082825260208201905092915050565b600082825260208201905092915050565b600082825260208201905092915050565b6000611aab82611ad1565b9050919050565b60008115159050919050565b6000819050611acc82611e5c565b919050565b600073ffffffffffffffffffffffffffffffffffffffff82169050919050565b6000819050919050565b6000611b0682611abe565b9050919050565b82818337600083830152505050565b60005b83811015611b3a578082015181840152602081019050611b1f565b83811115611b49576000848401525b50505050565b60006002820490506001821680611b6757607f821691505b60208210811415611b7b57611b7a611c59565b5b50919050565b611b8a82611cb7565b810181811067ffffffffffffffff82111715611ba957611ba8611c88565b5b80604052505050565b6000611bbd82611af1565b91507fffffffffffffffffffffffffffffffffffffffffffffffffffffffffffffffff821415611bf057611bef611bfb565b5b600182019050919050565b7f4e487b7100000000000000000000000000000000000000000000000000000000600052601160045260246000fd5b7f4e487b7100000000000000000000000000000000000000000000000000000000600052602160045260246000fd5b7f4e487b7100000000000000000000000000000000000000000000000000000000600052602260045260246000fd5b7f4e487b7100000000000000000000000000000000000000000000000000000000600052604160045260246000fd5b6000601f19601f8301169050919050565b7f6974206d75737420626520696e205265676973746572696e672043616e64696460008201527f6174650000000000000000000000000000000000000000000000000000000000602082015250565b7f486173206e6f20726967687420746f20766f7465000000000000000000000000600082015250565b7f6974206d75737420626520696e2054616c6c7920566f74657300000000000000600082015250565b7f416c726561647920766f7465642e000000000000000000000000000000000000600082015250565b7f4f6e6c79206368616972706572736f6e2063616e20737461727420616e64206560008201527f6e642074686520766f74696e6700000000000000000000000000000000000000602082015250565b7f6974206d75737420626520696e20566f74696e672053657373696f6e00000000600082015250565b7f6974206d75737420626520696e205265676973746572696e6720566f74657273600082015250565b7f48617320616c72656164792074686520726967687420746f20766f7465000000600082015250565b60048110611e6d57611e6c611c2a565b5b50565b611e7981611aa0565b8114611e8457600080fd5b50565b611e9081611af1565b8114611e9b57600080fd5b5056fea2646970667358221220d9da91b08781ec7a9f5c9354afb83a5ae5cff0347f32f026db1adc4687f1f75764736f6c63430008040033",
  "linkReferences": {},
  "deployedLinkReferences": {}
}