{
  "_format": "hh-sol-artifact-1",
  "contractName": "Voting",
  "sourceName": "contracts/Voting.sol",
  "abi": [
    {
      "inputs": [
        {
          "internalType": "address",
          "name": "daoContract",
          "type": "address"
        }
      ],
      "stateMutability": "nonpayable",
      "type": "constructor"
    },
    {
      "inputs": [
        {
          "internalType": "uint256",
          "name": "",
          "type": "uint256"
        }
      ],
      "name": "candidates",
      "outputs": [
        {
          "internalType": "string",
          "name": "name",
          "type": "string"
        },
        {
          "internalType": "uint256",
          "name": "voteCount",
          "type": "uint256"
        }
      ],
      "stateMutability": "view",
      "type": "function"
    },
    {
      "inputs": [],
      "name": "endVotingSession",
      "outputs": [],
      "stateMutability": "nonpayable",
      "type": "function"
    },
    {
      "inputs": [],
      "name": "getCandidatesNames",
      "outputs": [
        {
          "internalType": "string[]",
          "name": "",
          "type": "string[]"
        }
      ],
      "stateMutability": "view",
      "type": "function"
    },
    {
      "inputs": [],
      "name": "getCurrentState",
      "outputs": [
        {
          "internalType": "string",
          "name": "",
          "type": "string"
        }
      ],
      "stateMutability": "view",
      "type": "function"
    },
    {
      "inputs": [
        {
          "internalType": "address",
          "name": "voter",
          "type": "address"
        }
      ],
      "name": "giveRightToVote",
      "outputs": [],
      "stateMutability": "nonpayable",
      "type": "function"
    },
    {
      "inputs": [
        {
          "internalType": "string",
          "name": "candidateName",
          "type": "string"
        }
      ],
      "name": "registerCandidate",
      "outputs": [],
      "stateMutability": "nonpayable",
      "type": "function"
    },
    {
      "inputs": [],
      "name": "startRegisteringCandidates",
      "outputs": [],
      "stateMutability": "nonpayable",
      "type": "function"
    },
    {
      "inputs": [],
      "name": "startRegisteringVoters",
      "outputs": [],
      "stateMutability": "nonpayable",
      "type": "function"
    },
    {
      "inputs": [],
      "name": "startVotingSession",
      "outputs": [],
      "stateMutability": "nonpayable",
      "type": "function"
    },
    {
      "inputs": [],
      "name": "state",
      "outputs": [
        {
          "internalType": "enum Voting.State",
          "name": "",
          "type": "uint8"
        }
      ],
      "stateMutability": "view",
      "type": "function"
    },
    {
      "inputs": [],
      "name": "tallyVotes",
      "outputs": [
        {
          "internalType": "string",
          "name": "winnerName",
          "type": "string"
        }
      ],
      "stateMutability": "view",
      "type": "function"
    },
    {
      "inputs": [
        {
          "internalType": "uint256",
          "name": "candidate",
          "type": "uint256"
        }
      ],
      "name": "vote",
      "outputs": [],
      "stateMutability": "nonpayable",
      "type": "function"
    },
    {
      "inputs": [
        {
          "internalType": "address",
          "name": "",
          "type": "address"
        }
      ],
      "name": "voters",
      "outputs": [
        {
          "internalType": "bool",
          "name": "rightToVote",
          "type": "bool"
        },
        {
          "internalType": "bool",
          "name": "voted",
          "type": "bool"
        },
        {
          "internalType": "uint256",
          "name": "vote",
          "type": "uint256"
        }
      ],
      "stateMutability": "view",
      "type": "function"
    }
  ],
  "bytecode": "0x60806040523480156200001157600080fd5b506040516200246738038062002467833981810160405281019062000037919062000162565b806000806101000a81548173ffffffffffffffffffffffffffffffffffffffff021916908373ffffffffffffffffffffffffffffffffffffffff16021790555060018060008060009054906101000a900473ffffffffffffffffffffffffffffffffffffffff1673ffffffffffffffffffffffffffffffffffffffff1673ffffffffffffffffffffffffffffffffffffffff16815260200190815260200160002060000160006101000a81548160ff0219169083151502179055506000600460006101000a81548160ff021916908360048111156200013f577f4e487b7100000000000000000000000000000000000000000000000000000000600052602160045260246000fd5b021790555050620001dc565b6000815190506200015c81620001c2565b92915050565b6000602082840312156200017557600080fd5b600062000185848285016200014b565b91505092915050565b60006200019b82620001a2565b9050919050565b600073ffffffffffffffffffffffffffffffffffffffff82169050919050565b620001cd816200018e565b8114620001d957600080fd5b50565b61227b80620001ec6000396000f3fe608060405234801561001057600080fd5b50600436106100cf5760003560e01c80639eb88db61161008c578063c19d93fb11610066578063c19d93fb146101ef578063c3ce2a921461020d578063c8e999b814610217578063ee74c67814610221576100cf565b80639eb88db614610197578063a3ec138d146101b3578063a7bfab16146101e5576100cf565b80630121b93f146100d4578063185fd225146100f05780633477ee2e1461010e578063378a21781461013f578063378aa7011461015d5780639e7b8d611461017b575b600080fd5b6100ee60048036038101906100e991906118f0565b61022b565b005b6100f861047b565b6040516101059190611b7c565b60405180910390f35b610128600480360381019061012391906118f0565b610554565b604051610136929190611c12565b60405180910390f35b610147610610565b6040516101549190611bf0565b60405180910390f35b610165610902565b6040516101729190611bf0565b60405180910390f35b61019560048036038101906101909190611886565b610cc1565b005b6101b160048036038101906101ac91906118af565b610f04565b005b6101cd60048036038101906101c89190611886565b61106f565b6040516101dc93929190611b9e565b60405180910390f35b6101ed6110b3565b005b6101f7611255565b6040516102049190611bd5565b60405180910390f35b610215611268565b005b61021f61140b565b005b6102296115ae565b005b60036004811115610265577f4e487b7100000000000000000000000000000000000000000000000000000000600052602160045260246000fd5b600460009054906101000a900460ff1660048111156102ad577f4e487b7100000000000000000000000000000000000000000000000000000000600052602160045260246000fd5b146102ed576040517f08c379a00000000000000000000000000000000000000000000000000000000081526004016102e490611cc2565b60405180910390fd5b6000600160003373ffffffffffffffffffffffffffffffffffffffff1673ffffffffffffffffffffffffffffffffffffffff16815260200190815260200160002090508060000160019054906101000a900460ff1615610382576040517f08c379a000000000000000000000000000000000000000000000000000000000815260040161037990611c82565b60405180910390fd5b8060000160009054906101000a900460ff166103d3576040517f08c379a00000000000000000000000000000000000000000000000000000000081526004016103ca90611c62565b60405180910390fd5b60018160000160016101000a81548160ff02191690831515021790555081816001018190555060028281548110610433577f4e487b7100000000000000000000000000000000000000000000000000000000600052603260045260246000fd5b9060005260206000209060020201600101600081548092919061045590611f30565b919050555060008160000160006101000a81548160ff0219169083151502179055505050565b60606003805480602002602001604051908101604052809291908181526020016000905b8282101561054b5783829060005260206000200180546104be90611ecd565b80601f01602080910402602001604051908101604052809291908181526020018280546104ea90611ecd565b80156105375780601f1061050c57610100808354040283529160200191610537565b820191906000526020600020905b81548152906001019060200180831161051a57829003601f168201915b50505050508152602001906001019061049f565b50505050905090565b6002818154811061056457600080fd5b906000526020600020906002020160009150905080600001805461058790611ecd565b80601f01602080910402602001604051908101604052809291908181526020018280546105b390611ecd565b80156106005780601f106105d557610100808354040283529160200191610600565b820191906000526020600020905b8154815290600101906020018083116105e357829003601f168201915b5050505050908060010154905082565b606060008054906101000a900473ffffffffffffffffffffffffffffffffffffffff1673ffffffffffffffffffffffffffffffffffffffff163373ffffffffffffffffffffffffffffffffffffffff16146106a0576040517f08c379a000000000000000000000000000000000000000000000000000000000815260040161069790611ca2565b60405180910390fd5b6004808111156106d9577f4e487b7100000000000000000000000000000000000000000000000000000000600052602160045260246000fd5b600460009054906101000a900460ff166004811115610721577f4e487b7100000000000000000000000000000000000000000000000000000000600052602160045260246000fd5b14610761576040517f08c379a000000000000000000000000000000000000000000000000000000000815260040161075890611d22565b60405180910390fd5b6000805b6002805490508110156108fd5781600282815481106107ad577f4e487b7100000000000000000000000000000000000000000000000000000000600052603260045260246000fd5b90600052602060002090600202016001015411156108ea57600281815481106107ff577f4e487b7100000000000000000000000000000000000000000000000000000000600052603260045260246000fd5b90600052602060002090600202016001015491506002818154811061084d577f4e487b7100000000000000000000000000000000000000000000000000000000600052603260045260246000fd5b9060005260206000209060020201600001805461086990611ecd565b80601f016020809104026020016040519081016040528092919081815260200182805461089590611ecd565b80156108e25780601f106108b7576101008083540402835291602001916108e2565b820191906000526020600020905b8154815290600101906020018083116108c557829003601f168201915b505050505092505b80806108f590611f30565b915050610765565b505090565b60606000600460009054906101000a900460ff16905060006004811115610952577f4e487b7100000000000000000000000000000000000000000000000000000000600052602160045260246000fd5b81600481111561098b577f4e487b7100000000000000000000000000000000000000000000000000000000600052602160045260246000fd5b14156109cf576040518060400160405280600d81526020017f496e697469616c20537461746500000000000000000000000000000000000000815250915050610cbe565b60016004811115610a09577f4e487b7100000000000000000000000000000000000000000000000000000000600052602160045260246000fd5b816004811115610a42577f4e487b7100000000000000000000000000000000000000000000000000000000600052602160045260246000fd5b1415610a86576040518060400160405280601681526020017f5265676973746572696e672043616e6469646174657300000000000000000000815250915050610cbe565b60026004811115610ac0577f4e487b7100000000000000000000000000000000000000000000000000000000600052602160045260246000fd5b816004811115610af9577f4e487b7100000000000000000000000000000000000000000000000000000000600052602160045260246000fd5b1415610b3d576040518060400160405280601281526020017f5265676973746572696e6720566f746572730000000000000000000000000000815250915050610cbe565b60036004811115610b77577f4e487b7100000000000000000000000000000000000000000000000000000000600052602160045260246000fd5b816004811115610bb0577f4e487b7100000000000000000000000000000000000000000000000000000000600052602160045260246000fd5b1415610bf4576040518060400160405280600e81526020017f566f74696e672053657373696f6e000000000000000000000000000000000000815250915050610cbe565b600480811115610c2d577f4e487b7100000000000000000000000000000000000000000000000000000000600052602160045260246000fd5b816004811115610c66577f4e487b7100000000000000000000000000000000000000000000000000000000600052602160045260246000fd5b1415610caa576040518060400160405280600681526020017f436c6f7365640000000000000000000000000000000000000000000000000000815250915050610cbe565b604051806020016040528060008152509150505b90565b60026004811115610cfb577f4e487b7100000000000000000000000000000000000000000000000000000000600052602160045260246000fd5b600460009054906101000a900460ff166004811115610d43577f4e487b7100000000000000000000000000000000000000000000000000000000600052602160045260246000fd5b14610d83576040517f08c379a0000000000000000000000000000000000000000000000000000000008152600401610d7a90611d02565b60405180910390fd5b60008054906101000a900473ffffffffffffffffffffffffffffffffffffffff1673ffffffffffffffffffffffffffffffffffffffff163373ffffffffffffffffffffffffffffffffffffffff1614610e11576040517f08c379a0000000000000000000000000000000000000000000000000000000008152600401610e0890611ca2565b60405180910390fd5b60001515600160008373ffffffffffffffffffffffffffffffffffffffff1673ffffffffffffffffffffffffffffffffffffffff16815260200190815260200160002060000160009054906101000a900460ff16151514610ea7576040517f08c379a0000000000000000000000000000000000000000000000000000000008152600401610e9e90611d42565b60405180910390fd5b60018060008373ffffffffffffffffffffffffffffffffffffffff1673ffffffffffffffffffffffffffffffffffffffff16815260200190815260200160002060000160006101000a81548160ff02191690831515021790555050565b60016004811115610f3e577f4e487b7100000000000000000000000000000000000000000000000000000000600052602160045260246000fd5b600460009054906101000a900460ff166004811115610f86577f4e487b7100000000000000000000000000000000000000000000000000000000600052602160045260246000fd5b14610fc6576040517f08c379a0000000000000000000000000000000000000000000000000000000008152600401610fbd90611c42565b60405180910390fd5b60026040518060400160405280838152602001600081525090806001815401808255809150506001900390600052602060002090600202016000909190919091506000820151816000019080519060200190611023929190611751565b5060208201518160010155505060038190806001815401808255809150506001900390600052602060002001600090919091909150908051906020019061106b929190611751565b5050565b60016020528060005260406000206000915090508060000160009054906101000a900460ff16908060000160019054906101000a900460ff16908060010154905083565b60008054906101000a900473ffffffffffffffffffffffffffffffffffffffff1673ffffffffffffffffffffffffffffffffffffffff163373ffffffffffffffffffffffffffffffffffffffff1614611141576040517f08c379a000000000000000000000000000000000000000000000000000000000815260040161113890611ca2565b60405180910390fd5b6003600481111561117b577f4e487b7100000000000000000000000000000000000000000000000000000000600052602160045260246000fd5b600460009054906101000a900460ff1660048111156111c3577f4e487b7100000000000000000000000000000000000000000000000000000000600052602160045260246000fd5b14611203576040517f08c379a00000000000000000000000000000000000000000000000000000000081526004016111fa90611cc2565b60405180910390fd5b60048060006101000a81548160ff0219169083600481111561124e577f4e487b7100000000000000000000000000000000000000000000000000000000600052602160045260246000fd5b0217905550565b600460009054906101000a900460ff1681565b60008054906101000a900473ffffffffffffffffffffffffffffffffffffffff1673ffffffffffffffffffffffffffffffffffffffff163373ffffffffffffffffffffffffffffffffffffffff16146112f6576040517f08c379a00000000000000000000000000000000000000000000000000000000081526004016112ed90611ca2565b60405180910390fd5b60006004811115611330577f4e487b7100000000000000000000000000000000000000000000000000000000600052602160045260246000fd5b600460009054906101000a900460ff166004811115611378577f4e487b7100000000000000000000000000000000000000000000000000000000600052602160045260246000fd5b146113b8576040517f08c379a00000000000000000000000000000000000000000000000000000000081526004016113af90611ce2565b60405180910390fd5b6001600460006101000a81548160ff02191690836004811115611404577f4e487b7100000000000000000000000000000000000000000000000000000000600052602160045260246000fd5b0217905550565b60008054906101000a900473ffffffffffffffffffffffffffffffffffffffff1673ffffffffffffffffffffffffffffffffffffffff163373ffffffffffffffffffffffffffffffffffffffff1614611499576040517f08c379a000000000000000000000000000000000000000000000000000000000815260040161149090611ca2565b60405180910390fd5b600160048111156114d3577f4e487b7100000000000000000000000000000000000000000000000000000000600052602160045260246000fd5b600460009054906101000a900460ff16600481111561151b577f4e487b7100000000000000000000000000000000000000000000000000000000600052602160045260246000fd5b1461155b576040517f08c379a000000000000000000000000000000000000000000000000000000000815260040161155290611c42565b60405180910390fd5b6002600460006101000a81548160ff021916908360048111156115a7577f4e487b7100000000000000000000000000000000000000000000000000000000600052602160045260246000fd5b0217905550565b60008054906101000a900473ffffffffffffffffffffffffffffffffffffffff1673ffffffffffffffffffffffffffffffffffffffff163373ffffffffffffffffffffffffffffffffffffffff161461163c576040517f08c379a000000000000000000000000000000000000000000000000000000000815260040161163390611ca2565b60405180910390fd5b60026004811115611676577f4e487b7100000000000000000000000000000000000000000000000000000000600052602160045260246000fd5b600460009054906101000a900460ff1660048111156116be577f4e487b7100000000000000000000000000000000000000000000000000000000600052602160045260246000fd5b146116fe576040517f08c379a00000000000000000000000000000000000000000000000000000000081526004016116f590611d02565b60405180910390fd5b6003600460006101000a81548160ff0219169083600481111561174a577f4e487b7100000000000000000000000000000000000000000000000000000000600052602160045260246000fd5b0217905550565b82805461175d90611ecd565b90600052602060002090601f01602090048101928261177f57600085556117c6565b82601f1061179857805160ff19168380011785556117c6565b828001600101855582156117c6579182015b828111156117c55782518255916020019190600101906117aa565b5b5090506117d391906117d7565b5090565b5b808211156117f05760008160009055506001016117d8565b5090565b600061180761180284611d87565b611d62565b90508281526020810184848401111561181f57600080fd5b61182a848285611e8b565b509392505050565b60008135905061184181612217565b92915050565b600082601f83011261185857600080fd5b81356118688482602086016117f4565b91505092915050565b6000813590506118808161222e565b92915050565b60006020828403121561189857600080fd5b60006118a684828501611832565b91505092915050565b6000602082840312156118c157600080fd5b600082013567ffffffffffffffff8111156118db57600080fd5b6118e784828501611847565b91505092915050565b60006020828403121561190257600080fd5b600061191084828501611871565b91505092915050565b600061192583836119c0565b905092915050565b600061193882611dc8565b6119428185611deb565b93508360208202850161195485611db8565b8060005b8581101561199057848403895281516119718582611919565b945061197c83611dde565b925060208a01995050600181019050611958565b50829750879550505050505092915050565b6119ab81611e30565b82525050565b6119ba81611e79565b82525050565b60006119cb82611dd3565b6119d58185611dfc565b93506119e5818560208601611e9a565b6119ee81612035565b840191505092915050565b6000611a0482611dd3565b611a0e8185611e0d565b9350611a1e818560208601611e9a565b611a2781612035565b840191505092915050565b6000611a3f602383611e0d565b9150611a4a82612046565b604082019050919050565b6000611a62601483611e0d565b9150611a6d82612095565b602082019050919050565b6000611a85600e83611e0d565b9150611a90826120be565b602082019050919050565b6000611aa8602d83611e0d565b9150611ab3826120e7565b604082019050919050565b6000611acb601c83611e0d565b9150611ad682612136565b602082019050919050565b6000611aee601b83611e0d565b9150611af98261215f565b602082019050919050565b6000611b11602083611e0d565b9150611b1c82612188565b602082019050919050565b6000611b34601a83611e0d565b9150611b3f826121b1565b602082019050919050565b6000611b57601d83611e0d565b9150611b62826121da565b602082019050919050565b611b7681611e6f565b82525050565b60006020820190508181036000830152611b96818461192d565b905092915050565b6000606082019050611bb360008301866119a2565b611bc060208301856119a2565b611bcd6040830184611b6d565b949350505050565b6000602082019050611bea60008301846119b1565b92915050565b60006020820190508181036000830152611c0a81846119f9565b905092915050565b60006040820190508181036000830152611c2c81856119f9565b9050611c3b6020830184611b6d565b9392505050565b60006020820190508181036000830152611c5b81611a32565b9050919050565b60006020820190508181036000830152611c7b81611a55565b9050919050565b60006020820190508181036000830152611c9b81611a78565b9050919050565b60006020820190508181036000830152611cbb81611a9b565b9050919050565b60006020820190508181036000830152611cdb81611abe565b9050919050565b60006020820190508181036000830152611cfb81611ae1565b9050919050565b60006020820190508181036000830152611d1b81611b04565b9050919050565b60006020820190508181036000830152611d3b81611b27565b9050919050565b60006020820190508181036000830152611d5b81611b4a565b9050919050565b6000611d6c611d7d565b9050611d788282611eff565b919050565b6000604051905090565b600067ffffffffffffffff821115611da257611da1612006565b5b611dab82612035565b9050602081019050919050565b6000819050602082019050919050565b600081519050919050565b600081519050919050565b6000602082019050919050565b600082825260208201905092915050565b600082825260208201905092915050565b600082825260208201905092915050565b6000611e2982611e4f565b9050919050565b60008115159050919050565b6000819050611e4a82612203565b919050565b600073ffffffffffffffffffffffffffffffffffffffff82169050919050565b6000819050919050565b6000611e8482611e3c565b9050919050565b82818337600083830152505050565b60005b83811015611eb8578082015181840152602081019050611e9d565b83811115611ec7576000848401525b50505050565b60006002820490506001821680611ee557607f821691505b60208210811415611ef957611ef8611fd7565b5b50919050565b611f0882612035565b810181811067ffffffffffffffff82111715611f2757611f26612006565b5b80604052505050565b6000611f3b82611e6f565b91507fffffffffffffffffffffffffffffffffffffffffffffffffffffffffffffffff821415611f6e57611f6d611f79565b5b600182019050919050565b7f4e487b7100000000000000000000000000000000000000000000000000000000600052601160045260246000fd5b7f4e487b7100000000000000000000000000000000000000000000000000000000600052602160045260246000fd5b7f4e487b7100000000000000000000000000000000000000000000000000000000600052602260045260246000fd5b7f4e487b7100000000000000000000000000000000000000000000000000000000600052604160045260246000fd5b6000601f19601f8301169050919050565b7f6974206d75737420626520696e205265676973746572696e672043616e64696460008201527f6174650000000000000000000000000000000000000000000000000000000000602082015250565b7f486173206e6f20726967687420746f20766f7465000000000000000000000000600082015250565b7f416c726561647920766f7465642e000000000000000000000000000000000000600082015250565b7f4f6e6c79206368616972706572736f6e2063616e20737461727420616e64206560008201527f6e642074686520766f74696e6700000000000000000000000000000000000000602082015250565b7f6974206d75737420626520696e20566f74696e672053657373696f6e00000000600082015250565b7f6974206d75737420626520696e20496e697469616c2053746174650000000000600082015250565b7f6974206d75737420626520696e205265676973746572696e6720566f74657273600082015250565b7f6974206d75737420626520696e20436c6f736564207374617465000000000000600082015250565b7f48617320616c72656164792074686520726967687420746f20766f7465000000600082015250565b6005811061221457612213611fa8565b5b50565b61222081611e1e565b811461222b57600080fd5b50565b61223781611e6f565b811461224257600080fd5b5056fea2646970667358221220ad704b041a47bacb9259122c65f8c5512c61e9c59aac9776f4dabd8017c64eaa64736f6c63430008040033",
  "linkReferences": {},
  "deployedLinkReferences": {}
}