{
  "_format": "hh-sol-artifact-1",
  "contractName": "Voting",
  "sourceName": "contracts/Voting.sol",
  "abi": [
    {
      "inputs": [
        {
          "internalType": "address",
          "name": "daoContract",
          "type": "address"
        }
      ],
      "stateMutability": "nonpayable",
      "type": "constructor"
    },
    {
      "inputs": [
        {
          "internalType": "uint256",
          "name": "",
          "type": "uint256"
        }
      ],
      "name": "candidates",
      "outputs": [
        {
          "internalType": "string",
          "name": "name",
          "type": "string"
        },
        {
          "internalType": "uint256",
          "name": "voteCount",
          "type": "uint256"
        }
      ],
      "stateMutability": "view",
      "type": "function"
    },
    {
      "inputs": [],
      "name": "endVotingSession",
      "outputs": [],
      "stateMutability": "nonpayable",
      "type": "function"
    },
    {
      "inputs": [],
      "name": "getCandidatesNames",
      "outputs": [
        {
          "internalType": "string[]",
          "name": "",
          "type": "string[]"
        }
      ],
      "stateMutability": "view",
      "type": "function"
    },
    {
      "inputs": [],
      "name": "getCurrentState",
      "outputs": [
        {
          "internalType": "string",
          "name": "",
          "type": "string"
        }
      ],
      "stateMutability": "view",
      "type": "function"
    },
    {
      "inputs": [
        {
          "internalType": "address",
          "name": "voter",
          "type": "address"
        }
      ],
      "name": "giveRightToVote",
      "outputs": [],
      "stateMutability": "nonpayable",
      "type": "function"
    },
    {
      "inputs": [
        {
          "internalType": "string",
          "name": "candidateName",
          "type": "string"
        }
      ],
      "name": "registerCandidate",
      "outputs": [],
      "stateMutability": "nonpayable",
      "type": "function"
    },
    {
      "inputs": [],
      "name": "startRegisteringCandidates",
      "outputs": [],
      "stateMutability": "nonpayable",
      "type": "function"
    },
    {
      "inputs": [],
      "name": "startRegisteringVoters",
      "outputs": [],
      "stateMutability": "nonpayable",
      "type": "function"
    },
    {
      "inputs": [],
      "name": "startVotingSession",
      "outputs": [],
      "stateMutability": "nonpayable",
      "type": "function"
    },
    {
      "inputs": [],
      "name": "state",
      "outputs": [
        {
          "internalType": "enum Voting.State",
          "name": "",
          "type": "uint8"
        }
      ],
      "stateMutability": "view",
      "type": "function"
    },
    {
      "inputs": [],
      "name": "tallyVotes",
      "outputs": [
        {
          "internalType": "string",
          "name": "winnerName",
          "type": "string"
        }
      ],
      "stateMutability": "view",
      "type": "function"
    },
    {
      "inputs": [
        {
          "internalType": "uint256",
          "name": "candidate",
          "type": "uint256"
        }
      ],
      "name": "vote",
      "outputs": [],
      "stateMutability": "nonpayable",
      "type": "function"
    },
    {
      "inputs": [
        {
          "internalType": "address",
          "name": "",
          "type": "address"
        }
      ],
      "name": "voters",
      "outputs": [
        {
          "internalType": "bool",
          "name": "rightToVote",
          "type": "bool"
        },
        {
          "internalType": "bool",
          "name": "voted",
          "type": "bool"
        }
      ],
      "stateMutability": "view",
      "type": "function"
    }
  ],
  "bytecode": "0x60806040523480156200001157600080fd5b506040516200244838038062002448833981810160405281019062000037919062000162565b806000806101000a81548173ffffffffffffffffffffffffffffffffffffffff021916908373ffffffffffffffffffffffffffffffffffffffff16021790555060018060008060009054906101000a900473ffffffffffffffffffffffffffffffffffffffff1673ffffffffffffffffffffffffffffffffffffffff1673ffffffffffffffffffffffffffffffffffffffff16815260200190815260200160002060000160006101000a81548160ff0219169083151502179055506000600460006101000a81548160ff021916908360048111156200013f577f4e487b7100000000000000000000000000000000000000000000000000000000600052602160045260246000fd5b021790555050620001dc565b6000815190506200015c81620001c2565b92915050565b6000602082840312156200017557600080fd5b600062000185848285016200014b565b91505092915050565b60006200019b82620001a2565b9050919050565b600073ffffffffffffffffffffffffffffffffffffffff82169050919050565b620001cd816200018e565b8114620001d957600080fd5b50565b61225c80620001ec6000396000f3fe608060405234801561001057600080fd5b50600436106100cf5760003560e01c80639eb88db61161008c578063c19d93fb11610066578063c19d93fb146101ee578063c3ce2a921461020c578063c8e999b814610216578063ee74c67814610220576100cf565b80639eb88db614610197578063a3ec138d146101b3578063a7bfab16146101e4576100cf565b80630121b93f146100d4578063185fd225146100f05780633477ee2e1461010e578063378a21781461013f578063378aa7011461015d5780639e7b8d611461017b575b600080fd5b6100ee60048036038101906100e991906118df565b61022a565b005b6100f8610471565b6040516101059190611b6b565b60405180910390f35b610128600480360381019061012391906118df565b61054a565b604051610136929190611bf3565b60405180910390f35b610147610606565b6040516101549190611bd1565b60405180910390f35b6101656108f7565b6040516101729190611bd1565b60405180910390f35b61019560048036038101906101909190611875565b610cb6565b005b6101b160048036038101906101ac919061189e565b610ef9565b005b6101cd60048036038101906101c89190611875565b611064565b6040516101db929190611b8d565b60405180910390f35b6101ec6110a2565b005b6101f6611244565b6040516102039190611bb6565b60405180910390f35b610214611257565b005b61021e6113fa565b005b61022861159d565b005b60036004811115610264577f4e487b7100000000000000000000000000000000000000000000000000000000600052602160045260246000fd5b600460009054906101000a900460ff1660048111156102ac577f4e487b7100000000000000000000000000000000000000000000000000000000600052602160045260246000fd5b146102ec576040517f08c379a00000000000000000000000000000000000000000000000000000000081526004016102e390611ca3565b60405180910390fd5b6000600160003373ffffffffffffffffffffffffffffffffffffffff1673ffffffffffffffffffffffffffffffffffffffff16815260200190815260200160002090508060000160019054906101000a900460ff1615610381576040517f08c379a000000000000000000000000000000000000000000000000000000000815260040161037890611c63565b60405180910390fd5b8060000160009054906101000a900460ff166103d2576040517f08c379a00000000000000000000000000000000000000000000000000000000081526004016103c990611c43565b60405180910390fd5b60018160000160016101000a81548160ff02191690831515021790555060028281548110610429577f4e487b7100000000000000000000000000000000000000000000000000000000600052603260045260246000fd5b9060005260206000209060020201600101600081548092919061044b90611f11565b919050555060008160000160006101000a81548160ff0219169083151502179055505050565b60606003805480602002602001604051908101604052809291908181526020016000905b828210156105415783829060005260206000200180546104b490611eae565b80601f01602080910402602001604051908101604052809291908181526020018280546104e090611eae565b801561052d5780601f106105025761010080835404028352916020019161052d565b820191906000526020600020905b81548152906001019060200180831161051057829003601f168201915b505050505081526020019060010190610495565b50505050905090565b6002818154811061055a57600080fd5b906000526020600020906002020160009150905080600001805461057d90611eae565b80601f01602080910402602001604051908101604052809291908181526020018280546105a990611eae565b80156105f65780601f106105cb576101008083540402835291602001916105f6565b820191906000526020600020905b8154815290600101906020018083116105d957829003601f168201915b5050505050908060010154905082565b606060008054906101000a900473ffffffffffffffffffffffffffffffffffffffff1673ffffffffffffffffffffffffffffffffffffffff163373ffffffffffffffffffffffffffffffffffffffff1614610696576040517f08c379a000000000000000000000000000000000000000000000000000000000815260040161068d90611c83565b60405180910390fd5b6004808111156106cf577f4e487b7100000000000000000000000000000000000000000000000000000000600052602160045260246000fd5b600460009054906101000a900460ff166004811115610717577f4e487b7100000000000000000000000000000000000000000000000000000000600052602160045260246000fd5b14610757576040517f08c379a000000000000000000000000000000000000000000000000000000000815260040161074e90611d03565b60405180910390fd5b6000805b6002805490508110156108f25781600282815481106107a3577f4e487b7100000000000000000000000000000000000000000000000000000000600052603260045260246000fd5b906000526020600020906002020160010154106108df57600281815481106107f4577f4e487b7100000000000000000000000000000000000000000000000000000000600052603260045260246000fd5b906000526020600020906002020160010154915060028181548110610842577f4e487b7100000000000000000000000000000000000000000000000000000000600052603260045260246000fd5b9060005260206000209060020201600001805461085e90611eae565b80601f016020809104026020016040519081016040528092919081815260200182805461088a90611eae565b80156108d75780601f106108ac576101008083540402835291602001916108d7565b820191906000526020600020905b8154815290600101906020018083116108ba57829003601f168201915b505050505092505b80806108ea90611f11565b91505061075b565b505090565b60606000600460009054906101000a900460ff16905060006004811115610947577f4e487b7100000000000000000000000000000000000000000000000000000000600052602160045260246000fd5b816004811115610980577f4e487b7100000000000000000000000000000000000000000000000000000000600052602160045260246000fd5b14156109c4576040518060400160405280600d81526020017f496e697469616c20537461746500000000000000000000000000000000000000815250915050610cb3565b600160048111156109fe577f4e487b7100000000000000000000000000000000000000000000000000000000600052602160045260246000fd5b816004811115610a37577f4e487b7100000000000000000000000000000000000000000000000000000000600052602160045260246000fd5b1415610a7b576040518060400160405280601681526020017f5265676973746572696e672043616e6469646174657300000000000000000000815250915050610cb3565b60026004811115610ab5577f4e487b7100000000000000000000000000000000000000000000000000000000600052602160045260246000fd5b816004811115610aee577f4e487b7100000000000000000000000000000000000000000000000000000000600052602160045260246000fd5b1415610b32576040518060400160405280601281526020017f5265676973746572696e6720566f746572730000000000000000000000000000815250915050610cb3565b60036004811115610b6c577f4e487b7100000000000000000000000000000000000000000000000000000000600052602160045260246000fd5b816004811115610ba5577f4e487b7100000000000000000000000000000000000000000000000000000000600052602160045260246000fd5b1415610be9576040518060400160405280600e81526020017f566f74696e672053657373696f6e000000000000000000000000000000000000815250915050610cb3565b600480811115610c22577f4e487b7100000000000000000000000000000000000000000000000000000000600052602160045260246000fd5b816004811115610c5b577f4e487b7100000000000000000000000000000000000000000000000000000000600052602160045260246000fd5b1415610c9f576040518060400160405280600681526020017f436c6f7365640000000000000000000000000000000000000000000000000000815250915050610cb3565b604051806020016040528060008152509150505b90565b60026004811115610cf0577f4e487b7100000000000000000000000000000000000000000000000000000000600052602160045260246000fd5b600460009054906101000a900460ff166004811115610d38577f4e487b7100000000000000000000000000000000000000000000000000000000600052602160045260246000fd5b14610d78576040517f08c379a0000000000000000000000000000000000000000000000000000000008152600401610d6f90611ce3565b60405180910390fd5b60008054906101000a900473ffffffffffffffffffffffffffffffffffffffff1673ffffffffffffffffffffffffffffffffffffffff163373ffffffffffffffffffffffffffffffffffffffff1614610e06576040517f08c379a0000000000000000000000000000000000000000000000000000000008152600401610dfd90611c83565b60405180910390fd5b60001515600160008373ffffffffffffffffffffffffffffffffffffffff1673ffffffffffffffffffffffffffffffffffffffff16815260200190815260200160002060000160009054906101000a900460ff16151514610e9c576040517f08c379a0000000000000000000000000000000000000000000000000000000008152600401610e9390611d23565b60405180910390fd5b60018060008373ffffffffffffffffffffffffffffffffffffffff1673ffffffffffffffffffffffffffffffffffffffff16815260200190815260200160002060000160006101000a81548160ff02191690831515021790555050565b60016004811115610f33577f4e487b7100000000000000000000000000000000000000000000000000000000600052602160045260246000fd5b600460009054906101000a900460ff166004811115610f7b577f4e487b7100000000000000000000000000000000000000000000000000000000600052602160045260246000fd5b14610fbb576040517f08c379a0000000000000000000000000000000000000000000000000000000008152600401610fb290611c23565b60405180910390fd5b60026040518060400160405280838152602001600081525090806001815401808255809150506001900390600052602060002090600202016000909190919091506000820151816000019080519060200190611018929190611740565b50602082015181600101555050600381908060018154018082558091505060019003906000526020600020016000909190919091509080519060200190611060929190611740565b5050565b60016020528060005260406000206000915090508060000160009054906101000a900460ff16908060000160019054906101000a900460ff16905082565b60008054906101000a900473ffffffffffffffffffffffffffffffffffffffff1673ffffffffffffffffffffffffffffffffffffffff163373ffffffffffffffffffffffffffffffffffffffff1614611130576040517f08c379a000000000000000000000000000000000000000000000000000000000815260040161112790611c83565b60405180910390fd5b6003600481111561116a577f4e487b7100000000000000000000000000000000000000000000000000000000600052602160045260246000fd5b600460009054906101000a900460ff1660048111156111b2577f4e487b7100000000000000000000000000000000000000000000000000000000600052602160045260246000fd5b146111f2576040517f08c379a00000000000000000000000000000000000000000000000000000000081526004016111e990611ca3565b60405180910390fd5b60048060006101000a81548160ff0219169083600481111561123d577f4e487b7100000000000000000000000000000000000000000000000000000000600052602160045260246000fd5b0217905550565b600460009054906101000a900460ff1681565b60008054906101000a900473ffffffffffffffffffffffffffffffffffffffff1673ffffffffffffffffffffffffffffffffffffffff163373ffffffffffffffffffffffffffffffffffffffff16146112e5576040517f08c379a00000000000000000000000000000000000000000000000000000000081526004016112dc90611c83565b60405180910390fd5b6000600481111561131f577f4e487b7100000000000000000000000000000000000000000000000000000000600052602160045260246000fd5b600460009054906101000a900460ff166004811115611367577f4e487b7100000000000000000000000000000000000000000000000000000000600052602160045260246000fd5b146113a7576040517f08c379a000000000000000000000000000000000000000000000000000000000815260040161139e90611cc3565b60405180910390fd5b6001600460006101000a81548160ff021916908360048111156113f3577f4e487b7100000000000000000000000000000000000000000000000000000000600052602160045260246000fd5b0217905550565b60008054906101000a900473ffffffffffffffffffffffffffffffffffffffff1673ffffffffffffffffffffffffffffffffffffffff163373ffffffffffffffffffffffffffffffffffffffff1614611488576040517f08c379a000000000000000000000000000000000000000000000000000000000815260040161147f90611c83565b60405180910390fd5b600160048111156114c2577f4e487b7100000000000000000000000000000000000000000000000000000000600052602160045260246000fd5b600460009054906101000a900460ff16600481111561150a577f4e487b7100000000000000000000000000000000000000000000000000000000600052602160045260246000fd5b1461154a576040517f08c379a000000000000000000000000000000000000000000000000000000000815260040161154190611c23565b60405180910390fd5b6002600460006101000a81548160ff02191690836004811115611596577f4e487b7100000000000000000000000000000000000000000000000000000000600052602160045260246000fd5b0217905550565b60008054906101000a900473ffffffffffffffffffffffffffffffffffffffff1673ffffffffffffffffffffffffffffffffffffffff163373ffffffffffffffffffffffffffffffffffffffff161461162b576040517f08c379a000000000000000000000000000000000000000000000000000000000815260040161162290611c83565b60405180910390fd5b60026004811115611665577f4e487b7100000000000000000000000000000000000000000000000000000000600052602160045260246000fd5b600460009054906101000a900460ff1660048111156116ad577f4e487b7100000000000000000000000000000000000000000000000000000000600052602160045260246000fd5b146116ed576040517f08c379a00000000000000000000000000000000000000000000000000000000081526004016116e490611ce3565b60405180910390fd5b6003600460006101000a81548160ff02191690836004811115611739577f4e487b7100000000000000000000000000000000000000000000000000000000600052602160045260246000fd5b0217905550565b82805461174c90611eae565b90600052602060002090601f01602090048101928261176e57600085556117b5565b82601f1061178757805160ff19168380011785556117b5565b828001600101855582156117b5579182015b828111156117b4578251825591602001919060010190611799565b5b5090506117c291906117c6565b5090565b5b808211156117df5760008160009055506001016117c7565b5090565b60006117f66117f184611d68565b611d43565b90508281526020810184848401111561180e57600080fd5b611819848285611e6c565b509392505050565b600081359050611830816121f8565b92915050565b600082601f83011261184757600080fd5b81356118578482602086016117e3565b91505092915050565b60008135905061186f8161220f565b92915050565b60006020828403121561188757600080fd5b600061189584828501611821565b91505092915050565b6000602082840312156118b057600080fd5b600082013567ffffffffffffffff8111156118ca57600080fd5b6118d684828501611836565b91505092915050565b6000602082840312156118f157600080fd5b60006118ff84828501611860565b91505092915050565b600061191483836119af565b905092915050565b600061192782611da9565b6119318185611dcc565b93508360208202850161194385611d99565b8060005b8581101561197f57848403895281516119608582611908565b945061196b83611dbf565b925060208a01995050600181019050611947565b50829750879550505050505092915050565b61199a81611e11565b82525050565b6119a981611e5a565b82525050565b60006119ba82611db4565b6119c48185611ddd565b93506119d4818560208601611e7b565b6119dd81612016565b840191505092915050565b60006119f382611db4565b6119fd8185611dee565b9350611a0d818560208601611e7b565b611a1681612016565b840191505092915050565b6000611a2e602383611dee565b9150611a3982612027565b604082019050919050565b6000611a51601483611dee565b9150611a5c82612076565b602082019050919050565b6000611a74600e83611dee565b9150611a7f8261209f565b602082019050919050565b6000611a97602d83611dee565b9150611aa2826120c8565b604082019050919050565b6000611aba601c83611dee565b9150611ac582612117565b602082019050919050565b6000611add601b83611dee565b9150611ae882612140565b602082019050919050565b6000611b00602083611dee565b9150611b0b82612169565b602082019050919050565b6000611b23601a83611dee565b9150611b2e82612192565b602082019050919050565b6000611b46601d83611dee565b9150611b51826121bb565b602082019050919050565b611b6581611e50565b82525050565b60006020820190508181036000830152611b85818461191c565b905092915050565b6000604082019050611ba26000830185611991565b611baf6020830184611991565b9392505050565b6000602082019050611bcb60008301846119a0565b92915050565b60006020820190508181036000830152611beb81846119e8565b905092915050565b60006040820190508181036000830152611c0d81856119e8565b9050611c1c6020830184611b5c565b9392505050565b60006020820190508181036000830152611c3c81611a21565b9050919050565b60006020820190508181036000830152611c5c81611a44565b9050919050565b60006020820190508181036000830152611c7c81611a67565b9050919050565b60006020820190508181036000830152611c9c81611a8a565b9050919050565b60006020820190508181036000830152611cbc81611aad565b9050919050565b60006020820190508181036000830152611cdc81611ad0565b9050919050565b60006020820190508181036000830152611cfc81611af3565b9050919050565b60006020820190508181036000830152611d1c81611b16565b9050919050565b60006020820190508181036000830152611d3c81611b39565b9050919050565b6000611d4d611d5e565b9050611d598282611ee0565b919050565b6000604051905090565b600067ffffffffffffffff821115611d8357611d82611fe7565b5b611d8c82612016565b9050602081019050919050565b6000819050602082019050919050565b600081519050919050565b600081519050919050565b6000602082019050919050565b600082825260208201905092915050565b600082825260208201905092915050565b600082825260208201905092915050565b6000611e0a82611e30565b9050919050565b60008115159050919050565b6000819050611e2b826121e4565b919050565b600073ffffffffffffffffffffffffffffffffffffffff82169050919050565b6000819050919050565b6000611e6582611e1d565b9050919050565b82818337600083830152505050565b60005b83811015611e99578082015181840152602081019050611e7e565b83811115611ea8576000848401525b50505050565b60006002820490506001821680611ec657607f821691505b60208210811415611eda57611ed9611fb8565b5b50919050565b611ee982612016565b810181811067ffffffffffffffff82111715611f0857611f07611fe7565b5b80604052505050565b6000611f1c82611e50565b91507fffffffffffffffffffffffffffffffffffffffffffffffffffffffffffffffff821415611f4f57611f4e611f5a565b5b600182019050919050565b7f4e487b7100000000000000000000000000000000000000000000000000000000600052601160045260246000fd5b7f4e487b7100000000000000000000000000000000000000000000000000000000600052602160045260246000fd5b7f4e487b7100000000000000000000000000000000000000000000000000000000600052602260045260246000fd5b7f4e487b7100000000000000000000000000000000000000000000000000000000600052604160045260246000fd5b6000601f19601f8301169050919050565b7f6974206d75737420626520696e205265676973746572696e672043616e64696460008201527f6174650000000000000000000000000000000000000000000000000000000000602082015250565b7f486173206e6f20726967687420746f20766f7465000000000000000000000000600082015250565b7f416c726561647920766f7465642e000000000000000000000000000000000000600082015250565b7f4f6e6c79206368616972706572736f6e2063616e20737461727420616e64206560008201527f6e642074686520766f74696e6700000000000000000000000000000000000000602082015250565b7f6974206d75737420626520696e20566f74696e672053657373696f6e00000000600082015250565b7f6974206d75737420626520696e20496e697469616c2053746174650000000000600082015250565b7f6974206d75737420626520696e205265676973746572696e6720566f74657273600082015250565b7f6974206d75737420626520696e20436c6f736564207374617465000000000000600082015250565b7f48617320616c72656164792074686520726967687420746f20766f7465000000600082015250565b600581106121f5576121f4611f89565b5b50565b61220181611dff565b811461220c57600080fd5b50565b61221881611e50565b811461222357600080fd5b5056fea264697066735822122014ceb3655ed1eab83bc43c5fcdc0c0efdc939da3443f9a19ec750cd4d1b85d5b64736f6c63430008040033",
  "linkReferences": {},
  "deployedLinkReferences": {}
}