{
  "_format": "hh-sol-artifact-1",
  "contractName": "Dao",
  "sourceName": "contracts/Dao.sol",
  "abi": [
    {
      "inputs": [
        {
          "internalType": "address[]",
          "name": "daoVotersParameter",
          "type": "address[]"
        }
      ],
      "stateMutability": "nonpayable",
      "type": "constructor"
    },
    {
      "inputs": [
        {
          "internalType": "uint256",
          "name": "proposalId",
          "type": "uint256"
        },
        {
          "internalType": "address",
          "name": "dappContract",
          "type": "address"
        }
      ],
      "name": "endVoteCandidate",
      "outputs": [],
      "stateMutability": "nonpayable",
      "type": "function"
    },
    {
      "inputs": [
        {
          "internalType": "uint256",
          "name": "proposalId",
          "type": "uint256"
        },
        {
          "internalType": "address",
          "name": "dappContract",
          "type": "address"
        }
      ],
      "name": "endVoteVoter",
      "outputs": [],
      "stateMutability": "nonpayable",
      "type": "function"
    },
    {
      "inputs": [
        {
          "internalType": "address",
          "name": "dappContract",
          "type": "address"
        }
      ],
      "name": "endVotingSession",
      "outputs": [],
      "stateMutability": "nonpayable",
      "type": "function"
    },
    {
      "inputs": [],
      "name": "getTest",
      "outputs": [
        {
          "internalType": "string",
          "name": "",
          "type": "string"
        }
      ],
      "stateMutability": "view",
      "type": "function"
    },
    {
      "inputs": [
        {
          "internalType": "string",
          "name": "newCandidateDapp",
          "type": "string"
        }
      ],
      "name": "proposeCandidate",
      "outputs": [],
      "stateMutability": "nonpayable",
      "type": "function"
    },
    {
      "inputs": [
        {
          "internalType": "address",
          "name": "newVoterDapp",
          "type": "address"
        }
      ],
      "name": "proposeVoter",
      "outputs": [],
      "stateMutability": "nonpayable",
      "type": "function"
    },
    {
      "inputs": [
        {
          "internalType": "address",
          "name": "dappContract",
          "type": "address"
        }
      ],
      "name": "startRegisteringCandidates",
      "outputs": [],
      "stateMutability": "nonpayable",
      "type": "function"
    },
    {
      "inputs": [
        {
          "internalType": "address",
          "name": "dappContract",
          "type": "address"
        }
      ],
      "name": "startRegisteringVoters",
      "outputs": [],
      "stateMutability": "nonpayable",
      "type": "function"
    },
    {
      "inputs": [
        {
          "internalType": "address",
          "name": "dappContract",
          "type": "address"
        }
      ],
      "name": "startVotingSession",
      "outputs": [],
      "stateMutability": "nonpayable",
      "type": "function"
    },
    {
      "inputs": [
        {
          "internalType": "uint256",
          "name": "proposalId",
          "type": "uint256"
        },
        {
          "internalType": "bool",
          "name": "vote",
          "type": "bool"
        }
      ],
      "name": "voteCandidateProposal",
      "outputs": [],
      "stateMutability": "nonpayable",
      "type": "function"
    },
    {
      "inputs": [
        {
          "internalType": "uint256",
          "name": "proposalId",
          "type": "uint256"
        },
        {
          "internalType": "bool",
          "name": "vote",
          "type": "bool"
        }
      ],
      "name": "voteVoterProposal",
      "outputs": [],
      "stateMutability": "nonpayable",
      "type": "function"
    }
  ],
  "bytecode": "0x60806040526040518060400160405280600481526020017f6369616f000000000000000000000000000000000000000000000000000000008152506004908051906020019062000051929190620001a2565b503480156200005f57600080fd5b50604051620025ce380380620025ce83398181016040528101906200008591906200030b565b60005b815181101562000140576001600080848481518110620000d1577f4e487b7100000000000000000000000000000000000000000000000000000000600052603260045260246000fd5b602002602001015173ffffffffffffffffffffffffffffffffffffffff1673ffffffffffffffffffffffffffffffffffffffff16815260200190815260200160002060006101000a81548160ff02191690831515021790555080806200013790620004e7565b91505062000088565b5060006002825162000153919062000535565b14156200017657600281516200016a919062000405565b6003819055506200019b565b600260018251620001889190620003a8565b62000194919062000405565b6003819055505b5062000654565b828054620001b0906200047b565b90600052602060002090601f016020900481019282620001d4576000855562000220565b82601f10620001ef57805160ff191683800117855562000220565b8280016001018555821562000220579182015b828111156200021f57825182559160200191906001019062000202565b5b5090506200022f919062000233565b5090565b5b808211156200024e57600081600090555060010162000234565b5090565b600062000269620002638462000379565b62000350565b905080838252602082019050828560208602820111156200028957600080fd5b60005b85811015620002bd5781620002a28882620002c7565b8452602084019350602083019250506001810190506200028c565b5050509392505050565b600081519050620002d8816200063a565b92915050565b600082601f830112620002f057600080fd5b81516200030284826020860162000252565b91505092915050565b6000602082840312156200031e57600080fd5b600082015167ffffffffffffffff8111156200033957600080fd5b6200034784828501620002de565b91505092915050565b60006200035c6200036f565b90506200036a8282620004b1565b919050565b6000604051905090565b600067ffffffffffffffff821115620003975762000396620005fa565b5b602082029050602081019050919050565b6000620003b58262000471565b9150620003c28362000471565b9250827fffffffffffffffffffffffffffffffffffffffffffffffffffffffffffffffff03821115620003fa57620003f96200056d565b5b828201905092915050565b6000620004128262000471565b91506200041f8362000471565b9250826200043257620004316200059c565b5b828204905092915050565b60006200044a8262000451565b9050919050565b600073ffffffffffffffffffffffffffffffffffffffff82169050919050565b6000819050919050565b600060028204905060018216806200049457607f821691505b60208210811415620004ab57620004aa620005cb565b5b50919050565b620004bc8262000629565b810181811067ffffffffffffffff82111715620004de57620004dd620005fa565b5b80604052505050565b6000620004f48262000471565b91507fffffffffffffffffffffffffffffffffffffffffffffffffffffffffffffffff8214156200052a57620005296200056d565b5b600182019050919050565b6000620005428262000471565b91506200054f8362000471565b9250826200056257620005616200059c565b5b828206905092915050565b7f4e487b7100000000000000000000000000000000000000000000000000000000600052601160045260246000fd5b7f4e487b7100000000000000000000000000000000000000000000000000000000600052601260045260246000fd5b7f4e487b7100000000000000000000000000000000000000000000000000000000600052602260045260246000fd5b7f4e487b7100000000000000000000000000000000000000000000000000000000600052604160045260246000fd5b6000601f19601f8301169050919050565b62000645816200043d565b81146200065157600080fd5b50565b611f6a80620006646000396000f3fe608060405234801561001057600080fd5b50600436106100a95760003560e01c806398ab48631161007157806398ab48631461013a578063a8cd0a8014610156578063b7dea64714610174578063d664666f14610190578063efa332f6146101ac578063fe9233c1146101c8576100a9565b80630195a055146100ae57806318d264f4146100ca5780636919794a146100e65780639022c0351461010257806391af9f3e1461011e575b600080fd5b6100c860048036038101906100c391906118cb565b6101e4565b005b6100e460048036038101906100df91906118cb565b6103c6565b005b61010060048036038101906100fb91906118cb565b6104c1565b005b61011c60048036038101906101179190611935565b6105bc565b005b610138600480360381019061013391906118cb565b610898565b005b610154600480360381019061014f91906118f4565b610993565b005b61015e610b35565b60405161016b9190611af9565b60405180910390f35b61018e60048036038101906101899190611971565b610bc7565b005b6101aa60048036038101906101a59190611935565b610f64565b005b6101c660048036038101906101c19190611971565b611261565b005b6101e260048036038101906101dd91906118cb565b6115fc565b005b600115156000803373ffffffffffffffffffffffffffffffffffffffff1673ffffffffffffffffffffffffffffffffffffffff16815260200190815260200160002060009054906101000a900460ff16151514610276576040517f08c379a000000000000000000000000000000000000000000000000000000000815260040161026d90611b5d565b60405180910390fd5b6001604051806080016040528060008152602001600081526020018373ffffffffffffffffffffffffffffffffffffffff168152602001600067ffffffffffffffff8111156102ee577f4e487b7100000000000000000000000000000000000000000000000000000000600052604160045260246000fd5b60405190808252806020026020018201604052801561031c5781602001602082028036833780820191505090505b508152509080600181540180825580915050600190039060005260206000209060040201600090919091909150600082015181600001556020820151816001015560408201518160020160006101000a81548173ffffffffffffffffffffffffffffffffffffffff021916908373ffffffffffffffffffffffffffffffffffffffff16021790555060608201518160030190805190602001906103c09291906116f7565b50505050565b600115156000803373ffffffffffffffffffffffffffffffffffffffff1673ffffffffffffffffffffffffffffffffffffffff16815260200190815260200160002060009054906101000a900460ff16151514610458576040517f08c379a000000000000000000000000000000000000000000000000000000000815260040161044f90611b5d565b60405180910390fd5b60008190508073ffffffffffffffffffffffffffffffffffffffff1663a7bfab166040518163ffffffff1660e01b8152600401600060405180830381600087803b1580156104a557600080fd5b505af11580156104b9573d6000803e3d6000fd5b505050505050565b600115156000803373ffffffffffffffffffffffffffffffffffffffff1673ffffffffffffffffffffffffffffffffffffffff16815260200190815260200160002060009054906101000a900460ff16151514610553576040517f08c379a000000000000000000000000000000000000000000000000000000000815260040161054a90611b5d565b60405180910390fd5b60008190508073ffffffffffffffffffffffffffffffffffffffff1663c8e999b86040518163ffffffff1660e01b8152600401600060405180830381600087803b1580156105a057600080fd5b505af11580156105b4573d6000803e3d6000fd5b505050505050565b600115156000803373ffffffffffffffffffffffffffffffffffffffff1673ffffffffffffffffffffffffffffffffffffffff16815260200190815260200160002060009054906101000a900460ff1615151461064e576040517f08c379a000000000000000000000000000000000000000000000000000000000815260040161064590611b5d565b60405180910390fd5b60006002838154811061068a577f4e487b7100000000000000000000000000000000000000000000000000000000600052603260045260246000fd5b906000526020600020906004020160010154600284815481106106d6577f4e487b7100000000000000000000000000000000000000000000000000000000600052603260045260246000fd5b9060005260206000209060040201600001546106f29190611c24565b90506002838154811061072e577f4e487b7100000000000000000000000000000000000000000000000000000000600052603260045260246000fd5b9060005260206000209060040201600101546002848154811061077a577f4e487b7100000000000000000000000000000000000000000000000000000000600052603260045260246000fd5b9060005260206000209060040201600001541115610893576003548110156107d7576040517f08c379a00000000000000000000000000000000000000000000000000000000081526004016107ce90611b7d565b60405180910390fd5b60008290508073ffffffffffffffffffffffffffffffffffffffff16639eb88db660028681548110610832577f4e487b7100000000000000000000000000000000000000000000000000000000600052603260045260246000fd5b90600052602060002090600402016002016040518263ffffffff1660e01b815260040161085f9190611b1b565b600060405180830381600087803b15801561087957600080fd5b505af115801561088d573d6000803e3d6000fd5b50505050505b505050565b600115156000803373ffffffffffffffffffffffffffffffffffffffff1673ffffffffffffffffffffffffffffffffffffffff16815260200190815260200160002060009054906101000a900460ff1615151461092a576040517f08c379a000000000000000000000000000000000000000000000000000000000815260040161092190611b5d565b60405180910390fd5b60008190508073ffffffffffffffffffffffffffffffffffffffff1663c3ce2a926040518163ffffffff1660e01b8152600401600060405180830381600087803b15801561097757600080fd5b505af115801561098b573d6000803e3d6000fd5b505050505050565b600115156000803373ffffffffffffffffffffffffffffffffffffffff1673ffffffffffffffffffffffffffffffffffffffff16815260200190815260200160002060009054906101000a900460ff16151514610a25576040517f08c379a0000000000000000000000000000000000000000000000000000000008152600401610a1c90611b5d565b60405180910390fd5b600260405180608001604052806000815260200160008152602001838152602001600067ffffffffffffffff811115610a87577f4e487b7100000000000000000000000000000000000000000000000000000000600052604160045260246000fd5b604051908082528060200260200182016040528015610ab55781602001602082028036833780820191505090505b50815250908060018154018082558091505060019003906000526020600020906004020160009091909190915060008201518160000155602082015181600101556040820151816002019080519060200190610b12929190611781565b506060820151816003019080519060200190610b2f9291906116f7565b50505050565b606060048054610b4490611d04565b80601f0160208091040260200160405190810160405280929190818152602001828054610b7090611d04565b8015610bbd5780601f10610b9257610100808354040283529160200191610bbd565b820191906000526020600020905b815481529060010190602001808311610ba057829003601f168201915b5050505050905090565b600115156000803373ffffffffffffffffffffffffffffffffffffffff1673ffffffffffffffffffffffffffffffffffffffff16815260200190815260200160002060009054906101000a900460ff16151514610c59576040517f08c379a0000000000000000000000000000000000000000000000000000000008152600401610c5090611b5d565b60405180910390fd5b60005b60028381548110610c96577f4e487b7100000000000000000000000000000000000000000000000000000000600052603260045260246000fd5b906000526020600020906004020160030180549050811015610de1573373ffffffffffffffffffffffffffffffffffffffff1660028481548110610d03577f4e487b7100000000000000000000000000000000000000000000000000000000600052603260045260246000fd5b90600052602060002090600402016003018281548110610d4c577f4e487b7100000000000000000000000000000000000000000000000000000000600052603260045260246000fd5b9060005260206000200160009054906101000a900473ffffffffffffffffffffffffffffffffffffffff1673ffffffffffffffffffffffffffffffffffffffff161415610dce576040517f08c379a0000000000000000000000000000000000000000000000000000000008152600401610dc590611b3d565b60405180910390fd5b8080610dd990611d67565b915050610c5c565b5060028281548110610e1c577f4e487b7100000000000000000000000000000000000000000000000000000000600052603260045260246000fd5b9060005260206000209060040201600301339080600181540180825580915050600190039060005260206000200160009091909190916101000a81548173ffffffffffffffffffffffffffffffffffffffff021916908373ffffffffffffffffffffffffffffffffffffffff1602179055508015610efc57600160028381548110610ed0577f4e487b7100000000000000000000000000000000000000000000000000000000600052603260045260246000fd5b90600052602060002090600402016000016000828254610ef09190611c24565b92505081905550610f60565b600160028381548110610f38577f4e487b7100000000000000000000000000000000000000000000000000000000600052603260045260246000fd5b90600052602060002090600402016001016000828254610f589190611c24565b925050819055505b5050565b600115156000803373ffffffffffffffffffffffffffffffffffffffff1673ffffffffffffffffffffffffffffffffffffffff16815260200190815260200160002060009054906101000a900460ff16151514610ff6576040517f08c379a0000000000000000000000000000000000000000000000000000000008152600401610fed90611b5d565b60405180910390fd5b600060018381548110611032577f4e487b7100000000000000000000000000000000000000000000000000000000600052603260045260246000fd5b9060005260206000209060040201600101546001848154811061107e577f4e487b7100000000000000000000000000000000000000000000000000000000600052603260045260246000fd5b90600052602060002090600402016000015461109a9190611c24565b9050600183815481106110d6577f4e487b7100000000000000000000000000000000000000000000000000000000600052603260045260246000fd5b90600052602060002090600402016001015460018481548110611122577f4e487b7100000000000000000000000000000000000000000000000000000000600052603260045260246000fd5b906000526020600020906004020160000154111561125c5760035481101561117f576040517f08c379a000000000000000000000000000000000000000000000000000000000815260040161117690611b7d565b60405180910390fd5b60008290508073ffffffffffffffffffffffffffffffffffffffff16639e7b8d61600186815481106111da577f4e487b7100000000000000000000000000000000000000000000000000000000600052603260045260246000fd5b906000526020600020906004020160020160009054906101000a900473ffffffffffffffffffffffffffffffffffffffff166040518263ffffffff1660e01b81526004016112289190611ade565b600060405180830381600087803b15801561124257600080fd5b505af1158015611256573d6000803e3d6000fd5b50505050505b505050565b600115156000803373ffffffffffffffffffffffffffffffffffffffff1673ffffffffffffffffffffffffffffffffffffffff16815260200190815260200160002060009054906101000a900460ff161515146112f3576040517f08c379a00000000000000000000000000000000000000000000000000000000081526004016112ea90611b5d565b60405180910390fd5b60005b60018381548110611330577f4e487b7100000000000000000000000000000000000000000000000000000000600052603260045260246000fd5b90600052602060002090600402016003018054905081101561147b573373ffffffffffffffffffffffffffffffffffffffff166001848154811061139d577f4e487b7100000000000000000000000000000000000000000000000000000000600052603260045260246000fd5b906000526020600020906004020160030182815481106113e6577f4e487b7100000000000000000000000000000000000000000000000000000000600052603260045260246000fd5b9060005260206000200160009054906101000a900473ffffffffffffffffffffffffffffffffffffffff1673ffffffffffffffffffffffffffffffffffffffff161415611468576040517f08c379a000000000000000000000000000000000000000000000000000000000815260040161145f90611b3d565b60405180910390fd5b808061147390611d67565b9150506112f6565b50600182815481106114b6577f4e487b7100000000000000000000000000000000000000000000000000000000600052603260045260246000fd5b9060005260206000209060040201600301339080600181540180825580915050600190039060005260206000200160009091909190916101000a81548173ffffffffffffffffffffffffffffffffffffffff021916908373ffffffffffffffffffffffffffffffffffffffff1602179055508015611595576001808381548110611569577f4e487b7100000000000000000000000000000000000000000000000000000000600052603260045260246000fd5b906000526020600020906004020160000160008282546115899190611c24565b925050819055506115f8565b60018083815481106115d0577f4e487b7100000000000000000000000000000000000000000000000000000000600052603260045260246000fd5b906000526020600020906004020160010160008282546115f09190611c24565b925050819055505b5050565b600115156000803373ffffffffffffffffffffffffffffffffffffffff1673ffffffffffffffffffffffffffffffffffffffff16815260200190815260200160002060009054906101000a900460ff1615151461168e576040517f08c379a000000000000000000000000000000000000000000000000000000000815260040161168590611b5d565b60405180910390fd5b60008190508073ffffffffffffffffffffffffffffffffffffffff1663ee74c6786040518163ffffffff1660e01b8152600401600060405180830381600087803b1580156116db57600080fd5b505af11580156116ef573d6000803e3d6000fd5b505050505050565b828054828255906000526020600020908101928215611770579160200282015b8281111561176f5782518260006101000a81548173ffffffffffffffffffffffffffffffffffffffff021916908373ffffffffffffffffffffffffffffffffffffffff16021790555091602001919060010190611717565b5b50905061177d9190611807565b5090565b82805461178d90611d04565b90600052602060002090601f0160209004810192826117af57600085556117f6565b82601f106117c857805160ff19168380011785556117f6565b828001600101855582156117f6579182015b828111156117f55782518255916020019190600101906117da565b5b5090506118039190611807565b5090565b5b80821115611820576000816000905550600101611808565b5090565b600061183761183284611bc2565b611b9d565b90508281526020810184848401111561184f57600080fd5b61185a848285611cc2565b509392505050565b60008135905061187181611eef565b92915050565b60008135905061188681611f06565b92915050565b600082601f83011261189d57600080fd5b81356118ad848260208601611824565b91505092915050565b6000813590506118c581611f1d565b92915050565b6000602082840312156118dd57600080fd5b60006118eb84828501611862565b91505092915050565b60006020828403121561190657600080fd5b600082013567ffffffffffffffff81111561192057600080fd5b61192c8482850161188c565b91505092915050565b6000806040838503121561194857600080fd5b6000611956858286016118b6565b925050602061196785828601611862565b9150509250929050565b6000806040838503121561198457600080fd5b6000611992858286016118b6565b92505060206119a385828601611877565b9150509250929050565b6119b681611c7a565b82525050565b60006119c782611c08565b6119d18185611c13565b93506119e1818560208601611cd1565b6119ea81611e3d565b840191505092915050565b60008154611a0281611d04565b611a0c8186611c13565b94506001821660008114611a275760018114611a3957611a6c565b60ff1983168652602086019350611a6c565b611a4285611bf3565b60005b83811015611a6457815481890152600182019150602081019050611a45565b808801955050505b50505092915050565b6000611a82600d83611c13565b9150611a8d82611e4e565b602082019050919050565b6000611aa5602c83611c13565b9150611ab082611e77565b604082019050919050565b6000611ac8601583611c13565b9150611ad382611ec6565b602082019050919050565b6000602082019050611af360008301846119ad565b92915050565b60006020820190508181036000830152611b1381846119bc565b905092915050565b60006020820190508181036000830152611b3581846119f5565b905092915050565b60006020820190508181036000830152611b5681611a75565b9050919050565b60006020820190508181036000830152611b7681611a98565b9050919050565b60006020820190508181036000830152611b9681611abb565b9050919050565b6000611ba7611bb8565b9050611bb38282611d36565b919050565b6000604051905090565b600067ffffffffffffffff821115611bdd57611bdc611e0e565b5b611be682611e3d565b9050602081019050919050565b60008190508160005260206000209050919050565b600081519050919050565b600082825260208201905092915050565b6000611c2f82611cb8565b9150611c3a83611cb8565b9250827fffffffffffffffffffffffffffffffffffffffffffffffffffffffffffffffff03821115611c6f57611c6e611db0565b5b828201905092915050565b6000611c8582611c98565b9050919050565b60008115159050919050565b600073ffffffffffffffffffffffffffffffffffffffff82169050919050565b6000819050919050565b82818337600083830152505050565b60005b83811015611cef578082015181840152602081019050611cd4565b83811115611cfe576000848401525b50505050565b60006002820490506001821680611d1c57607f821691505b60208210811415611d3057611d2f611ddf565b5b50919050565b611d3f82611e3d565b810181811067ffffffffffffffff82111715611d5e57611d5d611e0e565b5b80604052505050565b6000611d7282611cb8565b91507fffffffffffffffffffffffffffffffffffffffffffffffffffffffffffffffff821415611da557611da4611db0565b5b600182019050919050565b7f4e487b7100000000000000000000000000000000000000000000000000000000600052601160045260246000fd5b7f4e487b7100000000000000000000000000000000000000000000000000000000600052602260045260246000fd5b7f4e487b7100000000000000000000000000000000000000000000000000000000600052604160045260246000fd5b6000601f19601f8301169050919050565b7f616c726561647920766f74656400000000000000000000000000000000000000600082015250565b7f4f6e6c79206d656d62657273206f66207468652044414f2063616e20766f746560008201527f20616e642070726f706f73650000000000000000000000000000000000000000602082015250565b7f71756f72756d206973206e6f7420726561636865640000000000000000000000600082015250565b611ef881611c7a565b8114611f0357600080fd5b50565b611f0f81611c8c565b8114611f1a57600080fd5b50565b611f2681611cb8565b8114611f3157600080fd5b5056fea264697066735822122019c93325aef7b2b62f1fb89d03874f7dc125bd7ccae05bf6695a553219836ab464736f6c63430008040033",
  "linkReferences": {},
  "deployedLinkReferences": {}
}