{
  "_format": "hh-sol-artifact-1",
  "contractName": "Dao",
  "sourceName": "contracts/Dao.sol",
  "abi": [
    {
      "inputs": [
        {
          "internalType": "address[]",
          "name": "daoVotersParameter",
          "type": "address[]"
        }
      ],
      "stateMutability": "nonpayable",
      "type": "constructor"
    },
    {
      "inputs": [
        {
          "internalType": "uint256",
          "name": "proposalId",
          "type": "uint256"
        },
        {
          "internalType": "address",
          "name": "dappContract",
          "type": "address"
        }
      ],
      "name": "endVoteCandidate",
      "outputs": [],
      "stateMutability": "nonpayable",
      "type": "function"
    },
    {
      "inputs": [
        {
          "internalType": "uint256",
          "name": "proposalId",
          "type": "uint256"
        },
        {
          "internalType": "address",
          "name": "dappContract",
          "type": "address"
        }
      ],
      "name": "endVoteVoter",
      "outputs": [],
      "stateMutability": "nonpayable",
      "type": "function"
    },
    {
      "inputs": [
        {
          "internalType": "address",
          "name": "dappContract",
          "type": "address"
        }
      ],
      "name": "endVotingSession",
      "outputs": [],
      "stateMutability": "nonpayable",
      "type": "function"
    },
    {
      "inputs": [
        {
          "internalType": "string",
          "name": "newCandidateDapp",
          "type": "string"
        }
      ],
      "name": "proposeCandidate",
      "outputs": [],
      "stateMutability": "nonpayable",
      "type": "function"
    },
    {
      "inputs": [
        {
          "internalType": "address",
          "name": "newVoterDapp",
          "type": "address"
        }
      ],
      "name": "proposeVoter",
      "outputs": [],
      "stateMutability": "nonpayable",
      "type": "function"
    },
    {
      "inputs": [
        {
          "internalType": "address",
          "name": "dappContract",
          "type": "address"
        }
      ],
      "name": "startRegisteringCandidates",
      "outputs": [],
      "stateMutability": "nonpayable",
      "type": "function"
    },
    {
      "inputs": [
        {
          "internalType": "address",
          "name": "dappContract",
          "type": "address"
        }
      ],
      "name": "startRegisteringVoters",
      "outputs": [],
      "stateMutability": "nonpayable",
      "type": "function"
    },
    {
      "inputs": [
        {
          "internalType": "address",
          "name": "dappContract",
          "type": "address"
        }
      ],
      "name": "startVotingSession",
      "outputs": [],
      "stateMutability": "nonpayable",
      "type": "function"
    },
    {
      "inputs": [
        {
          "internalType": "uint256",
          "name": "proposalId",
          "type": "uint256"
        },
        {
          "internalType": "bool",
          "name": "vote",
          "type": "bool"
        }
      ],
      "name": "voteCandidateProposal",
      "outputs": [],
      "stateMutability": "nonpayable",
      "type": "function"
    },
    {
      "inputs": [
        {
          "internalType": "uint256",
          "name": "proposalId",
          "type": "uint256"
        },
        {
          "internalType": "bool",
          "name": "vote",
          "type": "bool"
        }
      ],
      "name": "voteVoterProposal",
      "outputs": [],
      "stateMutability": "nonpayable",
      "type": "function"
    }
  ],
  "bytecode": "0x60806040523480156200001157600080fd5b50604051620023173803806200231783398181016040528101906200003791906200020d565b60005b8151811015620000f257600160008084848151811062000083577f4e487b7100000000000000000000000000000000000000000000000000000000600052603260045260246000fd5b602002602001015173ffffffffffffffffffffffffffffffffffffffff1673ffffffffffffffffffffffffffffffffffffffff16815260200190815260200160002060006101000a81548160ff0219169083151502179055508080620000e990620003b3565b9150506200003a565b5060006002825162000105919062000401565b14156200012857600281516200011c919062000307565b6003819055506200014d565b6002600182516200013a9190620002aa565b62000146919062000307565b6003819055505b50620004f1565b60006200016b62000165846200027b565b62000252565b905080838252602082019050828560208602820111156200018b57600080fd5b60005b85811015620001bf5781620001a48882620001c9565b8452602084019350602083019250506001810190506200018e565b5050509392505050565b600081519050620001da81620004d7565b92915050565b600082601f830112620001f257600080fd5b81516200020484826020860162000154565b91505092915050565b6000602082840312156200022057600080fd5b600082015167ffffffffffffffff8111156200023b57600080fd5b6200024984828501620001e0565b91505092915050565b60006200025e62000271565b90506200026c82826200037d565b919050565b6000604051905090565b600067ffffffffffffffff82111562000299576200029862000497565b5b602082029050602081019050919050565b6000620002b78262000373565b9150620002c48362000373565b9250827fffffffffffffffffffffffffffffffffffffffffffffffffffffffffffffffff03821115620002fc57620002fb62000439565b5b828201905092915050565b6000620003148262000373565b9150620003218362000373565b92508262000334576200033362000468565b5b828204905092915050565b60006200034c8262000353565b9050919050565b600073ffffffffffffffffffffffffffffffffffffffff82169050919050565b6000819050919050565b6200038882620004c6565b810181811067ffffffffffffffff82111715620003aa57620003a962000497565b5b80604052505050565b6000620003c08262000373565b91507fffffffffffffffffffffffffffffffffffffffffffffffffffffffffffffffff821415620003f657620003f562000439565b5b600182019050919050565b60006200040e8262000373565b91506200041b8362000373565b9250826200042e576200042d62000468565b5b828206905092915050565b7f4e487b7100000000000000000000000000000000000000000000000000000000600052601160045260246000fd5b7f4e487b7100000000000000000000000000000000000000000000000000000000600052601260045260246000fd5b7f4e487b7100000000000000000000000000000000000000000000000000000000600052604160045260246000fd5b6000601f19601f8301169050919050565b620004e2816200033f565b8114620004ee57600080fd5b50565b611e1680620005016000396000f3fe608060405234801561001057600080fd5b506004361061009e5760003560e01c806398ab48631161006657806398ab48631461012f578063b7dea6471461014b578063d664666f14610167578063efa332f614610183578063fe9233c11461019f5761009e565b80630195a055146100a357806318d264f4146100bf5780636919794a146100db5780639022c035146100f757806391af9f3e14610113575b600080fd5b6100bd60048036038101906100b89190611810565b6101bb565b005b6100d960048036038101906100d49190611810565b61039d565b005b6100f560048036038101906100f09190611810565b610498565b005b610111600480360381019061010c919061187a565b610593565b005b61012d60048036038101906101289190611810565b61086f565b005b61014960048036038101906101449190611839565b61096a565b005b610165600480360381019061016091906118b6565b610b0c565b005b610181600480360381019061017c919061187a565b610ea9565b005b61019d600480360381019061019891906118b6565b6111a6565b005b6101b960048036038101906101b49190611810565b611541565b005b600115156000803373ffffffffffffffffffffffffffffffffffffffff1673ffffffffffffffffffffffffffffffffffffffff16815260200190815260200160002060009054906101000a900460ff1615151461024d576040517f08c379a000000000000000000000000000000000000000000000000000000000815260040161024490611a47565b60405180910390fd5b6001604051806080016040528060008152602001600081526020018373ffffffffffffffffffffffffffffffffffffffff168152602001600067ffffffffffffffff8111156102c5577f4e487b7100000000000000000000000000000000000000000000000000000000600052604160045260246000fd5b6040519080825280602002602001820160405280156102f35781602001602082028036833780820191505090505b508152509080600181540180825580915050600190039060005260206000209060040201600090919091909150600082015181600001556020820151816001015560408201518160020160006101000a81548173ffffffffffffffffffffffffffffffffffffffff021916908373ffffffffffffffffffffffffffffffffffffffff160217905550606082015181600301908051906020019061039792919061163c565b50505050565b600115156000803373ffffffffffffffffffffffffffffffffffffffff1673ffffffffffffffffffffffffffffffffffffffff16815260200190815260200160002060009054906101000a900460ff1615151461042f576040517f08c379a000000000000000000000000000000000000000000000000000000000815260040161042690611a47565b60405180910390fd5b60008190508073ffffffffffffffffffffffffffffffffffffffff1663a7bfab166040518163ffffffff1660e01b8152600401600060405180830381600087803b15801561047c57600080fd5b505af1158015610490573d6000803e3d6000fd5b505050505050565b600115156000803373ffffffffffffffffffffffffffffffffffffffff1673ffffffffffffffffffffffffffffffffffffffff16815260200190815260200160002060009054906101000a900460ff1615151461052a576040517f08c379a000000000000000000000000000000000000000000000000000000000815260040161052190611a47565b60405180910390fd5b60008190508073ffffffffffffffffffffffffffffffffffffffff1663c8e999b86040518163ffffffff1660e01b8152600401600060405180830381600087803b15801561057757600080fd5b505af115801561058b573d6000803e3d6000fd5b505050505050565b600115156000803373ffffffffffffffffffffffffffffffffffffffff1673ffffffffffffffffffffffffffffffffffffffff16815260200190815260200160002060009054906101000a900460ff16151514610625576040517f08c379a000000000000000000000000000000000000000000000000000000000815260040161061c90611a47565b60405180910390fd5b600060028381548110610661577f4e487b7100000000000000000000000000000000000000000000000000000000600052603260045260246000fd5b906000526020600020906004020160010154600284815481106106ad577f4e487b7100000000000000000000000000000000000000000000000000000000600052603260045260246000fd5b9060005260206000209060040201600001546106c99190611b03565b905060028381548110610705577f4e487b7100000000000000000000000000000000000000000000000000000000600052603260045260246000fd5b90600052602060002090600402016001015460028481548110610751577f4e487b7100000000000000000000000000000000000000000000000000000000600052603260045260246000fd5b906000526020600020906004020160000154111561086a576003548110156107ae576040517f08c379a00000000000000000000000000000000000000000000000000000000081526004016107a590611a67565b60405180910390fd5b60008290508073ffffffffffffffffffffffffffffffffffffffff16639eb88db660028681548110610809577f4e487b7100000000000000000000000000000000000000000000000000000000600052603260045260246000fd5b90600052602060002090600402016002016040518263ffffffff1660e01b81526004016108369190611a05565b600060405180830381600087803b15801561085057600080fd5b505af1158015610864573d6000803e3d6000fd5b50505050505b505050565b600115156000803373ffffffffffffffffffffffffffffffffffffffff1673ffffffffffffffffffffffffffffffffffffffff16815260200190815260200160002060009054906101000a900460ff16151514610901576040517f08c379a00000000000000000000000000000000000000000000000000000000081526004016108f890611a47565b60405180910390fd5b60008190508073ffffffffffffffffffffffffffffffffffffffff1663c3ce2a926040518163ffffffff1660e01b8152600401600060405180830381600087803b15801561094e57600080fd5b505af1158015610962573d6000803e3d6000fd5b505050505050565b600115156000803373ffffffffffffffffffffffffffffffffffffffff1673ffffffffffffffffffffffffffffffffffffffff16815260200190815260200160002060009054906101000a900460ff161515146109fc576040517f08c379a00000000000000000000000000000000000000000000000000000000081526004016109f390611a47565b60405180910390fd5b600260405180608001604052806000815260200160008152602001838152602001600067ffffffffffffffff811115610a5e577f4e487b7100000000000000000000000000000000000000000000000000000000600052604160045260246000fd5b604051908082528060200260200182016040528015610a8c5781602001602082028036833780820191505090505b50815250908060018154018082558091505060019003906000526020600020906004020160009091909190915060008201518160000155602082015181600101556040820151816002019080519060200190610ae99291906116c6565b506060820151816003019080519060200190610b0692919061163c565b50505050565b600115156000803373ffffffffffffffffffffffffffffffffffffffff1673ffffffffffffffffffffffffffffffffffffffff16815260200190815260200160002060009054906101000a900460ff16151514610b9e576040517f08c379a0000000000000000000000000000000000000000000000000000000008152600401610b9590611a47565b60405180910390fd5b60005b60028381548110610bdb577f4e487b7100000000000000000000000000000000000000000000000000000000600052603260045260246000fd5b906000526020600020906004020160030180549050811015610d26573373ffffffffffffffffffffffffffffffffffffffff1660028481548110610c48577f4e487b7100000000000000000000000000000000000000000000000000000000600052603260045260246000fd5b90600052602060002090600402016003018281548110610c91577f4e487b7100000000000000000000000000000000000000000000000000000000600052603260045260246000fd5b9060005260206000200160009054906101000a900473ffffffffffffffffffffffffffffffffffffffff1673ffffffffffffffffffffffffffffffffffffffff161415610d13576040517f08c379a0000000000000000000000000000000000000000000000000000000008152600401610d0a90611a27565b60405180910390fd5b8080610d1e90611c13565b915050610ba1565b5060028281548110610d61577f4e487b7100000000000000000000000000000000000000000000000000000000600052603260045260246000fd5b9060005260206000209060040201600301339080600181540180825580915050600190039060005260206000200160009091909190916101000a81548173ffffffffffffffffffffffffffffffffffffffff021916908373ffffffffffffffffffffffffffffffffffffffff1602179055508015610e4157600160028381548110610e15577f4e487b7100000000000000000000000000000000000000000000000000000000600052603260045260246000fd5b90600052602060002090600402016000016000828254610e359190611b03565b92505081905550610ea5565b600160028381548110610e7d577f4e487b7100000000000000000000000000000000000000000000000000000000600052603260045260246000fd5b90600052602060002090600402016001016000828254610e9d9190611b03565b925050819055505b5050565b600115156000803373ffffffffffffffffffffffffffffffffffffffff1673ffffffffffffffffffffffffffffffffffffffff16815260200190815260200160002060009054906101000a900460ff16151514610f3b576040517f08c379a0000000000000000000000000000000000000000000000000000000008152600401610f3290611a47565b60405180910390fd5b600060018381548110610f77577f4e487b7100000000000000000000000000000000000000000000000000000000600052603260045260246000fd5b90600052602060002090600402016001015460018481548110610fc3577f4e487b7100000000000000000000000000000000000000000000000000000000600052603260045260246000fd5b906000526020600020906004020160000154610fdf9190611b03565b90506001838154811061101b577f4e487b7100000000000000000000000000000000000000000000000000000000600052603260045260246000fd5b90600052602060002090600402016001015460018481548110611067577f4e487b7100000000000000000000000000000000000000000000000000000000600052603260045260246000fd5b90600052602060002090600402016000015411156111a1576003548110156110c4576040517f08c379a00000000000000000000000000000000000000000000000000000000081526004016110bb90611a67565b60405180910390fd5b60008290508073ffffffffffffffffffffffffffffffffffffffff16639e7b8d616001868154811061111f577f4e487b7100000000000000000000000000000000000000000000000000000000600052603260045260246000fd5b906000526020600020906004020160020160009054906101000a900473ffffffffffffffffffffffffffffffffffffffff166040518263ffffffff1660e01b815260040161116d91906119ea565b600060405180830381600087803b15801561118757600080fd5b505af115801561119b573d6000803e3d6000fd5b50505050505b505050565b600115156000803373ffffffffffffffffffffffffffffffffffffffff1673ffffffffffffffffffffffffffffffffffffffff16815260200190815260200160002060009054906101000a900460ff16151514611238576040517f08c379a000000000000000000000000000000000000000000000000000000000815260040161122f90611a47565b60405180910390fd5b60005b60018381548110611275577f4e487b7100000000000000000000000000000000000000000000000000000000600052603260045260246000fd5b9060005260206000209060040201600301805490508110156113c0573373ffffffffffffffffffffffffffffffffffffffff16600184815481106112e2577f4e487b7100000000000000000000000000000000000000000000000000000000600052603260045260246000fd5b9060005260206000209060040201600301828154811061132b577f4e487b7100000000000000000000000000000000000000000000000000000000600052603260045260246000fd5b9060005260206000200160009054906101000a900473ffffffffffffffffffffffffffffffffffffffff1673ffffffffffffffffffffffffffffffffffffffff1614156113ad576040517f08c379a00000000000000000000000000000000000000000000000000000000081526004016113a490611a27565b60405180910390fd5b80806113b890611c13565b91505061123b565b50600182815481106113fb577f4e487b7100000000000000000000000000000000000000000000000000000000600052603260045260246000fd5b9060005260206000209060040201600301339080600181540180825580915050600190039060005260206000200160009091909190916101000a81548173ffffffffffffffffffffffffffffffffffffffff021916908373ffffffffffffffffffffffffffffffffffffffff16021790555080156114da5760018083815481106114ae577f4e487b7100000000000000000000000000000000000000000000000000000000600052603260045260246000fd5b906000526020600020906004020160000160008282546114ce9190611b03565b9250508190555061153d565b6001808381548110611515577f4e487b7100000000000000000000000000000000000000000000000000000000600052603260045260246000fd5b906000526020600020906004020160010160008282546115359190611b03565b925050819055505b5050565b600115156000803373ffffffffffffffffffffffffffffffffffffffff1673ffffffffffffffffffffffffffffffffffffffff16815260200190815260200160002060009054906101000a900460ff161515146115d3576040517f08c379a00000000000000000000000000000000000000000000000000000000081526004016115ca90611a47565b60405180910390fd5b60008190508073ffffffffffffffffffffffffffffffffffffffff1663ee74c6786040518163ffffffff1660e01b8152600401600060405180830381600087803b15801561162057600080fd5b505af1158015611634573d6000803e3d6000fd5b505050505050565b8280548282559060005260206000209081019282156116b5579160200282015b828111156116b45782518260006101000a81548173ffffffffffffffffffffffffffffffffffffffff021916908373ffffffffffffffffffffffffffffffffffffffff1602179055509160200191906001019061165c565b5b5090506116c2919061174c565b5090565b8280546116d290611bb0565b90600052602060002090601f0160209004810192826116f4576000855561173b565b82601f1061170d57805160ff191683800117855561173b565b8280016001018555821561173b579182015b8281111561173a57825182559160200191906001019061171f565b5b509050611748919061174c565b5090565b5b8082111561176557600081600090555060010161174d565b5090565b600061177c61177784611aac565b611a87565b90508281526020810184848401111561179457600080fd5b61179f848285611ba1565b509392505050565b6000813590506117b681611d9b565b92915050565b6000813590506117cb81611db2565b92915050565b600082601f8301126117e257600080fd5b81356117f2848260208601611769565b91505092915050565b60008135905061180a81611dc9565b92915050565b60006020828403121561182257600080fd5b6000611830848285016117a7565b91505092915050565b60006020828403121561184b57600080fd5b600082013567ffffffffffffffff81111561186557600080fd5b611871848285016117d1565b91505092915050565b6000806040838503121561188d57600080fd5b600061189b858286016117fb565b92505060206118ac858286016117a7565b9150509250929050565b600080604083850312156118c957600080fd5b60006118d7858286016117fb565b92505060206118e8858286016117bc565b9150509250929050565b6118fb81611b59565b82525050565b6000815461190e81611bb0565b6119188186611af2565b94506001821660008114611933576001811461194557611978565b60ff1983168652602086019350611978565b61194e85611add565b60005b8381101561197057815481890152600182019150602081019050611951565b808801955050505b50505092915050565b600061198e600d83611af2565b915061199982611cfa565b602082019050919050565b60006119b1602c83611af2565b91506119bc82611d23565b604082019050919050565b60006119d4601583611af2565b91506119df82611d72565b602082019050919050565b60006020820190506119ff60008301846118f2565b92915050565b60006020820190508181036000830152611a1f8184611901565b905092915050565b60006020820190508181036000830152611a4081611981565b9050919050565b60006020820190508181036000830152611a60816119a4565b9050919050565b60006020820190508181036000830152611a80816119c7565b9050919050565b6000611a91611aa2565b9050611a9d8282611be2565b919050565b6000604051905090565b600067ffffffffffffffff821115611ac757611ac6611cba565b5b611ad082611ce9565b9050602081019050919050565b60008190508160005260206000209050919050565b600082825260208201905092915050565b6000611b0e82611b97565b9150611b1983611b97565b9250827fffffffffffffffffffffffffffffffffffffffffffffffffffffffffffffffff03821115611b4e57611b4d611c5c565b5b828201905092915050565b6000611b6482611b77565b9050919050565b60008115159050919050565b600073ffffffffffffffffffffffffffffffffffffffff82169050919050565b6000819050919050565b82818337600083830152505050565b60006002820490506001821680611bc857607f821691505b60208210811415611bdc57611bdb611c8b565b5b50919050565b611beb82611ce9565b810181811067ffffffffffffffff82111715611c0a57611c09611cba565b5b80604052505050565b6000611c1e82611b97565b91507fffffffffffffffffffffffffffffffffffffffffffffffffffffffffffffffff821415611c5157611c50611c5c565b5b600182019050919050565b7f4e487b7100000000000000000000000000000000000000000000000000000000600052601160045260246000fd5b7f4e487b7100000000000000000000000000000000000000000000000000000000600052602260045260246000fd5b7f4e487b7100000000000000000000000000000000000000000000000000000000600052604160045260246000fd5b6000601f19601f8301169050919050565b7f616c726561647920766f74656400000000000000000000000000000000000000600082015250565b7f4f6e6c79206d656d62657273206f66207468652044414f2063616e20766f746560008201527f20616e642070726f706f73650000000000000000000000000000000000000000602082015250565b7f71756f72756d206973206e6f7420726561636865640000000000000000000000600082015250565b611da481611b59565b8114611daf57600080fd5b50565b611dbb81611b6b565b8114611dc657600080fd5b50565b611dd281611b97565b8114611ddd57600080fd5b5056fea264697066735822122063d7ade3c214f9844144a78d57e91cda40033b6e1797f7561fb7d8f96b2a186264736f6c63430008040033",
  "linkReferences": {},
  "deployedLinkReferences": {}
}