{
  "_format": "hh-sol-artifact-1",
  "contractName": "Dao",
  "sourceName": "contracts/Dao.sol",
  "abi": [
    {
      "inputs": [
        {
          "internalType": "address[]",
          "name": "daoVotersParameter",
          "type": "address[]"
        }
      ],
      "stateMutability": "nonpayable",
      "type": "constructor"
    },
    {
      "inputs": [
        {
          "internalType": "uint256",
          "name": "proposalId",
          "type": "uint256"
        }
      ],
      "name": "endVoteCandidate",
      "outputs": [],
      "stateMutability": "nonpayable",
      "type": "function"
    },
    {
      "inputs": [
        {
          "internalType": "uint256",
          "name": "proposalId",
          "type": "uint256"
        }
      ],
      "name": "endVoteVoter",
      "outputs": [],
      "stateMutability": "nonpayable",
      "type": "function"
    },
    {
      "inputs": [],
      "name": "endVotingSession",
      "outputs": [],
      "stateMutability": "nonpayable",
      "type": "function"
    },
    {
      "inputs": [
        {
          "internalType": "string",
          "name": "newCandidateDapp",
          "type": "string"
        }
      ],
      "name": "proposeCandidate",
      "outputs": [],
      "stateMutability": "nonpayable",
      "type": "function"
    },
    {
      "inputs": [
        {
          "internalType": "address",
          "name": "newVoterDapp",
          "type": "address"
        }
      ],
      "name": "proposeVoter",
      "outputs": [],
      "stateMutability": "nonpayable",
      "type": "function"
    },
    {
      "inputs": [
        {
          "internalType": "address",
          "name": "addr",
          "type": "address"
        }
      ],
      "name": "setVotingContractAddress",
      "outputs": [],
      "stateMutability": "nonpayable",
      "type": "function"
    },
    {
      "inputs": [],
      "name": "startRegisteringCandidates",
      "outputs": [],
      "stateMutability": "nonpayable",
      "type": "function"
    },
    {
      "inputs": [],
      "name": "startRegisteringVoters",
      "outputs": [],
      "stateMutability": "nonpayable",
      "type": "function"
    },
    {
      "inputs": [],
      "name": "startVotingSession",
      "outputs": [],
      "stateMutability": "nonpayable",
      "type": "function"
    },
    {
      "inputs": [],
      "name": "tallyVotes",
      "outputs": [
        {
          "internalType": "string",
          "name": "",
          "type": "string"
        }
      ],
      "stateMutability": "view",
      "type": "function"
    },
    {
      "inputs": [
        {
          "internalType": "uint256",
          "name": "proposalId",
          "type": "uint256"
        },
        {
          "internalType": "bool",
          "name": "vote",
          "type": "bool"
        }
      ],
      "name": "voteCandidateProposal",
      "outputs": [],
      "stateMutability": "nonpayable",
      "type": "function"
    },
    {
      "inputs": [
        {
          "internalType": "uint256",
          "name": "proposalId",
          "type": "uint256"
        },
        {
          "internalType": "bool",
          "name": "vote",
          "type": "bool"
        }
      ],
      "name": "voteVoterProposal",
      "outputs": [],
      "stateMutability": "nonpayable",
      "type": "function"
    }
  ],
  "bytecode": "0x60806040523480156200001157600080fd5b506040516200284638038062002846833981810160405281019062000037919062000228565b60005b8151811015620000f257600160008084848151811062000083577f4e487b7100000000000000000000000000000000000000000000000000000000600052603260045260246000fd5b602002602001015173ffffffffffffffffffffffffffffffffffffffff1673ffffffffffffffffffffffffffffffffffffffff16815260200190815260200160002060006101000a81548160ff0219169083151502179055508080620000e990620003ce565b9150506200003a565b506000600282516200010591906200041c565b14156200012857600281516200011c919062000322565b6003819055506200014d565b6002600182516200013a9190620002c5565b62000146919062000322565b6003819055505b6000600460146101000a81548160ff021916908315150217905550506200050c565b600062000186620001808462000296565b6200026d565b90508083825260208201905082856020860282011115620001a657600080fd5b60005b85811015620001da5781620001bf8882620001e4565b845260208401935060208301925050600181019050620001a9565b5050509392505050565b600081519050620001f581620004f2565b92915050565b600082601f8301126200020d57600080fd5b81516200021f8482602086016200016f565b91505092915050565b6000602082840312156200023b57600080fd5b600082015167ffffffffffffffff8111156200025657600080fd5b6200026484828501620001fb565b91505092915050565b6000620002796200028c565b905062000287828262000398565b919050565b6000604051905090565b600067ffffffffffffffff821115620002b457620002b3620004b2565b5b602082029050602081019050919050565b6000620002d2826200038e565b9150620002df836200038e565b9250827fffffffffffffffffffffffffffffffffffffffffffffffffffffffffffffffff0382111562000317576200031662000454565b5b828201905092915050565b60006200032f826200038e565b91506200033c836200038e565b9250826200034f576200034e62000483565b5b828204905092915050565b600062000367826200036e565b9050919050565b600073ffffffffffffffffffffffffffffffffffffffff82169050919050565b6000819050919050565b620003a382620004e1565b810181811067ffffffffffffffff82111715620003c557620003c4620004b2565b5b80604052505050565b6000620003db826200038e565b91507fffffffffffffffffffffffffffffffffffffffffffffffffffffffffffffffff82141562000411576200041062000454565b5b600182019050919050565b600062000429826200038e565b915062000436836200038e565b92508262000449576200044862000483565b5b828206905092915050565b7f4e487b7100000000000000000000000000000000000000000000000000000000600052601160045260246000fd5b7f4e487b7100000000000000000000000000000000000000000000000000000000600052601260045260246000fd5b7f4e487b7100000000000000000000000000000000000000000000000000000000600052604160045260246000fd5b6000601f19601f8301169050919050565b620004fd816200035a565b81146200050957600080fd5b50565b61232a806200051c6000396000f3fe608060405234801561001057600080fd5b50600436106100b45760003560e01c8063b7dea64711610071578063b7dea64714610151578063c3ce2a921461016d578063c8e999b814610177578063ee74c67814610181578063efa332f61461018b578063f167b080146101a7576100b4565b80630195a055146100b9578063378a2178146100d5578063531aab60146100f357806362b08e701461010f57806398ab48631461012b578063a7bfab1614610147575b600080fd5b6100d360048036038101906100ce9190611bcb565b6101c3565b005b6100dd6103a5565b6040516100ea9190611e4a565b60405180910390f35b61010d60048036038101906101089190611c76565b6104e9565b005b61012960048036038101906101249190611bcb565b6107e6565b005b61014560048036038101906101409190611bf4565b610927565b005b61014f610ac9565b005b61016b60048036038101906101669190611c9f565b610be5565b005b610175610f82565b005b61017f61109e565b005b6101896111ba565b005b6101a560048036038101906101a09190611c9f565b6112d6565b005b6101c160048036038101906101bc9190611c76565b611671565b005b600115156000803373ffffffffffffffffffffffffffffffffffffffff1673ffffffffffffffffffffffffffffffffffffffff16815260200190815260200160002060009054906101000a900460ff16151514610255576040517f08c379a000000000000000000000000000000000000000000000000000000000815260040161024c90611eae565b60405180910390fd5b6001604051806080016040528060008152602001600081526020018373ffffffffffffffffffffffffffffffffffffffff168152602001600067ffffffffffffffff8111156102cd577f4e487b7100000000000000000000000000000000000000000000000000000000600052604160045260246000fd5b6040519080825280602002602001820160405280156102fb5781602001602082028036833780820191505090505b508152509080600181540180825580915050600190039060005260206000209060040201600090919091909150600082015181600001556020820151816001015560408201518160020160006101000a81548173ffffffffffffffffffffffffffffffffffffffff021916908373ffffffffffffffffffffffffffffffffffffffff160217905550606082015181600301908051906020019061039f92919061198f565b50505050565b6060600115156000803373ffffffffffffffffffffffffffffffffffffffff1673ffffffffffffffffffffffffffffffffffffffff16815260200190815260200160002060009054906101000a900460ff16151514610439576040517f08c379a000000000000000000000000000000000000000000000000000000000815260040161043090611eae565b60405180910390fd5b6000600460009054906101000a900473ffffffffffffffffffffffffffffffffffffffff1690508073ffffffffffffffffffffffffffffffffffffffff1663378a21786040518163ffffffff1660e01b815260040160006040518083038186803b1580156104a657600080fd5b505afa1580156104ba573d6000803e3d6000fd5b505050506040513d6000823e3d601f19601f820116820180604052508101906104e39190611c35565b91505090565b600115156000803373ffffffffffffffffffffffffffffffffffffffff1673ffffffffffffffffffffffffffffffffffffffff16815260200190815260200160002060009054906101000a900460ff1615151461057b576040517f08c379a000000000000000000000000000000000000000000000000000000000815260040161057290611eae565b60405180910390fd5b6000600282815481106105b7577f4e487b7100000000000000000000000000000000000000000000000000000000600052603260045260246000fd5b90600052602060002090600402016001015460028381548110610603577f4e487b7100000000000000000000000000000000000000000000000000000000600052603260045260246000fd5b90600052602060002090600402016000015461061f9190611f95565b90506002828154811061065b577f4e487b7100000000000000000000000000000000000000000000000000000000600052603260045260246000fd5b906000526020600020906004020160010154600283815481106106a7577f4e487b7100000000000000000000000000000000000000000000000000000000600052603260045260246000fd5b90600052602060002090600402016000015411156107e257600354811015610704576040517f08c379a00000000000000000000000000000000000000000000000000000000081526004016106fb90611eee565b60405180910390fd5b6000600460009054906101000a900473ffffffffffffffffffffffffffffffffffffffff1690508073ffffffffffffffffffffffffffffffffffffffff16639eb88db660028581548110610781577f4e487b7100000000000000000000000000000000000000000000000000000000600052603260045260246000fd5b90600052602060002090600402016002016040518263ffffffff1660e01b81526004016107ae9190611e6c565b600060405180830381600087803b1580156107c857600080fd5b505af11580156107dc573d6000803e3d6000fd5b50505050505b5050565b600115156000803373ffffffffffffffffffffffffffffffffffffffff1673ffffffffffffffffffffffffffffffffffffffff16815260200190815260200160002060009054906101000a900460ff16151514610878576040517f08c379a000000000000000000000000000000000000000000000000000000000815260040161086f90611eae565b60405180910390fd5b600460149054906101000a900460ff16156108c8576040517f08c379a00000000000000000000000000000000000000000000000000000000081526004016108bf90611ece565b60405180910390fd5b6001600460146101000a81548160ff02191690831515021790555080600460006101000a81548173ffffffffffffffffffffffffffffffffffffffff021916908373ffffffffffffffffffffffffffffffffffffffff16021790555050565b600115156000803373ffffffffffffffffffffffffffffffffffffffff1673ffffffffffffffffffffffffffffffffffffffff16815260200190815260200160002060009054906101000a900460ff161515146109b9576040517f08c379a00000000000000000000000000000000000000000000000000000000081526004016109b090611eae565b60405180910390fd5b600260405180608001604052806000815260200160008152602001838152602001600067ffffffffffffffff811115610a1b577f4e487b7100000000000000000000000000000000000000000000000000000000600052604160045260246000fd5b604051908082528060200260200182016040528015610a495781602001602082028036833780820191505090505b50815250908060018154018082558091505060019003906000526020600020906004020160009091909190915060008201518160000155602082015181600101556040820151816002019080519060200190610aa6929190611a19565b506060820151816003019080519060200190610ac392919061198f565b50505050565b600115156000803373ffffffffffffffffffffffffffffffffffffffff1673ffffffffffffffffffffffffffffffffffffffff16815260200190815260200160002060009054906101000a900460ff16151514610b5b576040517f08c379a0000000000000000000000000000000000000000000000000000000008152600401610b5290611eae565b60405180910390fd5b6000600460009054906101000a900473ffffffffffffffffffffffffffffffffffffffff1690508073ffffffffffffffffffffffffffffffffffffffff1663a7bfab166040518163ffffffff1660e01b8152600401600060405180830381600087803b158015610bca57600080fd5b505af1158015610bde573d6000803e3d6000fd5b5050505050565b600115156000803373ffffffffffffffffffffffffffffffffffffffff1673ffffffffffffffffffffffffffffffffffffffff16815260200190815260200160002060009054906101000a900460ff16151514610c77576040517f08c379a0000000000000000000000000000000000000000000000000000000008152600401610c6e90611eae565b60405180910390fd5b60005b60028381548110610cb4577f4e487b7100000000000000000000000000000000000000000000000000000000600052603260045260246000fd5b906000526020600020906004020160030180549050811015610dff573373ffffffffffffffffffffffffffffffffffffffff1660028481548110610d21577f4e487b7100000000000000000000000000000000000000000000000000000000600052603260045260246000fd5b90600052602060002090600402016003018281548110610d6a577f4e487b7100000000000000000000000000000000000000000000000000000000600052603260045260246000fd5b9060005260206000200160009054906101000a900473ffffffffffffffffffffffffffffffffffffffff1673ffffffffffffffffffffffffffffffffffffffff161415610dec576040517f08c379a0000000000000000000000000000000000000000000000000000000008152600401610de390611e8e565b60405180910390fd5b8080610df7906120d8565b915050610c7a565b5060028281548110610e3a577f4e487b7100000000000000000000000000000000000000000000000000000000600052603260045260246000fd5b9060005260206000209060040201600301339080600181540180825580915050600190039060005260206000200160009091909190916101000a81548173ffffffffffffffffffffffffffffffffffffffff021916908373ffffffffffffffffffffffffffffffffffffffff1602179055508015610f1a57600160028381548110610eee577f4e487b7100000000000000000000000000000000000000000000000000000000600052603260045260246000fd5b90600052602060002090600402016000016000828254610f0e9190611f95565b92505081905550610f7e565b600160028381548110610f56577f4e487b7100000000000000000000000000000000000000000000000000000000600052603260045260246000fd5b90600052602060002090600402016001016000828254610f769190611f95565b925050819055505b5050565b600115156000803373ffffffffffffffffffffffffffffffffffffffff1673ffffffffffffffffffffffffffffffffffffffff16815260200190815260200160002060009054906101000a900460ff16151514611014576040517f08c379a000000000000000000000000000000000000000000000000000000000815260040161100b90611eae565b60405180910390fd5b6000600460009054906101000a900473ffffffffffffffffffffffffffffffffffffffff1690508073ffffffffffffffffffffffffffffffffffffffff1663c3ce2a926040518163ffffffff1660e01b8152600401600060405180830381600087803b15801561108357600080fd5b505af1158015611097573d6000803e3d6000fd5b5050505050565b600115156000803373ffffffffffffffffffffffffffffffffffffffff1673ffffffffffffffffffffffffffffffffffffffff16815260200190815260200160002060009054906101000a900460ff16151514611130576040517f08c379a000000000000000000000000000000000000000000000000000000000815260040161112790611eae565b60405180910390fd5b6000600460009054906101000a900473ffffffffffffffffffffffffffffffffffffffff1690508073ffffffffffffffffffffffffffffffffffffffff1663c8e999b86040518163ffffffff1660e01b8152600401600060405180830381600087803b15801561119f57600080fd5b505af11580156111b3573d6000803e3d6000fd5b5050505050565b600115156000803373ffffffffffffffffffffffffffffffffffffffff1673ffffffffffffffffffffffffffffffffffffffff16815260200190815260200160002060009054906101000a900460ff1615151461124c576040517f08c379a000000000000000000000000000000000000000000000000000000000815260040161124390611eae565b60405180910390fd5b6000600460009054906101000a900473ffffffffffffffffffffffffffffffffffffffff1690508073ffffffffffffffffffffffffffffffffffffffff1663ee74c6786040518163ffffffff1660e01b8152600401600060405180830381600087803b1580156112bb57600080fd5b505af11580156112cf573d6000803e3d6000fd5b5050505050565b600115156000803373ffffffffffffffffffffffffffffffffffffffff1673ffffffffffffffffffffffffffffffffffffffff16815260200190815260200160002060009054906101000a900460ff16151514611368576040517f08c379a000000000000000000000000000000000000000000000000000000000815260040161135f90611eae565b60405180910390fd5b60005b600183815481106113a5577f4e487b7100000000000000000000000000000000000000000000000000000000600052603260045260246000fd5b9060005260206000209060040201600301805490508110156114f0573373ffffffffffffffffffffffffffffffffffffffff1660018481548110611412577f4e487b7100000000000000000000000000000000000000000000000000000000600052603260045260246000fd5b9060005260206000209060040201600301828154811061145b577f4e487b7100000000000000000000000000000000000000000000000000000000600052603260045260246000fd5b9060005260206000200160009054906101000a900473ffffffffffffffffffffffffffffffffffffffff1673ffffffffffffffffffffffffffffffffffffffff1614156114dd576040517f08c379a00000000000000000000000000000000000000000000000000000000081526004016114d490611e8e565b60405180910390fd5b80806114e8906120d8565b91505061136b565b506001828154811061152b577f4e487b7100000000000000000000000000000000000000000000000000000000600052603260045260246000fd5b9060005260206000209060040201600301339080600181540180825580915050600190039060005260206000200160009091909190916101000a81548173ffffffffffffffffffffffffffffffffffffffff021916908373ffffffffffffffffffffffffffffffffffffffff160217905550801561160a5760018083815481106115de577f4e487b7100000000000000000000000000000000000000000000000000000000600052603260045260246000fd5b906000526020600020906004020160000160008282546115fe9190611f95565b9250508190555061166d565b6001808381548110611645577f4e487b7100000000000000000000000000000000000000000000000000000000600052603260045260246000fd5b906000526020600020906004020160010160008282546116659190611f95565b925050819055505b5050565b600115156000803373ffffffffffffffffffffffffffffffffffffffff1673ffffffffffffffffffffffffffffffffffffffff16815260200190815260200160002060009054906101000a900460ff16151514611703576040517f08c379a00000000000000000000000000000000000000000000000000000000081526004016116fa90611eae565b60405180910390fd5b60006001828154811061173f577f4e487b7100000000000000000000000000000000000000000000000000000000600052603260045260246000fd5b9060005260206000209060040201600101546001838154811061178b577f4e487b7100000000000000000000000000000000000000000000000000000000600052603260045260246000fd5b9060005260206000209060040201600001546117a79190611f95565b9050600182815481106117e3577f4e487b7100000000000000000000000000000000000000000000000000000000600052603260045260246000fd5b9060005260206000209060040201600101546001838154811061182f577f4e487b7100000000000000000000000000000000000000000000000000000000600052603260045260246000fd5b906000526020600020906004020160000154111561198b5760035481101561188c576040517f08c379a000000000000000000000000000000000000000000000000000000000815260040161188390611eee565b60405180910390fd5b6000600460009054906101000a900473ffffffffffffffffffffffffffffffffffffffff1690508073ffffffffffffffffffffffffffffffffffffffff16639e7b8d6160018581548110611909577f4e487b7100000000000000000000000000000000000000000000000000000000600052603260045260246000fd5b906000526020600020906004020160020160009054906101000a900473ffffffffffffffffffffffffffffffffffffffff166040518263ffffffff1660e01b81526004016119579190611e2f565b600060405180830381600087803b15801561197157600080fd5b505af1158015611985573d6000803e3d6000fd5b50505050505b5050565b828054828255906000526020600020908101928215611a08579160200282015b82811115611a075782518260006101000a81548173ffffffffffffffffffffffffffffffffffffffff021916908373ffffffffffffffffffffffffffffffffffffffff160217905550916020019190600101906119af565b5b509050611a159190611a9f565b5090565b828054611a2590612075565b90600052602060002090601f016020900481019282611a475760008555611a8e565b82601f10611a6057805160ff1916838001178555611a8e565b82800160010185558215611a8e579182015b82811115611a8d578251825591602001919060010190611a72565b5b509050611a9b9190611a9f565b5090565b5b80821115611ab8576000816000905550600101611aa0565b5090565b6000611acf611aca84611f33565b611f0e565b905082815260208101848484011115611ae757600080fd5b611af2848285612033565b509392505050565b6000611b0d611b0884611f33565b611f0e565b905082815260208101848484011115611b2557600080fd5b611b30848285612042565b509392505050565b600081359050611b47816122af565b92915050565b600081359050611b5c816122c6565b92915050565b600082601f830112611b7357600080fd5b8135611b83848260208601611abc565b91505092915050565b600082601f830112611b9d57600080fd5b8151611bad848260208601611afa565b91505092915050565b600081359050611bc5816122dd565b92915050565b600060208284031215611bdd57600080fd5b6000611beb84828501611b38565b91505092915050565b600060208284031215611c0657600080fd5b600082013567ffffffffffffffff811115611c2057600080fd5b611c2c84828501611b62565b91505092915050565b600060208284031215611c4757600080fd5b600082015167ffffffffffffffff811115611c6157600080fd5b611c6d84828501611b8c565b91505092915050565b600060208284031215611c8857600080fd5b6000611c9684828501611bb6565b91505092915050565b60008060408385031215611cb257600080fd5b6000611cc085828601611bb6565b9250506020611cd185828601611b4d565b9150509250929050565b611ce481611feb565b82525050565b6000611cf582611f79565b611cff8185611f84565b9350611d0f818560208601612042565b611d18816121ae565b840191505092915050565b60008154611d3081612075565b611d3a8186611f84565b94506001821660008114611d555760018114611d6757611d9a565b60ff1983168652602086019350611d9a565b611d7085611f64565b60005b83811015611d9257815481890152600182019150602081019050611d73565b808801955050505b50505092915050565b6000611db0600d83611f84565b9150611dbb826121bf565b602082019050919050565b6000611dd3602c83611f84565b9150611dde826121e8565b604082019050919050565b6000611df6603783611f84565b9150611e0182612237565b604082019050919050565b6000611e19601583611f84565b9150611e2482612286565b602082019050919050565b6000602082019050611e446000830184611cdb565b92915050565b60006020820190508181036000830152611e648184611cea565b905092915050565b60006020820190508181036000830152611e868184611d23565b905092915050565b60006020820190508181036000830152611ea781611da3565b9050919050565b60006020820190508181036000830152611ec781611dc6565b9050919050565b60006020820190508181036000830152611ee781611de9565b9050919050565b60006020820190508181036000830152611f0781611e0c565b9050919050565b6000611f18611f29565b9050611f2482826120a7565b919050565b6000604051905090565b600067ffffffffffffffff821115611f4e57611f4d61217f565b5b611f57826121ae565b9050602081019050919050565b60008190508160005260206000209050919050565b600081519050919050565b600082825260208201905092915050565b6000611fa082612029565b9150611fab83612029565b9250827fffffffffffffffffffffffffffffffffffffffffffffffffffffffffffffffff03821115611fe057611fdf612121565b5b828201905092915050565b6000611ff682612009565b9050919050565b60008115159050919050565b600073ffffffffffffffffffffffffffffffffffffffff82169050919050565b6000819050919050565b82818337600083830152505050565b60005b83811015612060578082015181840152602081019050612045565b8381111561206f576000848401525b50505050565b6000600282049050600182168061208d57607f821691505b602082108114156120a1576120a0612150565b5b50919050565b6120b0826121ae565b810181811067ffffffffffffffff821117156120cf576120ce61217f565b5b80604052505050565b60006120e382612029565b91507fffffffffffffffffffffffffffffffffffffffffffffffffffffffffffffffff82141561211657612115612121565b5b600182019050919050565b7f4e487b7100000000000000000000000000000000000000000000000000000000600052601160045260246000fd5b7f4e487b7100000000000000000000000000000000000000000000000000000000600052602260045260246000fd5b7f4e487b7100000000000000000000000000000000000000000000000000000000600052604160045260246000fd5b6000601f19601f8301169050919050565b7f616c726561647920766f74656400000000000000000000000000000000000000600082015250565b7f4f6e6c79206d656d62657273206f66207468652044414f2063616e20766f746560008201527f20616e642070726f706f73650000000000000000000000000000000000000000602082015250565b7f5468652061646472657373206f662074686520766f74696e6720636f6e74726160008201527f63742063616e20626520736574206f6e6c79206f6e6365000000000000000000602082015250565b7f71756f72756d206973206e6f7420726561636865640000000000000000000000600082015250565b6122b881611feb565b81146122c357600080fd5b50565b6122cf81611ffd565b81146122da57600080fd5b50565b6122e681612029565b81146122f157600080fd5b5056fea264697066735822122031aa56b64c7e174efd2754c98cc91d8c3e63b809379d75ccbd6546cda2f85a9f64736f6c63430008040033",
  "linkReferences": {},
  "deployedLinkReferences": {}
}