{
  "_format": "hh-sol-artifact-1",
  "contractName": "Dao",
  "sourceName": "contracts/Dao.sol",
  "abi": [
    {
      "inputs": [
        {
          "internalType": "address[]",
          "name": "daoVotersParameter",
          "type": "address[]"
        }
      ],
      "stateMutability": "nonpayable",
      "type": "constructor"
    },
    {
      "inputs": [
        {
          "internalType": "uint256",
          "name": "proposalId",
          "type": "uint256"
        },
        {
          "internalType": "address",
          "name": "dappContract",
          "type": "address"
        }
      ],
      "name": "endVoteCandidate",
      "outputs": [],
      "stateMutability": "nonpayable",
      "type": "function"
    },
    {
      "inputs": [
        {
          "internalType": "uint256",
          "name": "proposalId",
          "type": "uint256"
        },
        {
          "internalType": "address",
          "name": "dappContract",
          "type": "address"
        }
      ],
      "name": "endVoteVoter",
      "outputs": [],
      "stateMutability": "nonpayable",
      "type": "function"
    },
    {
      "inputs": [
        {
          "internalType": "address",
          "name": "dappContract",
          "type": "address"
        }
      ],
      "name": "endVotingSession",
      "outputs": [
        {
          "internalType": "string",
          "name": "winnerName",
          "type": "string"
        }
      ],
      "stateMutability": "nonpayable",
      "type": "function"
    },
    {
      "inputs": [],
      "name": "getTest",
      "outputs": [
        {
          "internalType": "string",
          "name": "",
          "type": "string"
        }
      ],
      "stateMutability": "view",
      "type": "function"
    },
    {
      "inputs": [
        {
          "internalType": "string",
          "name": "newCandidateDapp",
          "type": "string"
        }
      ],
      "name": "proposeCandidate",
      "outputs": [],
      "stateMutability": "nonpayable",
      "type": "function"
    },
    {
      "inputs": [
        {
          "internalType": "address",
          "name": "newVoterDapp",
          "type": "address"
        }
      ],
      "name": "proposeVoter",
      "outputs": [],
      "stateMutability": "nonpayable",
      "type": "function"
    },
    {
      "inputs": [
        {
          "internalType": "address",
          "name": "dappContract",
          "type": "address"
        }
      ],
      "name": "startRegisteringCandidates",
      "outputs": [],
      "stateMutability": "nonpayable",
      "type": "function"
    },
    {
      "inputs": [
        {
          "internalType": "address",
          "name": "dappContract",
          "type": "address"
        }
      ],
      "name": "startRegisteringVoters",
      "outputs": [],
      "stateMutability": "nonpayable",
      "type": "function"
    },
    {
      "inputs": [
        {
          "internalType": "address",
          "name": "dappContract",
          "type": "address"
        }
      ],
      "name": "startVotingSession",
      "outputs": [],
      "stateMutability": "nonpayable",
      "type": "function"
    },
    {
      "inputs": [
        {
          "internalType": "uint256",
          "name": "proposalId",
          "type": "uint256"
        },
        {
          "internalType": "bool",
          "name": "vote",
          "type": "bool"
        }
      ],
      "name": "voteCandidateProposal",
      "outputs": [],
      "stateMutability": "nonpayable",
      "type": "function"
    },
    {
      "inputs": [
        {
          "internalType": "uint256",
          "name": "proposalId",
          "type": "uint256"
        },
        {
          "internalType": "bool",
          "name": "vote",
          "type": "bool"
        }
      ],
      "name": "voteVoterProposal",
      "outputs": [],
      "stateMutability": "nonpayable",
      "type": "function"
    }
  ],
  "bytecode": "0x60806040526040518060400160405280600481526020017f6369616f000000000000000000000000000000000000000000000000000000008152506004908051906020019062000051929190620001a2565b503480156200005f57600080fd5b50604051620027143803806200271483398181016040528101906200008591906200030b565b60005b815181101562000140576001600080848481518110620000d1577f4e487b7100000000000000000000000000000000000000000000000000000000600052603260045260246000fd5b602002602001015173ffffffffffffffffffffffffffffffffffffffff1673ffffffffffffffffffffffffffffffffffffffff16815260200190815260200160002060006101000a81548160ff02191690831515021790555080806200013790620004e7565b91505062000088565b5060006002825162000153919062000535565b14156200017657600281516200016a919062000405565b6003819055506200019b565b600260018251620001889190620003a8565b62000194919062000405565b6003819055505b5062000654565b828054620001b0906200047b565b90600052602060002090601f016020900481019282620001d4576000855562000220565b82601f10620001ef57805160ff191683800117855562000220565b8280016001018555821562000220579182015b828111156200021f57825182559160200191906001019062000202565b5b5090506200022f919062000233565b5090565b5b808211156200024e57600081600090555060010162000234565b5090565b600062000269620002638462000379565b62000350565b905080838252602082019050828560208602820111156200028957600080fd5b60005b85811015620002bd5781620002a28882620002c7565b8452602084019350602083019250506001810190506200028c565b5050509392505050565b600081519050620002d8816200063a565b92915050565b600082601f830112620002f057600080fd5b81516200030284826020860162000252565b91505092915050565b6000602082840312156200031e57600080fd5b600082015167ffffffffffffffff8111156200033957600080fd5b6200034784828501620002de565b91505092915050565b60006200035c6200036f565b90506200036a8282620004b1565b919050565b6000604051905090565b600067ffffffffffffffff821115620003975762000396620005fa565b5b602082029050602081019050919050565b6000620003b58262000471565b9150620003c28362000471565b9250827fffffffffffffffffffffffffffffffffffffffffffffffffffffffffffffffff03821115620003fa57620003f96200056d565b5b828201905092915050565b6000620004128262000471565b91506200041f8362000471565b9250826200043257620004316200059c565b5b828204905092915050565b60006200044a8262000451565b9050919050565b600073ffffffffffffffffffffffffffffffffffffffff82169050919050565b6000819050919050565b600060028204905060018216806200049457607f821691505b60208210811415620004ab57620004aa620005cb565b5b50919050565b620004bc8262000629565b810181811067ffffffffffffffff82111715620004de57620004dd620005fa565b5b80604052505050565b6000620004f48262000471565b91507fffffffffffffffffffffffffffffffffffffffffffffffffffffffffffffffff8214156200052a57620005296200056d565b5b600182019050919050565b6000620005428262000471565b91506200054f8362000471565b9250826200056257620005616200059c565b5b828206905092915050565b7f4e487b7100000000000000000000000000000000000000000000000000000000600052601160045260246000fd5b7f4e487b7100000000000000000000000000000000000000000000000000000000600052601260045260246000fd5b7f4e487b7100000000000000000000000000000000000000000000000000000000600052602260045260246000fd5b7f4e487b7100000000000000000000000000000000000000000000000000000000600052604160045260246000fd5b6000601f19601f8301169050919050565b62000645816200043d565b81146200065157600080fd5b50565b6120b080620006646000396000f3fe608060405234801561001057600080fd5b50600436106100a95760003560e01c806398ab48631161007157806398ab48631461014e578063a8cd0a801461016a578063b7dea64714610188578063d664666f146101a4578063efa332f6146101c0578063fe9233c1146101dc576100a9565b80630195a055146100ae57806318d264f4146100ca5780636919794a146100fa5780639022c0351461011657806391af9f3e14610132575b600080fd5b6100c860048036038101906100c391906119d0565b6101f8565b005b6100e460048036038101906100df91906119d0565b6103da565b6040516100f19190611c3f565b60405180910390f35b610114600480360381019061010f91906119d0565b61055e565b005b610130600480360381019061012b9190611a7b565b610659565b005b61014c600480360381019061014791906119d0565b610935565b005b610168600480360381019061016391906119f9565b610a30565b005b610172610bd2565b60405161017f9190611c3f565b60405180910390f35b6101a2600480360381019061019d9190611ab7565b610c64565b005b6101be60048036038101906101b99190611a7b565b611001565b005b6101da60048036038101906101d59190611ab7565b6112fe565b005b6101f660048036038101906101f191906119d0565b611699565b005b600115156000803373ffffffffffffffffffffffffffffffffffffffff1673ffffffffffffffffffffffffffffffffffffffff16815260200190815260200160002060009054906101000a900460ff1615151461028a576040517f08c379a000000000000000000000000000000000000000000000000000000000815260040161028190611ca3565b60405180910390fd5b6001604051806080016040528060008152602001600081526020018373ffffffffffffffffffffffffffffffffffffffff168152602001600067ffffffffffffffff811115610302577f4e487b7100000000000000000000000000000000000000000000000000000000600052604160045260246000fd5b6040519080825280602002602001820160405280156103305781602001602082028036833780820191505090505b508152509080600181540180825580915050600190039060005260206000209060040201600090919091909150600082015181600001556020820151816001015560408201518160020160006101000a81548173ffffffffffffffffffffffffffffffffffffffff021916908373ffffffffffffffffffffffffffffffffffffffff16021790555060608201518160030190805190602001906103d4929190611794565b50505050565b6060600115156000803373ffffffffffffffffffffffffffffffffffffffff1673ffffffffffffffffffffffffffffffffffffffff16815260200190815260200160002060009054906101000a900460ff1615151461046e576040517f08c379a000000000000000000000000000000000000000000000000000000000815260040161046590611ca3565b60405180910390fd5b60008290508073ffffffffffffffffffffffffffffffffffffffff1663a7bfab166040518163ffffffff1660e01b8152600401600060405180830381600087803b1580156104bb57600080fd5b505af11580156104cf573d6000803e3d6000fd5b505050508073ffffffffffffffffffffffffffffffffffffffff1663378a21786040518163ffffffff1660e01b815260040160006040518083038186803b15801561051957600080fd5b505afa15801561052d573d6000803e3d6000fd5b505050506040513d6000823e3d601f19601f820116820180604052508101906105569190611a3a565b915050919050565b600115156000803373ffffffffffffffffffffffffffffffffffffffff1673ffffffffffffffffffffffffffffffffffffffff16815260200190815260200160002060009054906101000a900460ff161515146105f0576040517f08c379a00000000000000000000000000000000000000000000000000000000081526004016105e790611ca3565b60405180910390fd5b60008190508073ffffffffffffffffffffffffffffffffffffffff1663c8e999b86040518163ffffffff1660e01b8152600401600060405180830381600087803b15801561063d57600080fd5b505af1158015610651573d6000803e3d6000fd5b505050505050565b600115156000803373ffffffffffffffffffffffffffffffffffffffff1673ffffffffffffffffffffffffffffffffffffffff16815260200190815260200160002060009054906101000a900460ff161515146106eb576040517f08c379a00000000000000000000000000000000000000000000000000000000081526004016106e290611ca3565b60405180910390fd5b600060028381548110610727577f4e487b7100000000000000000000000000000000000000000000000000000000600052603260045260246000fd5b90600052602060002090600402016001015460028481548110610773577f4e487b7100000000000000000000000000000000000000000000000000000000600052603260045260246000fd5b90600052602060002090600402016000015461078f9190611d6a565b9050600283815481106107cb577f4e487b7100000000000000000000000000000000000000000000000000000000600052603260045260246000fd5b90600052602060002090600402016001015460028481548110610817577f4e487b7100000000000000000000000000000000000000000000000000000000600052603260045260246000fd5b906000526020600020906004020160000154111561093057600354811015610874576040517f08c379a000000000000000000000000000000000000000000000000000000000815260040161086b90611cc3565b60405180910390fd5b60008290508073ffffffffffffffffffffffffffffffffffffffff16639eb88db6600286815481106108cf577f4e487b7100000000000000000000000000000000000000000000000000000000600052603260045260246000fd5b90600052602060002090600402016002016040518263ffffffff1660e01b81526004016108fc9190611c61565b600060405180830381600087803b15801561091657600080fd5b505af115801561092a573d6000803e3d6000fd5b50505050505b505050565b600115156000803373ffffffffffffffffffffffffffffffffffffffff1673ffffffffffffffffffffffffffffffffffffffff16815260200190815260200160002060009054906101000a900460ff161515146109c7576040517f08c379a00000000000000000000000000000000000000000000000000000000081526004016109be90611ca3565b60405180910390fd5b60008190508073ffffffffffffffffffffffffffffffffffffffff1663c3ce2a926040518163ffffffff1660e01b8152600401600060405180830381600087803b158015610a1457600080fd5b505af1158015610a28573d6000803e3d6000fd5b505050505050565b600115156000803373ffffffffffffffffffffffffffffffffffffffff1673ffffffffffffffffffffffffffffffffffffffff16815260200190815260200160002060009054906101000a900460ff16151514610ac2576040517f08c379a0000000000000000000000000000000000000000000000000000000008152600401610ab990611ca3565b60405180910390fd5b600260405180608001604052806000815260200160008152602001838152602001600067ffffffffffffffff811115610b24577f4e487b7100000000000000000000000000000000000000000000000000000000600052604160045260246000fd5b604051908082528060200260200182016040528015610b525781602001602082028036833780820191505090505b50815250908060018154018082558091505060019003906000526020600020906004020160009091909190915060008201518160000155602082015181600101556040820151816002019080519060200190610baf92919061181e565b506060820151816003019080519060200190610bcc929190611794565b50505050565b606060048054610be190611e4a565b80601f0160208091040260200160405190810160405280929190818152602001828054610c0d90611e4a565b8015610c5a5780601f10610c2f57610100808354040283529160200191610c5a565b820191906000526020600020905b815481529060010190602001808311610c3d57829003601f168201915b5050505050905090565b600115156000803373ffffffffffffffffffffffffffffffffffffffff1673ffffffffffffffffffffffffffffffffffffffff16815260200190815260200160002060009054906101000a900460ff16151514610cf6576040517f08c379a0000000000000000000000000000000000000000000000000000000008152600401610ced90611ca3565b60405180910390fd5b60005b60028381548110610d33577f4e487b7100000000000000000000000000000000000000000000000000000000600052603260045260246000fd5b906000526020600020906004020160030180549050811015610e7e573373ffffffffffffffffffffffffffffffffffffffff1660028481548110610da0577f4e487b7100000000000000000000000000000000000000000000000000000000600052603260045260246000fd5b90600052602060002090600402016003018281548110610de9577f4e487b7100000000000000000000000000000000000000000000000000000000600052603260045260246000fd5b9060005260206000200160009054906101000a900473ffffffffffffffffffffffffffffffffffffffff1673ffffffffffffffffffffffffffffffffffffffff161415610e6b576040517f08c379a0000000000000000000000000000000000000000000000000000000008152600401610e6290611c83565b60405180910390fd5b8080610e7690611ead565b915050610cf9565b5060028281548110610eb9577f4e487b7100000000000000000000000000000000000000000000000000000000600052603260045260246000fd5b9060005260206000209060040201600301339080600181540180825580915050600190039060005260206000200160009091909190916101000a81548173ffffffffffffffffffffffffffffffffffffffff021916908373ffffffffffffffffffffffffffffffffffffffff1602179055508015610f9957600160028381548110610f6d577f4e487b7100000000000000000000000000000000000000000000000000000000600052603260045260246000fd5b90600052602060002090600402016000016000828254610f8d9190611d6a565b92505081905550610ffd565b600160028381548110610fd5577f4e487b7100000000000000000000000000000000000000000000000000000000600052603260045260246000fd5b90600052602060002090600402016001016000828254610ff59190611d6a565b925050819055505b5050565b600115156000803373ffffffffffffffffffffffffffffffffffffffff1673ffffffffffffffffffffffffffffffffffffffff16815260200190815260200160002060009054906101000a900460ff16151514611093576040517f08c379a000000000000000000000000000000000000000000000000000000000815260040161108a90611ca3565b60405180910390fd5b6000600183815481106110cf577f4e487b7100000000000000000000000000000000000000000000000000000000600052603260045260246000fd5b9060005260206000209060040201600101546001848154811061111b577f4e487b7100000000000000000000000000000000000000000000000000000000600052603260045260246000fd5b9060005260206000209060040201600001546111379190611d6a565b905060018381548110611173577f4e487b7100000000000000000000000000000000000000000000000000000000600052603260045260246000fd5b906000526020600020906004020160010154600184815481106111bf577f4e487b7100000000000000000000000000000000000000000000000000000000600052603260045260246000fd5b90600052602060002090600402016000015411156112f95760035481101561121c576040517f08c379a000000000000000000000000000000000000000000000000000000000815260040161121390611cc3565b60405180910390fd5b60008290508073ffffffffffffffffffffffffffffffffffffffff16639e7b8d6160018681548110611277577f4e487b7100000000000000000000000000000000000000000000000000000000600052603260045260246000fd5b906000526020600020906004020160020160009054906101000a900473ffffffffffffffffffffffffffffffffffffffff166040518263ffffffff1660e01b81526004016112c59190611c24565b600060405180830381600087803b1580156112df57600080fd5b505af11580156112f3573d6000803e3d6000fd5b50505050505b505050565b600115156000803373ffffffffffffffffffffffffffffffffffffffff1673ffffffffffffffffffffffffffffffffffffffff16815260200190815260200160002060009054906101000a900460ff16151514611390576040517f08c379a000000000000000000000000000000000000000000000000000000000815260040161138790611ca3565b60405180910390fd5b60005b600183815481106113cd577f4e487b7100000000000000000000000000000000000000000000000000000000600052603260045260246000fd5b906000526020600020906004020160030180549050811015611518573373ffffffffffffffffffffffffffffffffffffffff166001848154811061143a577f4e487b7100000000000000000000000000000000000000000000000000000000600052603260045260246000fd5b90600052602060002090600402016003018281548110611483577f4e487b7100000000000000000000000000000000000000000000000000000000600052603260045260246000fd5b9060005260206000200160009054906101000a900473ffffffffffffffffffffffffffffffffffffffff1673ffffffffffffffffffffffffffffffffffffffff161415611505576040517f08c379a00000000000000000000000000000000000000000000000000000000081526004016114fc90611c83565b60405180910390fd5b808061151090611ead565b915050611393565b5060018281548110611553577f4e487b7100000000000000000000000000000000000000000000000000000000600052603260045260246000fd5b9060005260206000209060040201600301339080600181540180825580915050600190039060005260206000200160009091909190916101000a81548173ffffffffffffffffffffffffffffffffffffffff021916908373ffffffffffffffffffffffffffffffffffffffff1602179055508015611632576001808381548110611606577f4e487b7100000000000000000000000000000000000000000000000000000000600052603260045260246000fd5b906000526020600020906004020160000160008282546116269190611d6a565b92505081905550611695565b600180838154811061166d577f4e487b7100000000000000000000000000000000000000000000000000000000600052603260045260246000fd5b9060005260206000209060040201600101600082825461168d9190611d6a565b925050819055505b5050565b600115156000803373ffffffffffffffffffffffffffffffffffffffff1673ffffffffffffffffffffffffffffffffffffffff16815260200190815260200160002060009054906101000a900460ff1615151461172b576040517f08c379a000000000000000000000000000000000000000000000000000000000815260040161172290611ca3565b60405180910390fd5b60008190508073ffffffffffffffffffffffffffffffffffffffff1663ee74c6786040518163ffffffff1660e01b8152600401600060405180830381600087803b15801561177857600080fd5b505af115801561178c573d6000803e3d6000fd5b505050505050565b82805482825590600052602060002090810192821561180d579160200282015b8281111561180c5782518260006101000a81548173ffffffffffffffffffffffffffffffffffffffff021916908373ffffffffffffffffffffffffffffffffffffffff160217905550916020019190600101906117b4565b5b50905061181a91906118a4565b5090565b82805461182a90611e4a565b90600052602060002090601f01602090048101928261184c5760008555611893565b82601f1061186557805160ff1916838001178555611893565b82800160010185558215611893579182015b82811115611892578251825591602001919060010190611877565b5b5090506118a091906118a4565b5090565b5b808211156118bd5760008160009055506001016118a5565b5090565b60006118d46118cf84611d08565b611ce3565b9050828152602081018484840111156118ec57600080fd5b6118f7848285611e08565b509392505050565b600061191261190d84611d08565b611ce3565b90508281526020810184848401111561192a57600080fd5b611935848285611e17565b509392505050565b60008135905061194c81612035565b92915050565b6000813590506119618161204c565b92915050565b600082601f83011261197857600080fd5b81356119888482602086016118c1565b91505092915050565b600082601f8301126119a257600080fd5b81516119b28482602086016118ff565b91505092915050565b6000813590506119ca81612063565b92915050565b6000602082840312156119e257600080fd5b60006119f08482850161193d565b91505092915050565b600060208284031215611a0b57600080fd5b600082013567ffffffffffffffff811115611a2557600080fd5b611a3184828501611967565b91505092915050565b600060208284031215611a4c57600080fd5b600082015167ffffffffffffffff811115611a6657600080fd5b611a7284828501611991565b91505092915050565b60008060408385031215611a8e57600080fd5b6000611a9c858286016119bb565b9250506020611aad8582860161193d565b9150509250929050565b60008060408385031215611aca57600080fd5b6000611ad8858286016119bb565b9250506020611ae985828601611952565b9150509250929050565b611afc81611dc0565b82525050565b6000611b0d82611d4e565b611b178185611d59565b9350611b27818560208601611e17565b611b3081611f83565b840191505092915050565b60008154611b4881611e4a565b611b528186611d59565b94506001821660008114611b6d5760018114611b7f57611bb2565b60ff1983168652602086019350611bb2565b611b8885611d39565b60005b83811015611baa57815481890152600182019150602081019050611b8b565b808801955050505b50505092915050565b6000611bc8600d83611d59565b9150611bd382611f94565b602082019050919050565b6000611beb602c83611d59565b9150611bf682611fbd565b604082019050919050565b6000611c0e601583611d59565b9150611c198261200c565b602082019050919050565b6000602082019050611c396000830184611af3565b92915050565b60006020820190508181036000830152611c598184611b02565b905092915050565b60006020820190508181036000830152611c7b8184611b3b565b905092915050565b60006020820190508181036000830152611c9c81611bbb565b9050919050565b60006020820190508181036000830152611cbc81611bde565b9050919050565b60006020820190508181036000830152611cdc81611c01565b9050919050565b6000611ced611cfe565b9050611cf98282611e7c565b919050565b6000604051905090565b600067ffffffffffffffff821115611d2357611d22611f54565b5b611d2c82611f83565b9050602081019050919050565b60008190508160005260206000209050919050565b600081519050919050565b600082825260208201905092915050565b6000611d7582611dfe565b9150611d8083611dfe565b9250827fffffffffffffffffffffffffffffffffffffffffffffffffffffffffffffffff03821115611db557611db4611ef6565b5b828201905092915050565b6000611dcb82611dde565b9050919050565b60008115159050919050565b600073ffffffffffffffffffffffffffffffffffffffff82169050919050565b6000819050919050565b82818337600083830152505050565b60005b83811015611e35578082015181840152602081019050611e1a565b83811115611e44576000848401525b50505050565b60006002820490506001821680611e6257607f821691505b60208210811415611e7657611e75611f25565b5b50919050565b611e8582611f83565b810181811067ffffffffffffffff82111715611ea457611ea3611f54565b5b80604052505050565b6000611eb882611dfe565b91507fffffffffffffffffffffffffffffffffffffffffffffffffffffffffffffffff821415611eeb57611eea611ef6565b5b600182019050919050565b7f4e487b7100000000000000000000000000000000000000000000000000000000600052601160045260246000fd5b7f4e487b7100000000000000000000000000000000000000000000000000000000600052602260045260246000fd5b7f4e487b7100000000000000000000000000000000000000000000000000000000600052604160045260246000fd5b6000601f19601f8301169050919050565b7f616c726561647920766f74656400000000000000000000000000000000000000600082015250565b7f4f6e6c79206d656d62657273206f66207468652044414f2063616e20766f746560008201527f20616e642070726f706f73650000000000000000000000000000000000000000602082015250565b7f71756f72756d206973206e6f7420726561636865640000000000000000000000600082015250565b61203e81611dc0565b811461204957600080fd5b50565b61205581611dd2565b811461206057600080fd5b50565b61206c81611dfe565b811461207757600080fd5b5056fea2646970667358221220ff2b83f9ace6a7e0d5c5f854560d9959e706414dd5460eb21e8577de0a65e06264736f6c63430008040033",
  "linkReferences": {},
  "deployedLinkReferences": {}
}