{
  "_format": "hh-sol-artifact-1",
  "contractName": "VotingInterface",
  "sourceName": "contracts/Dao.sol",
  "abi": [
    {
      "inputs": [],
      "name": "endVotingSession",
      "outputs": [],
      "stateMutability": "nonpayable",
      "type": "function"
    },
    {
      "inputs": [],
      "name": "getCurrentState",
      "outputs": [
        {
          "internalType": "string",
          "name": "",
          "type": "string"
        }
      ],
      "stateMutability": "view",
      "type": "function"
    },
    {
      "inputs": [
        {
          "internalType": "address",
          "name": "",
          "type": "address"
        }
      ],
      "name": "giveRightToVote",
      "outputs": [],
      "stateMutability": "nonpayable",
      "type": "function"
    },
    {
      "inputs": [
        {
          "internalType": "string",
          "name": "",
          "type": "string"
        }
      ],
      "name": "registerCandidate",
      "outputs": [],
      "stateMutability": "nonpayable",
      "type": "function"
    },
    {
      "inputs": [],
      "name": "startRegisteringCandidates",
      "outputs": [],
      "stateMutability": "nonpayable",
      "type": "function"
    },
    {
      "inputs": [],
      "name": "startRegisteringVoters",
      "outputs": [],
      "stateMutability": "nonpayable",
      "type": "function"
    },
    {
      "inputs": [],
      "name": "startVotingSession",
      "outputs": [],
      "stateMutability": "nonpayable",
      "type": "function"
    },
    {
      "inputs": [],
      "name": "tallyVotes",
      "outputs": [],
      "stateMutability": "view",
      "type": "function"
    }
  ],
  "bytecode": "0x608060405234801561001057600080fd5b50610410806100206000396000f3fe608060405234801561001057600080fd5b50600436106100885760003560e01c8063a7bfab161161005b578063a7bfab16146100ed578063c3ce2a92146100f7578063c8e999b814610101578063ee74c6781461010b57610088565b8063378a21781461008d578063378aa701146100975780639e7b8d61146100b55780639eb88db6146100d1575b600080fd5b610095610115565b005b61009f610117565b6040516100ac919061024a565b60405180910390f35b6100cf60048036038101906100ca91906101a7565b61011c565b005b6100eb60048036038101906100e691906101d0565b61011f565b005b6100f5610122565b005b6100ff610124565b005b610109610126565b005b610113610128565b005b565b606090565b50565b50565b565b565b565b565b600061013d61013884610291565b61026c565b90508281526020810184848401111561015557600080fd5b610160848285610310565b509392505050565b600081359050610177816103c3565b92915050565b600082601f83011261018e57600080fd5b813561019e84826020860161012a565b91505092915050565b6000602082840312156101b957600080fd5b60006101c784828501610168565b91505092915050565b6000602082840312156101e257600080fd5b600082013567ffffffffffffffff8111156101fc57600080fd5b6102088482850161017d565b91505092915050565b600061021c826102c2565b61022681856102cd565b935061023681856020860161031f565b61023f816103b2565b840191505092915050565b600060208201905081810360008301526102648184610211565b905092915050565b6000610276610287565b90506102828282610352565b919050565b6000604051905090565b600067ffffffffffffffff8211156102ac576102ab610383565b5b6102b5826103b2565b9050602081019050919050565b600081519050919050565b600082825260208201905092915050565b60006102e9826102f0565b9050919050565b600073ffffffffffffffffffffffffffffffffffffffff82169050919050565b82818337600083830152505050565b60005b8381101561033d578082015181840152602081019050610322565b8381111561034c576000848401525b50505050565b61035b826103b2565b810181811067ffffffffffffffff8211171561037a57610379610383565b5b80604052505050565b7f4e487b7100000000000000000000000000000000000000000000000000000000600052604160045260246000fd5b6000601f19601f8301169050919050565b6103cc816102de565b81146103d757600080fd5b5056fea26469706673582212205d706ebccc20158c3f88510253c3f2acb290358f2468ff17d4cb17a481cdba9664736f6c63430008040033",
  "linkReferences": {},
  "deployedLinkReferences": {}
}