{
  "_format": "hh-sol-artifact-1",
  "contractName": "VotingInterface",
  "sourceName": "contracts/Dao.sol",
  "abi": [
    {
      "inputs": [],
      "name": "endVotingSession",
      "outputs": [],
      "stateMutability": "nonpayable",
      "type": "function"
    },
    {
      "inputs": [],
      "name": "getCurrentState",
      "outputs": [
        {
          "internalType": "string",
          "name": "",
          "type": "string"
        }
      ],
      "stateMutability": "view",
      "type": "function"
    },
    {
      "inputs": [
        {
          "internalType": "address",
          "name": "",
          "type": "address"
        }
      ],
      "name": "giveRightToVote",
      "outputs": [],
      "stateMutability": "nonpayable",
      "type": "function"
    },
    {
      "inputs": [
        {
          "internalType": "string",
          "name": "",
          "type": "string"
        }
      ],
      "name": "registerCandidate",
      "outputs": [],
      "stateMutability": "nonpayable",
      "type": "function"
    },
    {
      "inputs": [],
      "name": "startRegisteringCandidates",
      "outputs": [],
      "stateMutability": "nonpayable",
      "type": "function"
    },
    {
      "inputs": [],
      "name": "startRegisteringVoters",
      "outputs": [],
      "stateMutability": "nonpayable",
      "type": "function"
    },
    {
      "inputs": [],
      "name": "startVotingSession",
      "outputs": [],
      "stateMutability": "nonpayable",
      "type": "function"
    },
    {
      "inputs": [],
      "name": "tallyVotes",
      "outputs": [
        {
          "internalType": "string",
          "name": "",
          "type": "string"
        }
      ],
      "stateMutability": "view",
      "type": "function"
    }
  ],
  "bytecode": "0x608060405234801561001057600080fd5b50610427806100206000396000f3fe608060405234801561001057600080fd5b50600436106100885760003560e01c8063a7bfab161161005b578063a7bfab1614610101578063c3ce2a921461010b578063c8e999b814610115578063ee74c6781461011f57610088565b8063378a21781461008d578063378aa701146100ab5780639e7b8d61146100c95780639eb88db6146100e5575b600080fd5b610095610129565b6040516100a29190610261565b60405180910390f35b6100b361012e565b6040516100c09190610261565b60405180910390f35b6100e360048036038101906100de91906101be565b610133565b005b6100ff60048036038101906100fa91906101e7565b610136565b005b610109610139565b005b61011361013b565b005b61011d61013d565b005b61012761013f565b005b606090565b606090565b50565b50565b565b565b565b565b600061015461014f846102a8565b610283565b90508281526020810184848401111561016c57600080fd5b610177848285610327565b509392505050565b60008135905061018e816103da565b92915050565b600082601f8301126101a557600080fd5b81356101b5848260208601610141565b91505092915050565b6000602082840312156101d057600080fd5b60006101de8482850161017f565b91505092915050565b6000602082840312156101f957600080fd5b600082013567ffffffffffffffff81111561021357600080fd5b61021f84828501610194565b91505092915050565b6000610233826102d9565b61023d81856102e4565b935061024d818560208601610336565b610256816103c9565b840191505092915050565b6000602082019050818103600083015261027b8184610228565b905092915050565b600061028d61029e565b90506102998282610369565b919050565b6000604051905090565b600067ffffffffffffffff8211156102c3576102c261039a565b5b6102cc826103c9565b9050602081019050919050565b600081519050919050565b600082825260208201905092915050565b600061030082610307565b9050919050565b600073ffffffffffffffffffffffffffffffffffffffff82169050919050565b82818337600083830152505050565b60005b83811015610354578082015181840152602081019050610339565b83811115610363576000848401525b50505050565b610372826103c9565b810181811067ffffffffffffffff821117156103915761039061039a565b5b80604052505050565b7f4e487b7100000000000000000000000000000000000000000000000000000000600052604160045260246000fd5b6000601f19601f8301169050919050565b6103e3816102f5565b81146103ee57600080fd5b5056fea26469706673582212201d996d83a8645e374472c6e307c617ba8c23664f07f7ecb523c73c33bbe7fa8164736f6c63430008040033",
  "linkReferences": {},
  "deployedLinkReferences": {}
}