{
  "contracts/Voting.sol": {
    "Ballot": {
      "abi": [
        {
          "inputs": [
            {
              "internalType": "string[]",
              "name": "candidateNames",
              "type": "string[]"
            }
          ],
          "stateMutability": "nonpayable",
          "type": "constructor"
        },
        {
          "inputs": [
            {
              "internalType": "string[]",
              "name": "candidateNames",
              "type": "string[]"
            }
          ],
          "name": "addCandidates",
          "outputs": [],
          "stateMutability": "nonpayable",
          "type": "function"
        },
        {
          "inputs": [
            {
              "internalType": "uint256",
              "name": "",
              "type": "uint256"
            }
          ],
          "name": "candidates",
          "outputs": [
            {
              "internalType": "string",
              "name": "name",
              "type": "string"
            },
            {
              "internalType": "uint256",
              "name": "voteCount",
              "type": "uint256"
            }
          ],
          "stateMutability": "view",
          "type": "function"
        },
        {
          "inputs": [],
          "name": "chairperson",
          "outputs": [
            {
              "internalType": "address",
              "name": "",
              "type": "address"
            }
          ],
          "stateMutability": "view",
          "type": "function"
        },
        {
          "inputs": [],
          "name": "endVote",
          "outputs": [],
          "stateMutability": "nonpayable",
          "type": "function"
        },
        {
          "inputs": [],
          "name": "get_test",
          "outputs": [
            {
              "internalType": "string",
              "name": "",
              "type": "string"
            }
          ],
          "stateMutability": "view",
          "type": "function"
        },
        {
          "inputs": [
            {
              "internalType": "address",
              "name": "voter",
              "type": "address"
            }
          ],
          "name": "giveRightToVote",
          "outputs": [],
          "stateMutability": "nonpayable",
          "type": "function"
        },
        {
          "inputs": [],
          "name": "startVote",
          "outputs": [],
          "stateMutability": "nonpayable",
          "type": "function"
        },
        {
          "inputs": [],
          "name": "state",
          "outputs": [
            {
              "internalType": "enum Ballot.State",
              "name": "",
              "type": "uint8"
            }
          ],
          "stateMutability": "view",
          "type": "function"
        },
        {
          "inputs": [
            {
              "internalType": "uint256",
              "name": "candidate",
              "type": "uint256"
            }
          ],
          "name": "vote",
          "outputs": [],
          "stateMutability": "nonpayable",
          "type": "function"
        },
        {
          "inputs": [
            {
              "internalType": "address",
              "name": "",
              "type": "address"
            }
          ],
          "name": "voters",
          "outputs": [
            {
              "internalType": "uint256",
              "name": "weight",
              "type": "uint256"
            },
            {
              "internalType": "bool",
              "name": "voted",
              "type": "bool"
            },
            {
              "internalType": "uint256",
              "name": "vote",
              "type": "uint256"
            }
          ],
          "stateMutability": "view",
          "type": "function"
        },
        {
          "inputs": [],
          "name": "winningCandidate",
          "outputs": [
            {
              "internalType": "string",
              "name": "winnerName_",
              "type": "string"
            }
          ],
          "stateMutability": "view",
          "type": "function"
        }
      ],
      "evm": {
        "bytecode": {
          "linkReferences": {},
          "object": "60806040523480156200001157600080fd5b506040516200203538038062002035833981810160405281019062000037919062000439565b6040518060400160405280600481526020017f6369616f0000000000000000000000000000000000000000000000000000000081525060009080519060200190620000849291906200025a565b5033600160006101000a81548173ffffffffffffffffffffffffffffffffffffffff021916908373ffffffffffffffffffffffffffffffffffffffff160217905550600160026000600160009054906101000a900473ffffffffffffffffffffffffffffffffffffffff1673ffffffffffffffffffffffffffffffffffffffff1673ffffffffffffffffffffffffffffffffffffffff168152602001908152602001600020600001819055506000600460006101000a81548160ff021916908360028111156200017d577f4e487b7100000000000000000000000000000000000000000000000000000000600052602160045260246000fd5b021790555060005b8151811015620002525760036040518060400160405280848481518110620001d6577f4e487b7100000000000000000000000000000000000000000000000000000000600052603260045260246000fd5b602002602001015181526020016000815250908060018154018082558091505060019003906000526020600020906002020160009091909190915060008201518160000190805190602001906200022f9291906200025a565b5060208201518160010155505080806200024990620005b8565b91505062000185565b5050620006a4565b82805462000268906200054c565b90600052602060002090601f0160209004810192826200028c5760008555620002d8565b82601f10620002a757805160ff1916838001178555620002d8565b82800160010185558215620002d8579182015b82811115620002d7578251825591602001919060010190620002ba565b5b509050620002e79190620002eb565b5090565b5b8082111562000306576000816000905550600101620002ec565b5090565b6000620003216200031b84620004a7565b6200047e565b905080838252602082019050828560208602820111156200034157600080fd5b60005b858110156200039057815167ffffffffffffffff8111156200036557600080fd5b8086016200037489826200040c565b8552602085019450602084019350505060018101905062000344565b5050509392505050565b6000620003b1620003ab84620004d6565b6200047e565b905082815260208101848484011115620003ca57600080fd5b620003d784828562000516565b509392505050565b600082601f830112620003f157600080fd5b8151620004038482602086016200030a565b91505092915050565b600082601f8301126200041e57600080fd5b8151620004308482602086016200039a565b91505092915050565b6000602082840312156200044c57600080fd5b600082015167ffffffffffffffff8111156200046757600080fd5b6200047584828501620003df565b91505092915050565b60006200048a6200049d565b905062000498828262000582565b919050565b6000604051905090565b600067ffffffffffffffff821115620004c557620004c462000664565b5b602082029050602081019050919050565b600067ffffffffffffffff821115620004f457620004f362000664565b5b620004ff8262000693565b9050602081019050919050565b6000819050919050565b60005b838110156200053657808201518184015260208101905062000519565b8381111562000546576000848401525b50505050565b600060028204905060018216806200056557607f821691505b602082108114156200057c576200057b62000635565b5b50919050565b6200058d8262000693565b810181811067ffffffffffffffff82111715620005af57620005ae62000664565b5b80604052505050565b6000620005c5826200050c565b91507fffffffffffffffffffffffffffffffffffffffffffffffffffffffffffffffff821415620005fb57620005fa62000606565b5b600182019050919050565b7f4e487b7100000000000000000000000000000000000000000000000000000000600052601160045260246000fd5b7f4e487b7100000000000000000000000000000000000000000000000000000000600052602260045260246000fd5b7f4e487b7100000000000000000000000000000000000000000000000000000000600052604160045260246000fd5b6000601f19601f8301169050919050565b61198180620006b46000396000f3fe608060405234801561001057600080fd5b50600436106100a95760003560e01c80639e7b8d61116100715780639e7b8d6114610141578063a3ec138d1461015d578063a999e5621461018f578063b9223946146101ab578063c19d93fb146101b5578063d28178d7146101d3576100a9565b80630121b93f146100ae5780632e4176cf146100ca5780633477ee2e146100e85780633c41db55146101195780634c0a6af014610137575b600080fd5b6100c860048036038101906100c391906110e4565b6101f1565b005b6100d2610420565b6040516100df919061129a565b60405180910390f35b61010260048036038101906100fd91906110e4565b610446565b6040516101109291906112f2565b60405180910390f35b610121610502565b60405161012e91906112d0565b60405180910390f35b61013f610594565b005b61015b6004803603810190610156919061107a565b6106a9565b005b6101776004803603810190610172919061107a565b610863565b60405161018693929190611422565b60405180910390f35b6101a960048036038101906101a491906110a3565b61089a565b005b6101b3610a79565b005b6101bd610c1e565b6040516101ca91906112b5565b60405180910390f35b6101db610c31565b6040516101e891906112d0565b60405180910390f35b6001600281111561022b577f4e487b7100000000000000000000000000000000000000000000000000000000600052602160045260246000fd5b600460009054906101000a900460ff166002811115610273577f4e487b7100000000000000000000000000000000000000000000000000000000600052602160045260246000fd5b146102b3576040517f08c379a00000000000000000000000000000000000000000000000000000000081526004016102aa906113e2565b60405180910390fd5b6000600260003373ffffffffffffffffffffffffffffffffffffffff1673ffffffffffffffffffffffffffffffffffffffff168152602001908152602001600020905060008160000154141561033e576040517f08c379a000000000000000000000000000000000000000000000000000000000815260040161033590611322565b60405180910390fd5b8060010160009054906101000a900460ff1615610390576040517f08c379a000000000000000000000000000000000000000000000000000000000815260040161038790611342565b60405180910390fd5b60018160010160006101000a81548160ff0219169083151502179055508181600201819055508060000154600383815481106103f5577f4e487b7100000000000000000000000000000000000000000000000000000000600052603260045260246000fd5b9060005260206000209060020201600101600082825461041591906114f7565b925050819055505050565b600160009054906101000a900473ffffffffffffffffffffffffffffffffffffffff1681565b6003818154811061045657600080fd5b9060005260206000209060020201600091509050806000018054610479906115fc565b80601f01602080910402602001604051908101604052809291908181526020018280546104a5906115fc565b80156104f25780601f106104c7576101008083540402835291602001916104f2565b820191906000526020600020905b8154815290600101906020018083116104d557829003601f168201915b5050505050908060010154905082565b606060008054610511906115fc565b80601f016020809104026020016040519081016040528092919081815260200182805461053d906115fc565b801561058a5780601f1061055f5761010080835404028352916020019161058a565b820191906000526020600020905b81548152906001019060200180831161056d57829003601f168201915b5050505050905090565b600060028111156105ce577f4e487b7100000000000000000000000000000000000000000000000000000000600052602160045260246000fd5b600460009054906101000a900460ff166002811115610616577f4e487b7100000000000000000000000000000000000000000000000000000000600052602160045260246000fd5b14610656576040517f08c379a000000000000000000000000000000000000000000000000000000000815260040161064d906113c2565b60405180910390fd5b6001600460006101000a81548160ff021916908360028111156106a2577f4e487b7100000000000000000000000000000000000000000000000000000000600052602160045260246000fd5b0217905550565b600160009054906101000a900473ffffffffffffffffffffffffffffffffffffffff1673ffffffffffffffffffffffffffffffffffffffff163373ffffffffffffffffffffffffffffffffffffffff1614610739576040517f08c379a000000000000000000000000000000000000000000000000000000000815260040161073090611382565b60405180910390fd5b600260008273ffffffffffffffffffffffffffffffffffffffff1673ffffffffffffffffffffffffffffffffffffffff16815260200190815260200160002060010160009054906101000a900460ff16156107c9576040517f08c379a00000000000000000000000000000000000000000000000000000000081526004016107c090611402565b60405180910390fd5b6000600260008373ffffffffffffffffffffffffffffffffffffffff1673ffffffffffffffffffffffffffffffffffffffff168152602001908152602001600020600001541461081857600080fd5b6001600260008373ffffffffffffffffffffffffffffffffffffffff1673ffffffffffffffffffffffffffffffffffffffff1681526020019081526020016000206000018190555050565b60026020528060005260406000206000915090508060000154908060010160009054906101000a900460ff16908060020154905083565b6002808111156108d3577f4e487b7100000000000000000000000000000000000000000000000000000000600052602160045260246000fd5b600460009054906101000a900460ff16600281111561091b577f4e487b7100000000000000000000000000000000000000000000000000000000600052602160045260246000fd5b1461095b576040517f08c379a0000000000000000000000000000000000000000000000000000000008152600401610952906113a2565b60405180910390fd5b6000600460006101000a81548160ff021916908360028111156109a7577f4e487b7100000000000000000000000000000000000000000000000000000000600052602160045260246000fd5b021790555060005b8151811015610a7557600360405180604001604052808484815181106109fe577f4e487b7100000000000000000000000000000000000000000000000000000000600052603260045260246000fd5b60200260200101518152602001600081525090806001815401808255809150506001900390600052602060002090600202016000909190919091506000820151816000019080519060200190610a55929190610e95565b506020820151816001015550508080610a6d9061165f565b9150506109af565b5050565b600160009054906101000a900473ffffffffffffffffffffffffffffffffffffffff1673ffffffffffffffffffffffffffffffffffffffff163373ffffffffffffffffffffffffffffffffffffffff1614610b09576040517f08c379a0000000000000000000000000000000000000000000000000000000008152600401610b0090611362565b60405180910390fd5b60016002811115610b43577f4e487b7100000000000000000000000000000000000000000000000000000000600052602160045260246000fd5b600460009054906101000a900460ff166002811115610b8b577f4e487b7100000000000000000000000000000000000000000000000000000000600052602160045260246000fd5b14610bcb576040517f08c379a0000000000000000000000000000000000000000000000000000000008152600401610bc2906113e2565b60405180910390fd5b6002600460006101000a81548160ff02191690836002811115610c17577f4e487b7100000000000000000000000000000000000000000000000000000000600052602160045260246000fd5b0217905550565b600460009054906101000a900460ff1681565b6060600280811115610c6c577f4e487b7100000000000000000000000000000000000000000000000000000000600052602160045260246000fd5b600460009054906101000a900460ff166002811115610cb4577f4e487b7100000000000000000000000000000000000000000000000000000000600052602160045260246000fd5b14610cf4576040517f08c379a0000000000000000000000000000000000000000000000000000000008152600401610ceb906113a2565b60405180910390fd5b6000805b600380549050811015610e90578160038281548110610d40577f4e487b7100000000000000000000000000000000000000000000000000000000600052603260045260246000fd5b9060005260206000209060020201600101541115610e7d5760038181548110610d92577f4e487b7100000000000000000000000000000000000000000000000000000000600052603260045260246000fd5b906000526020600020906002020160010154915060038181548110610de0577f4e487b7100000000000000000000000000000000000000000000000000000000600052603260045260246000fd5b90600052602060002090600202016000018054610dfc906115fc565b80601f0160208091040260200160405190810160405280929190818152602001828054610e28906115fc565b8015610e755780601f10610e4a57610100808354040283529160200191610e75565b820191906000526020600020905b815481529060010190602001808311610e5857829003601f168201915b505050505092505b8080610e889061165f565b915050610cf8565b505090565b828054610ea1906115fc565b90600052602060002090601f016020900481019282610ec35760008555610f0a565b82601f10610edc57805160ff1916838001178555610f0a565b82800160010185558215610f0a579182015b82811115610f09578251825591602001919060010190610eee565b5b509050610f179190610f1b565b5090565b5b80821115610f34576000816000905550600101610f1c565b5090565b6000610f4b610f468461147e565b611459565b90508083825260208201905082856020860282011115610f6a57600080fd5b60005b85811015610fb457813567ffffffffffffffff811115610f8c57600080fd5b808601610f99898261103b565b85526020850194506020840193505050600181019050610f6d565b5050509392505050565b6000610fd1610fcc846114aa565b611459565b905082815260208101848484011115610fe957600080fd5b610ff48482856115ba565b509392505050565b60008135905061100b8161191d565b92915050565b600082601f83011261102257600080fd5b8135611032848260208601610f38565b91505092915050565b600082601f83011261104c57600080fd5b813561105c848260208601610fbe565b91505092915050565b60008135905061107481611934565b92915050565b60006020828403121561108c57600080fd5b600061109a84828501610ffc565b91505092915050565b6000602082840312156110b557600080fd5b600082013567ffffffffffffffff8111156110cf57600080fd5b6110db84828501611011565b91505092915050565b6000602082840312156110f657600080fd5b600061110484828501611065565b91505092915050565b6111168161154d565b82525050565b6111258161155f565b82525050565b611134816115a8565b82525050565b6000611145826114db565b61114f81856114e6565b935061115f8185602086016115c9565b61116881611764565b840191505092915050565b60006111806014836114e6565b915061118b82611775565b602082019050919050565b60006111a3600e836114e6565b91506111ae8261179e565b602082019050919050565b60006111c6602d836114e6565b91506111d1826117c7565b604082019050919050565b60006111e96028836114e6565b91506111f482611816565b604082019050919050565b600061120c601a836114e6565b915061121782611865565b602082019050919050565b600061122f6015836114e6565b915061123a8261188e565b602082019050919050565b6000611252601b836114e6565b915061125d826118b7565b602082019050919050565b60006112756018836114e6565b9150611280826118e0565b602082019050919050565b6112948161159e565b82525050565b60006020820190506112af600083018461110d565b92915050565b60006020820190506112ca600083018461112b565b92915050565b600060208201905081810360008301526112ea818461113a565b905092915050565b6000604082019050818103600083015261130c818561113a565b905061131b602083018461128b565b9392505050565b6000602082019050818103600083015261133b81611173565b9050919050565b6000602082019050818103600083015261135b81611196565b9050919050565b6000602082019050818103600083015261137b816111b9565b9050919050565b6000602082019050818103600083015261139b816111dc565b9050919050565b600060208201905081810360008301526113bb816111ff565b9050919050565b600060208201905081810360008301526113db81611222565b9050919050565b600060208201905081810360008301526113fb81611245565b9050919050565b6000602082019050818103600083015261141b81611268565b9050919050565b6000606082019050611437600083018661128b565b611444602083018561111c565b611451604083018461128b565b949350505050565b6000611463611474565b905061146f828261162e565b919050565b6000604051905090565b600067ffffffffffffffff82111561149957611498611735565b5b602082029050602081019050919050565b600067ffffffffffffffff8211156114c5576114c4611735565b5b6114ce82611764565b9050602081019050919050565b600081519050919050565b600082825260208201905092915050565b60006115028261159e565b915061150d8361159e565b9250827fffffffffffffffffffffffffffffffffffffffffffffffffffffffffffffffff03821115611542576115416116a8565b5b828201905092915050565b60006115588261157e565b9050919050565b60008115159050919050565b600081905061157982611909565b919050565b600073ffffffffffffffffffffffffffffffffffffffff82169050919050565b6000819050919050565b60006115b38261156b565b9050919050565b82818337600083830152505050565b60005b838110156115e75780820151818401526020810190506115cc565b838111156115f6576000848401525b50505050565b6000600282049050600182168061161457607f821691505b6020821081141561162857611627611706565b5b50919050565b61163782611764565b810181811067ffffffffffffffff8211171561165657611655611735565b5b80604052505050565b600061166a8261159e565b91507fffffffffffffffffffffffffffffffffffffffffffffffffffffffffffffffff82141561169d5761169c6116a8565b5b600182019050919050565b7f4e487b7100000000000000000000000000000000000000000000000000000000600052601160045260246000fd5b7f4e487b7100000000000000000000000000000000000000000000000000000000600052602160045260246000fd5b7f4e487b7100000000000000000000000000000000000000000000000000000000600052602260045260246000fd5b7f4e487b7100000000000000000000000000000000000000000000000000000000600052604160045260246000fd5b6000601f19601f8301169050919050565b7f486173206e6f20726967687420746f20766f7465000000000000000000000000600082015250565b7f416c726561647920766f7465642e000000000000000000000000000000000000600082015250565b7f4f6e6c79206368616972706572736f6e2063616e20737461727420616e64206560008201527f6e642074686520766f74696e6700000000000000000000000000000000000000602082015250565b7f4f6e6c79206368616972706572736f6e2063616e20676976652072696768742060008201527f746f20766f74652e000000000000000000000000000000000000000000000000602082015250565b7f6974206d75737420626520696e20456e64656420506572696f64000000000000600082015250565b7f6974206d75737420626520696e20537461727465640000000000000000000000600082015250565b7f6974206d75737420626520696e20566f74696e6720506572696f640000000000600082015250565b7f54686520766f74657220616c726561647920766f7465642e0000000000000000600082015250565b6003811061191a576119196116d7565b5b50565b6119268161154d565b811461193157600080fd5b50565b61193d8161159e565b811461194857600080fd5b5056fea26469706673582212200fc58b60b5930a8828888e7340f6c203c338e3cc22f187ddb8356b19a97090a864736f6c63430008040033",
          "opcodes": "PUSH1 0x80 PUSH1 0x40 MSTORE CALLVALUE DUP1 ISZERO PUSH3 0x11 JUMPI PUSH1 0x0 DUP1 REVERT JUMPDEST POP PUSH1 0x40 MLOAD PUSH3 0x2035 CODESIZE SUB DUP1 PUSH3 0x2035 DUP4 CODECOPY DUP2 DUP2 ADD PUSH1 0x40 MSTORE DUP2 ADD SWAP1 PUSH3 0x37 SWAP2 SWAP1 PUSH3 0x439 JUMP JUMPDEST PUSH1 0x40 MLOAD DUP1 PUSH1 0x40 ADD PUSH1 0x40 MSTORE DUP1 PUSH1 0x4 DUP2 MSTORE PUSH1 0x20 ADD PUSH32 0x6369616F00000000000000000000000000000000000000000000000000000000 DUP2 MSTORE POP PUSH1 0x0 SWAP1 DUP1 MLOAD SWAP1 PUSH1 0x20 ADD SWAP1 PUSH3 0x84 SWAP3 SWAP2 SWAP1 PUSH3 0x25A JUMP JUMPDEST POP CALLER PUSH1 0x1 PUSH1 0x0 PUSH2 0x100 EXP DUP2 SLOAD DUP2 PUSH20 0xFFFFFFFFFFFFFFFFFFFFFFFFFFFFFFFFFFFFFFFF MUL NOT AND SWAP1 DUP4 PUSH20 0xFFFFFFFFFFFFFFFFFFFFFFFFFFFFFFFFFFFFFFFF AND MUL OR SWAP1 SSTORE POP PUSH1 0x1 PUSH1 0x2 PUSH1 0x0 PUSH1 0x1 PUSH1 0x0 SWAP1 SLOAD SWAP1 PUSH2 0x100 EXP SWAP1 DIV PUSH20 0xFFFFFFFFFFFFFFFFFFFFFFFFFFFFFFFFFFFFFFFF AND PUSH20 0xFFFFFFFFFFFFFFFFFFFFFFFFFFFFFFFFFFFFFFFF AND PUSH20 0xFFFFFFFFFFFFFFFFFFFFFFFFFFFFFFFFFFFFFFFF AND DUP2 MSTORE PUSH1 0x20 ADD SWAP1 DUP2 MSTORE PUSH1 0x20 ADD PUSH1 0x0 KECCAK256 PUSH1 0x0 ADD DUP2 SWAP1 SSTORE POP PUSH1 0x0 PUSH1 0x4 PUSH1 0x0 PUSH2 0x100 EXP DUP2 SLOAD DUP2 PUSH1 0xFF MUL NOT AND SWAP1 DUP4 PUSH1 0x2 DUP2 GT ISZERO PUSH3 0x17D JUMPI PUSH32 0x4E487B7100000000000000000000000000000000000000000000000000000000 PUSH1 0x0 MSTORE PUSH1 0x21 PUSH1 0x4 MSTORE PUSH1 0x24 PUSH1 0x0 REVERT JUMPDEST MUL OR SWAP1 SSTORE POP PUSH1 0x0 JUMPDEST DUP2 MLOAD DUP2 LT ISZERO PUSH3 0x252 JUMPI PUSH1 0x3 PUSH1 0x40 MLOAD DUP1 PUSH1 0x40 ADD PUSH1 0x40 MSTORE DUP1 DUP5 DUP5 DUP2 MLOAD DUP2 LT PUSH3 0x1D6 JUMPI PUSH32 0x4E487B7100000000000000000000000000000000000000000000000000000000 PUSH1 0x0 MSTORE PUSH1 0x32 PUSH1 0x4 MSTORE PUSH1 0x24 PUSH1 0x0 REVERT JUMPDEST PUSH1 0x20 MUL PUSH1 0x20 ADD ADD MLOAD DUP2 MSTORE PUSH1 0x20 ADD PUSH1 0x0 DUP2 MSTORE POP SWAP1 DUP1 PUSH1 0x1 DUP2 SLOAD ADD DUP1 DUP3 SSTORE DUP1 SWAP2 POP POP PUSH1 0x1 SWAP1 SUB SWAP1 PUSH1 0x0 MSTORE PUSH1 0x20 PUSH1 0x0 KECCAK256 SWAP1 PUSH1 0x2 MUL ADD PUSH1 0x0 SWAP1 SWAP2 SWAP1 SWAP2 SWAP1 SWAP2 POP PUSH1 0x0 DUP3 ADD MLOAD DUP2 PUSH1 0x0 ADD SWAP1 DUP1 MLOAD SWAP1 PUSH1 0x20 ADD SWAP1 PUSH3 0x22F SWAP3 SWAP2 SWAP1 PUSH3 0x25A JUMP JUMPDEST POP PUSH1 0x20 DUP3 ADD MLOAD DUP2 PUSH1 0x1 ADD SSTORE POP POP DUP1 DUP1 PUSH3 0x249 SWAP1 PUSH3 0x5B8 JUMP JUMPDEST SWAP2 POP POP PUSH3 0x185 JUMP JUMPDEST POP POP PUSH3 0x6A4 JUMP JUMPDEST DUP3 DUP1 SLOAD PUSH3 0x268 SWAP1 PUSH3 0x54C JUMP JUMPDEST SWAP1 PUSH1 0x0 MSTORE PUSH1 0x20 PUSH1 0x0 KECCAK256 SWAP1 PUSH1 0x1F ADD PUSH1 0x20 SWAP1 DIV DUP2 ADD SWAP3 DUP3 PUSH3 0x28C JUMPI PUSH1 0x0 DUP6 SSTORE PUSH3 0x2D8 JUMP JUMPDEST DUP3 PUSH1 0x1F LT PUSH3 0x2A7 JUMPI DUP1 MLOAD PUSH1 0xFF NOT AND DUP4 DUP1 ADD OR DUP6 SSTORE PUSH3 0x2D8 JUMP JUMPDEST DUP3 DUP1 ADD PUSH1 0x1 ADD DUP6 SSTORE DUP3 ISZERO PUSH3 0x2D8 JUMPI SWAP2 DUP3 ADD JUMPDEST DUP3 DUP2 GT ISZERO PUSH3 0x2D7 JUMPI DUP3 MLOAD DUP3 SSTORE SWAP2 PUSH1 0x20 ADD SWAP2 SWAP1 PUSH1 0x1 ADD SWAP1 PUSH3 0x2BA JUMP JUMPDEST JUMPDEST POP SWAP1 POP PUSH3 0x2E7 SWAP2 SWAP1 PUSH3 0x2EB JUMP JUMPDEST POP SWAP1 JUMP JUMPDEST JUMPDEST DUP1 DUP3 GT ISZERO PUSH3 0x306 JUMPI PUSH1 0x0 DUP2 PUSH1 0x0 SWAP1 SSTORE POP PUSH1 0x1 ADD PUSH3 0x2EC JUMP JUMPDEST POP SWAP1 JUMP JUMPDEST PUSH1 0x0 PUSH3 0x321 PUSH3 0x31B DUP5 PUSH3 0x4A7 JUMP JUMPDEST PUSH3 0x47E JUMP JUMPDEST SWAP1 POP DUP1 DUP4 DUP3 MSTORE PUSH1 0x20 DUP3 ADD SWAP1 POP DUP3 DUP6 PUSH1 0x20 DUP7 MUL DUP3 ADD GT ISZERO PUSH3 0x341 JUMPI PUSH1 0x0 DUP1 REVERT JUMPDEST PUSH1 0x0 JUMPDEST DUP6 DUP2 LT ISZERO PUSH3 0x390 JUMPI DUP2 MLOAD PUSH8 0xFFFFFFFFFFFFFFFF DUP2 GT ISZERO PUSH3 0x365 JUMPI PUSH1 0x0 DUP1 REVERT JUMPDEST DUP1 DUP7 ADD PUSH3 0x374 DUP10 DUP3 PUSH3 0x40C JUMP JUMPDEST DUP6 MSTORE PUSH1 0x20 DUP6 ADD SWAP5 POP PUSH1 0x20 DUP5 ADD SWAP4 POP POP POP PUSH1 0x1 DUP2 ADD SWAP1 POP PUSH3 0x344 JUMP JUMPDEST POP POP POP SWAP4 SWAP3 POP POP POP JUMP JUMPDEST PUSH1 0x0 PUSH3 0x3B1 PUSH3 0x3AB DUP5 PUSH3 0x4D6 JUMP JUMPDEST PUSH3 0x47E JUMP JUMPDEST SWAP1 POP DUP3 DUP2 MSTORE PUSH1 0x20 DUP2 ADD DUP5 DUP5 DUP5 ADD GT ISZERO PUSH3 0x3CA JUMPI PUSH1 0x0 DUP1 REVERT JUMPDEST PUSH3 0x3D7 DUP5 DUP3 DUP6 PUSH3 0x516 JUMP JUMPDEST POP SWAP4 SWAP3 POP POP POP JUMP JUMPDEST PUSH1 0x0 DUP3 PUSH1 0x1F DUP4 ADD SLT PUSH3 0x3F1 JUMPI PUSH1 0x0 DUP1 REVERT JUMPDEST DUP2 MLOAD PUSH3 0x403 DUP5 DUP3 PUSH1 0x20 DUP7 ADD PUSH3 0x30A JUMP JUMPDEST SWAP2 POP POP SWAP3 SWAP2 POP POP JUMP JUMPDEST PUSH1 0x0 DUP3 PUSH1 0x1F DUP4 ADD SLT PUSH3 0x41E JUMPI PUSH1 0x0 DUP1 REVERT JUMPDEST DUP2 MLOAD PUSH3 0x430 DUP5 DUP3 PUSH1 0x20 DUP7 ADD PUSH3 0x39A JUMP JUMPDEST SWAP2 POP POP SWAP3 SWAP2 POP POP JUMP JUMPDEST PUSH1 0x0 PUSH1 0x20 DUP3 DUP5 SUB SLT ISZERO PUSH3 0x44C JUMPI PUSH1 0x0 DUP1 REVERT JUMPDEST PUSH1 0x0 DUP3 ADD MLOAD PUSH8 0xFFFFFFFFFFFFFFFF DUP2 GT ISZERO PUSH3 0x467 JUMPI PUSH1 0x0 DUP1 REVERT JUMPDEST PUSH3 0x475 DUP5 DUP3 DUP6 ADD PUSH3 0x3DF JUMP JUMPDEST SWAP2 POP POP SWAP3 SWAP2 POP POP JUMP JUMPDEST PUSH1 0x0 PUSH3 0x48A PUSH3 0x49D JUMP JUMPDEST SWAP1 POP PUSH3 0x498 DUP3 DUP3 PUSH3 0x582 JUMP JUMPDEST SWAP2 SWAP1 POP JUMP JUMPDEST PUSH1 0x0 PUSH1 0x40 MLOAD SWAP1 POP SWAP1 JUMP JUMPDEST PUSH1 0x0 PUSH8 0xFFFFFFFFFFFFFFFF DUP3 GT ISZERO PUSH3 0x4C5 JUMPI PUSH3 0x4C4 PUSH3 0x664 JUMP JUMPDEST JUMPDEST PUSH1 0x20 DUP3 MUL SWAP1 POP PUSH1 0x20 DUP2 ADD SWAP1 POP SWAP2 SWAP1 POP JUMP JUMPDEST PUSH1 0x0 PUSH8 0xFFFFFFFFFFFFFFFF DUP3 GT ISZERO PUSH3 0x4F4 JUMPI PUSH3 0x4F3 PUSH3 0x664 JUMP JUMPDEST JUMPDEST PUSH3 0x4FF DUP3 PUSH3 0x693 JUMP JUMPDEST SWAP1 POP PUSH1 0x20 DUP2 ADD SWAP1 POP SWAP2 SWAP1 POP JUMP JUMPDEST PUSH1 0x0 DUP2 SWAP1 POP SWAP2 SWAP1 POP JUMP JUMPDEST PUSH1 0x0 JUMPDEST DUP4 DUP2 LT ISZERO PUSH3 0x536 JUMPI DUP1 DUP3 ADD MLOAD DUP2 DUP5 ADD MSTORE PUSH1 0x20 DUP2 ADD SWAP1 POP PUSH3 0x519 JUMP JUMPDEST DUP4 DUP2 GT ISZERO PUSH3 0x546 JUMPI PUSH1 0x0 DUP5 DUP5 ADD MSTORE JUMPDEST POP POP POP POP JUMP JUMPDEST PUSH1 0x0 PUSH1 0x2 DUP3 DIV SWAP1 POP PUSH1 0x1 DUP3 AND DUP1 PUSH3 0x565 JUMPI PUSH1 0x7F DUP3 AND SWAP2 POP JUMPDEST PUSH1 0x20 DUP3 LT DUP2 EQ ISZERO PUSH3 0x57C JUMPI PUSH3 0x57B PUSH3 0x635 JUMP JUMPDEST JUMPDEST POP SWAP2 SWAP1 POP JUMP JUMPDEST PUSH3 0x58D DUP3 PUSH3 0x693 JUMP JUMPDEST DUP2 ADD DUP2 DUP2 LT PUSH8 0xFFFFFFFFFFFFFFFF DUP3 GT OR ISZERO PUSH3 0x5AF JUMPI PUSH3 0x5AE PUSH3 0x664 JUMP JUMPDEST JUMPDEST DUP1 PUSH1 0x40 MSTORE POP POP POP JUMP JUMPDEST PUSH1 0x0 PUSH3 0x5C5 DUP3 PUSH3 0x50C JUMP JUMPDEST SWAP2 POP PUSH32 0xFFFFFFFFFFFFFFFFFFFFFFFFFFFFFFFFFFFFFFFFFFFFFFFFFFFFFFFFFFFFFFFF DUP3 EQ ISZERO PUSH3 0x5FB JUMPI PUSH3 0x5FA PUSH3 0x606 JUMP JUMPDEST JUMPDEST PUSH1 0x1 DUP3 ADD SWAP1 POP SWAP2 SWAP1 POP JUMP JUMPDEST PUSH32 0x4E487B7100000000000000000000000000000000000000000000000000000000 PUSH1 0x0 MSTORE PUSH1 0x11 PUSH1 0x4 MSTORE PUSH1 0x24 PUSH1 0x0 REVERT JUMPDEST PUSH32 0x4E487B7100000000000000000000000000000000000000000000000000000000 PUSH1 0x0 MSTORE PUSH1 0x22 PUSH1 0x4 MSTORE PUSH1 0x24 PUSH1 0x0 REVERT JUMPDEST PUSH32 0x4E487B7100000000000000000000000000000000000000000000000000000000 PUSH1 0x0 MSTORE PUSH1 0x41 PUSH1 0x4 MSTORE PUSH1 0x24 PUSH1 0x0 REVERT JUMPDEST PUSH1 0x0 PUSH1 0x1F NOT PUSH1 0x1F DUP4 ADD AND SWAP1 POP SWAP2 SWAP1 POP JUMP JUMPDEST PUSH2 0x1981 DUP1 PUSH3 0x6B4 PUSH1 0x0 CODECOPY PUSH1 0x0 RETURN INVALID PUSH1 0x80 PUSH1 0x40 MSTORE CALLVALUE DUP1 ISZERO PUSH2 0x10 JUMPI PUSH1 0x0 DUP1 REVERT JUMPDEST POP PUSH1 0x4 CALLDATASIZE LT PUSH2 0xA9 JUMPI PUSH1 0x0 CALLDATALOAD PUSH1 0xE0 SHR DUP1 PUSH4 0x9E7B8D61 GT PUSH2 0x71 JUMPI DUP1 PUSH4 0x9E7B8D61 EQ PUSH2 0x141 JUMPI DUP1 PUSH4 0xA3EC138D EQ PUSH2 0x15D JUMPI DUP1 PUSH4 0xA999E562 EQ PUSH2 0x18F JUMPI DUP1 PUSH4 0xB9223946 EQ PUSH2 0x1AB JUMPI DUP1 PUSH4 0xC19D93FB EQ PUSH2 0x1B5 JUMPI DUP1 PUSH4 0xD28178D7 EQ PUSH2 0x1D3 JUMPI PUSH2 0xA9 JUMP JUMPDEST DUP1 PUSH4 0x121B93F EQ PUSH2 0xAE JUMPI DUP1 PUSH4 0x2E4176CF EQ PUSH2 0xCA JUMPI DUP1 PUSH4 0x3477EE2E EQ PUSH2 0xE8 JUMPI DUP1 PUSH4 0x3C41DB55 EQ PUSH2 0x119 JUMPI DUP1 PUSH4 0x4C0A6AF0 EQ PUSH2 0x137 JUMPI JUMPDEST PUSH1 0x0 DUP1 REVERT JUMPDEST PUSH2 0xC8 PUSH1 0x4 DUP1 CALLDATASIZE SUB DUP2 ADD SWAP1 PUSH2 0xC3 SWAP2 SWAP1 PUSH2 0x10E4 JUMP JUMPDEST PUSH2 0x1F1 JUMP JUMPDEST STOP JUMPDEST PUSH2 0xD2 PUSH2 0x420 JUMP JUMPDEST PUSH1 0x40 MLOAD PUSH2 0xDF SWAP2 SWAP1 PUSH2 0x129A JUMP JUMPDEST PUSH1 0x40 MLOAD DUP1 SWAP2 SUB SWAP1 RETURN JUMPDEST PUSH2 0x102 PUSH1 0x4 DUP1 CALLDATASIZE SUB DUP2 ADD SWAP1 PUSH2 0xFD SWAP2 SWAP1 PUSH2 0x10E4 JUMP JUMPDEST PUSH2 0x446 JUMP JUMPDEST PUSH1 0x40 MLOAD PUSH2 0x110 SWAP3 SWAP2 SWAP1 PUSH2 0x12F2 JUMP JUMPDEST PUSH1 0x40 MLOAD DUP1 SWAP2 SUB SWAP1 RETURN JUMPDEST PUSH2 0x121 PUSH2 0x502 JUMP JUMPDEST PUSH1 0x40 MLOAD PUSH2 0x12E SWAP2 SWAP1 PUSH2 0x12D0 JUMP JUMPDEST PUSH1 0x40 MLOAD DUP1 SWAP2 SUB SWAP1 RETURN JUMPDEST PUSH2 0x13F PUSH2 0x594 JUMP JUMPDEST STOP JUMPDEST PUSH2 0x15B PUSH1 0x4 DUP1 CALLDATASIZE SUB DUP2 ADD SWAP1 PUSH2 0x156 SWAP2 SWAP1 PUSH2 0x107A JUMP JUMPDEST PUSH2 0x6A9 JUMP JUMPDEST STOP JUMPDEST PUSH2 0x177 PUSH1 0x4 DUP1 CALLDATASIZE SUB DUP2 ADD SWAP1 PUSH2 0x172 SWAP2 SWAP1 PUSH2 0x107A JUMP JUMPDEST PUSH2 0x863 JUMP JUMPDEST PUSH1 0x40 MLOAD PUSH2 0x186 SWAP4 SWAP3 SWAP2 SWAP1 PUSH2 0x1422 JUMP JUMPDEST PUSH1 0x40 MLOAD DUP1 SWAP2 SUB SWAP1 RETURN JUMPDEST PUSH2 0x1A9 PUSH1 0x4 DUP1 CALLDATASIZE SUB DUP2 ADD SWAP1 PUSH2 0x1A4 SWAP2 SWAP1 PUSH2 0x10A3 JUMP JUMPDEST PUSH2 0x89A JUMP JUMPDEST STOP JUMPDEST PUSH2 0x1B3 PUSH2 0xA79 JUMP JUMPDEST STOP JUMPDEST PUSH2 0x1BD PUSH2 0xC1E JUMP JUMPDEST PUSH1 0x40 MLOAD PUSH2 0x1CA SWAP2 SWAP1 PUSH2 0x12B5 JUMP JUMPDEST PUSH1 0x40 MLOAD DUP1 SWAP2 SUB SWAP1 RETURN JUMPDEST PUSH2 0x1DB PUSH2 0xC31 JUMP JUMPDEST PUSH1 0x40 MLOAD PUSH2 0x1E8 SWAP2 SWAP1 PUSH2 0x12D0 JUMP JUMPDEST PUSH1 0x40 MLOAD DUP1 SWAP2 SUB SWAP1 RETURN JUMPDEST PUSH1 0x1 PUSH1 0x2 DUP2 GT ISZERO PUSH2 0x22B JUMPI PUSH32 0x4E487B7100000000000000000000000000000000000000000000000000000000 PUSH1 0x0 MSTORE PUSH1 0x21 PUSH1 0x4 MSTORE PUSH1 0x24 PUSH1 0x0 REVERT JUMPDEST PUSH1 0x4 PUSH1 0x0 SWAP1 SLOAD SWAP1 PUSH2 0x100 EXP SWAP1 DIV PUSH1 0xFF AND PUSH1 0x2 DUP2 GT ISZERO PUSH2 0x273 JUMPI PUSH32 0x4E487B7100000000000000000000000000000000000000000000000000000000 PUSH1 0x0 MSTORE PUSH1 0x21 PUSH1 0x4 MSTORE PUSH1 0x24 PUSH1 0x0 REVERT JUMPDEST EQ PUSH2 0x2B3 JUMPI PUSH1 0x40 MLOAD PUSH32 0x8C379A000000000000000000000000000000000000000000000000000000000 DUP2 MSTORE PUSH1 0x4 ADD PUSH2 0x2AA SWAP1 PUSH2 0x13E2 JUMP JUMPDEST PUSH1 0x40 MLOAD DUP1 SWAP2 SUB SWAP1 REVERT JUMPDEST PUSH1 0x0 PUSH1 0x2 PUSH1 0x0 CALLER PUSH20 0xFFFFFFFFFFFFFFFFFFFFFFFFFFFFFFFFFFFFFFFF AND PUSH20 0xFFFFFFFFFFFFFFFFFFFFFFFFFFFFFFFFFFFFFFFF AND DUP2 MSTORE PUSH1 0x20 ADD SWAP1 DUP2 MSTORE PUSH1 0x20 ADD PUSH1 0x0 KECCAK256 SWAP1 POP PUSH1 0x0 DUP2 PUSH1 0x0 ADD SLOAD EQ ISZERO PUSH2 0x33E JUMPI PUSH1 0x40 MLOAD PUSH32 0x8C379A000000000000000000000000000000000000000000000000000000000 DUP2 MSTORE PUSH1 0x4 ADD PUSH2 0x335 SWAP1 PUSH2 0x1322 JUMP JUMPDEST PUSH1 0x40 MLOAD DUP1 SWAP2 SUB SWAP1 REVERT JUMPDEST DUP1 PUSH1 0x1 ADD PUSH1 0x0 SWAP1 SLOAD SWAP1 PUSH2 0x100 EXP SWAP1 DIV PUSH1 0xFF AND ISZERO PUSH2 0x390 JUMPI PUSH1 0x40 MLOAD PUSH32 0x8C379A000000000000000000000000000000000000000000000000000000000 DUP2 MSTORE PUSH1 0x4 ADD PUSH2 0x387 SWAP1 PUSH2 0x1342 JUMP JUMPDEST PUSH1 0x40 MLOAD DUP1 SWAP2 SUB SWAP1 REVERT JUMPDEST PUSH1 0x1 DUP2 PUSH1 0x1 ADD PUSH1 0x0 PUSH2 0x100 EXP DUP2 SLOAD DUP2 PUSH1 0xFF MUL NOT AND SWAP1 DUP4 ISZERO ISZERO MUL OR SWAP1 SSTORE POP DUP2 DUP2 PUSH1 0x2 ADD DUP2 SWAP1 SSTORE POP DUP1 PUSH1 0x0 ADD SLOAD PUSH1 0x3 DUP4 DUP2 SLOAD DUP2 LT PUSH2 0x3F5 JUMPI PUSH32 0x4E487B7100000000000000000000000000000000000000000000000000000000 PUSH1 0x0 MSTORE PUSH1 0x32 PUSH1 0x4 MSTORE PUSH1 0x24 PUSH1 0x0 REVERT JUMPDEST SWAP1 PUSH1 0x0 MSTORE PUSH1 0x20 PUSH1 0x0 KECCAK256 SWAP1 PUSH1 0x2 MUL ADD PUSH1 0x1 ADD PUSH1 0x0 DUP3 DUP3 SLOAD PUSH2 0x415 SWAP2 SWAP1 PUSH2 0x14F7 JUMP JUMPDEST SWAP3 POP POP DUP2 SWAP1 SSTORE POP POP POP JUMP JUMPDEST PUSH1 0x1 PUSH1 0x0 SWAP1 SLOAD SWAP1 PUSH2 0x100 EXP SWAP1 DIV PUSH20 0xFFFFFFFFFFFFFFFFFFFFFFFFFFFFFFFFFFFFFFFF AND DUP2 JUMP JUMPDEST PUSH1 0x3 DUP2 DUP2 SLOAD DUP2 LT PUSH2 0x456 JUMPI PUSH1 0x0 DUP1 REVERT JUMPDEST SWAP1 PUSH1 0x0 MSTORE PUSH1 0x20 PUSH1 0x0 KECCAK256 SWAP1 PUSH1 0x2 MUL ADD PUSH1 0x0 SWAP2 POP SWAP1 POP DUP1 PUSH1 0x0 ADD DUP1 SLOAD PUSH2 0x479 SWAP1 PUSH2 0x15FC JUMP JUMPDEST DUP1 PUSH1 0x1F ADD PUSH1 0x20 DUP1 SWAP2 DIV MUL PUSH1 0x20 ADD PUSH1 0x40 MLOAD SWAP1 DUP2 ADD PUSH1 0x40 MSTORE DUP1 SWAP3 SWAP2 SWAP1 DUP2 DUP2 MSTORE PUSH1 0x20 ADD DUP3 DUP1 SLOAD PUSH2 0x4A5 SWAP1 PUSH2 0x15FC JUMP JUMPDEST DUP1 ISZERO PUSH2 0x4F2 JUMPI DUP1 PUSH1 0x1F LT PUSH2 0x4C7 JUMPI PUSH2 0x100 DUP1 DUP4 SLOAD DIV MUL DUP4 MSTORE SWAP2 PUSH1 0x20 ADD SWAP2 PUSH2 0x4F2 JUMP JUMPDEST DUP3 ADD SWAP2 SWAP1 PUSH1 0x0 MSTORE PUSH1 0x20 PUSH1 0x0 KECCAK256 SWAP1 JUMPDEST DUP2 SLOAD DUP2 MSTORE SWAP1 PUSH1 0x1 ADD SWAP1 PUSH1 0x20 ADD DUP1 DUP4 GT PUSH2 0x4D5 JUMPI DUP3 SWAP1 SUB PUSH1 0x1F AND DUP3 ADD SWAP2 JUMPDEST POP POP POP POP POP SWAP1 DUP1 PUSH1 0x1 ADD SLOAD SWAP1 POP DUP3 JUMP JUMPDEST PUSH1 0x60 PUSH1 0x0 DUP1 SLOAD PUSH2 0x511 SWAP1 PUSH2 0x15FC JUMP JUMPDEST DUP1 PUSH1 0x1F ADD PUSH1 0x20 DUP1 SWAP2 DIV MUL PUSH1 0x20 ADD PUSH1 0x40 MLOAD SWAP1 DUP2 ADD PUSH1 0x40 MSTORE DUP1 SWAP3 SWAP2 SWAP1 DUP2 DUP2 MSTORE PUSH1 0x20 ADD DUP3 DUP1 SLOAD PUSH2 0x53D SWAP1 PUSH2 0x15FC JUMP JUMPDEST DUP1 ISZERO PUSH2 0x58A JUMPI DUP1 PUSH1 0x1F LT PUSH2 0x55F JUMPI PUSH2 0x100 DUP1 DUP4 SLOAD DIV MUL DUP4 MSTORE SWAP2 PUSH1 0x20 ADD SWAP2 PUSH2 0x58A JUMP JUMPDEST DUP3 ADD SWAP2 SWAP1 PUSH1 0x0 MSTORE PUSH1 0x20 PUSH1 0x0 KECCAK256 SWAP1 JUMPDEST DUP2 SLOAD DUP2 MSTORE SWAP1 PUSH1 0x1 ADD SWAP1 PUSH1 0x20 ADD DUP1 DUP4 GT PUSH2 0x56D JUMPI DUP3 SWAP1 SUB PUSH1 0x1F AND DUP3 ADD SWAP2 JUMPDEST POP POP POP POP POP SWAP1 POP SWAP1 JUMP JUMPDEST PUSH1 0x0 PUSH1 0x2 DUP2 GT ISZERO PUSH2 0x5CE JUMPI PUSH32 0x4E487B7100000000000000000000000000000000000000000000000000000000 PUSH1 0x0 MSTORE PUSH1 0x21 PUSH1 0x4 MSTORE PUSH1 0x24 PUSH1 0x0 REVERT JUMPDEST PUSH1 0x4 PUSH1 0x0 SWAP1 SLOAD SWAP1 PUSH2 0x100 EXP SWAP1 DIV PUSH1 0xFF AND PUSH1 0x2 DUP2 GT ISZERO PUSH2 0x616 JUMPI PUSH32 0x4E487B7100000000000000000000000000000000000000000000000000000000 PUSH1 0x0 MSTORE PUSH1 0x21 PUSH1 0x4 MSTORE PUSH1 0x24 PUSH1 0x0 REVERT JUMPDEST EQ PUSH2 0x656 JUMPI PUSH1 0x40 MLOAD PUSH32 0x8C379A000000000000000000000000000000000000000000000000000000000 DUP2 MSTORE PUSH1 0x4 ADD PUSH2 0x64D SWAP1 PUSH2 0x13C2 JUMP JUMPDEST PUSH1 0x40 MLOAD DUP1 SWAP2 SUB SWAP1 REVERT JUMPDEST PUSH1 0x1 PUSH1 0x4 PUSH1 0x0 PUSH2 0x100 EXP DUP2 SLOAD DUP2 PUSH1 0xFF MUL NOT AND SWAP1 DUP4 PUSH1 0x2 DUP2 GT ISZERO PUSH2 0x6A2 JUMPI PUSH32 0x4E487B7100000000000000000000000000000000000000000000000000000000 PUSH1 0x0 MSTORE PUSH1 0x21 PUSH1 0x4 MSTORE PUSH1 0x24 PUSH1 0x0 REVERT JUMPDEST MUL OR SWAP1 SSTORE POP JUMP JUMPDEST PUSH1 0x1 PUSH1 0x0 SWAP1 SLOAD SWAP1 PUSH2 0x100 EXP SWAP1 DIV PUSH20 0xFFFFFFFFFFFFFFFFFFFFFFFFFFFFFFFFFFFFFFFF AND PUSH20 0xFFFFFFFFFFFFFFFFFFFFFFFFFFFFFFFFFFFFFFFF AND CALLER PUSH20 0xFFFFFFFFFFFFFFFFFFFFFFFFFFFFFFFFFFFFFFFF AND EQ PUSH2 0x739 JUMPI PUSH1 0x40 MLOAD PUSH32 0x8C379A000000000000000000000000000000000000000000000000000000000 DUP2 MSTORE PUSH1 0x4 ADD PUSH2 0x730 SWAP1 PUSH2 0x1382 JUMP JUMPDEST PUSH1 0x40 MLOAD DUP1 SWAP2 SUB SWAP1 REVERT JUMPDEST PUSH1 0x2 PUSH1 0x0 DUP3 PUSH20 0xFFFFFFFFFFFFFFFFFFFFFFFFFFFFFFFFFFFFFFFF AND PUSH20 0xFFFFFFFFFFFFFFFFFFFFFFFFFFFFFFFFFFFFFFFF AND DUP2 MSTORE PUSH1 0x20 ADD SWAP1 DUP2 MSTORE PUSH1 0x20 ADD PUSH1 0x0 KECCAK256 PUSH1 0x1 ADD PUSH1 0x0 SWAP1 SLOAD SWAP1 PUSH2 0x100 EXP SWAP1 DIV PUSH1 0xFF AND ISZERO PUSH2 0x7C9 JUMPI PUSH1 0x40 MLOAD PUSH32 0x8C379A000000000000000000000000000000000000000000000000000000000 DUP2 MSTORE PUSH1 0x4 ADD PUSH2 0x7C0 SWAP1 PUSH2 0x1402 JUMP JUMPDEST PUSH1 0x40 MLOAD DUP1 SWAP2 SUB SWAP1 REVERT JUMPDEST PUSH1 0x0 PUSH1 0x2 PUSH1 0x0 DUP4 PUSH20 0xFFFFFFFFFFFFFFFFFFFFFFFFFFFFFFFFFFFFFFFF AND PUSH20 0xFFFFFFFFFFFFFFFFFFFFFFFFFFFFFFFFFFFFFFFF AND DUP2 MSTORE PUSH1 0x20 ADD SWAP1 DUP2 MSTORE PUSH1 0x20 ADD PUSH1 0x0 KECCAK256 PUSH1 0x0 ADD SLOAD EQ PUSH2 0x818 JUMPI PUSH1 0x0 DUP1 REVERT JUMPDEST PUSH1 0x1 PUSH1 0x2 PUSH1 0x0 DUP4 PUSH20 0xFFFFFFFFFFFFFFFFFFFFFFFFFFFFFFFFFFFFFFFF AND PUSH20 0xFFFFFFFFFFFFFFFFFFFFFFFFFFFFFFFFFFFFFFFF AND DUP2 MSTORE PUSH1 0x20 ADD SWAP1 DUP2 MSTORE PUSH1 0x20 ADD PUSH1 0x0 KECCAK256 PUSH1 0x0 ADD DUP2 SWAP1 SSTORE POP POP JUMP JUMPDEST PUSH1 0x2 PUSH1 0x20 MSTORE DUP1 PUSH1 0x0 MSTORE PUSH1 0x40 PUSH1 0x0 KECCAK256 PUSH1 0x0 SWAP2 POP SWAP1 POP DUP1 PUSH1 0x0 ADD SLOAD SWAP1 DUP1 PUSH1 0x1 ADD PUSH1 0x0 SWAP1 SLOAD SWAP1 PUSH2 0x100 EXP SWAP1 DIV PUSH1 0xFF AND SWAP1 DUP1 PUSH1 0x2 ADD SLOAD SWAP1 POP DUP4 JUMP JUMPDEST PUSH1 0x2 DUP1 DUP2 GT ISZERO PUSH2 0x8D3 JUMPI PUSH32 0x4E487B7100000000000000000000000000000000000000000000000000000000 PUSH1 0x0 MSTORE PUSH1 0x21 PUSH1 0x4 MSTORE PUSH1 0x24 PUSH1 0x0 REVERT JUMPDEST PUSH1 0x4 PUSH1 0x0 SWAP1 SLOAD SWAP1 PUSH2 0x100 EXP SWAP1 DIV PUSH1 0xFF AND PUSH1 0x2 DUP2 GT ISZERO PUSH2 0x91B JUMPI PUSH32 0x4E487B7100000000000000000000000000000000000000000000000000000000 PUSH1 0x0 MSTORE PUSH1 0x21 PUSH1 0x4 MSTORE PUSH1 0x24 PUSH1 0x0 REVERT JUMPDEST EQ PUSH2 0x95B JUMPI PUSH1 0x40 MLOAD PUSH32 0x8C379A000000000000000000000000000000000000000000000000000000000 DUP2 MSTORE PUSH1 0x4 ADD PUSH2 0x952 SWAP1 PUSH2 0x13A2 JUMP JUMPDEST PUSH1 0x40 MLOAD DUP1 SWAP2 SUB SWAP1 REVERT JUMPDEST PUSH1 0x0 PUSH1 0x4 PUSH1 0x0 PUSH2 0x100 EXP DUP2 SLOAD DUP2 PUSH1 0xFF MUL NOT AND SWAP1 DUP4 PUSH1 0x2 DUP2 GT ISZERO PUSH2 0x9A7 JUMPI PUSH32 0x4E487B7100000000000000000000000000000000000000000000000000000000 PUSH1 0x0 MSTORE PUSH1 0x21 PUSH1 0x4 MSTORE PUSH1 0x24 PUSH1 0x0 REVERT JUMPDEST MUL OR SWAP1 SSTORE POP PUSH1 0x0 JUMPDEST DUP2 MLOAD DUP2 LT ISZERO PUSH2 0xA75 JUMPI PUSH1 0x3 PUSH1 0x40 MLOAD DUP1 PUSH1 0x40 ADD PUSH1 0x40 MSTORE DUP1 DUP5 DUP5 DUP2 MLOAD DUP2 LT PUSH2 0x9FE JUMPI PUSH32 0x4E487B7100000000000000000000000000000000000000000000000000000000 PUSH1 0x0 MSTORE PUSH1 0x32 PUSH1 0x4 MSTORE PUSH1 0x24 PUSH1 0x0 REVERT JUMPDEST PUSH1 0x20 MUL PUSH1 0x20 ADD ADD MLOAD DUP2 MSTORE PUSH1 0x20 ADD PUSH1 0x0 DUP2 MSTORE POP SWAP1 DUP1 PUSH1 0x1 DUP2 SLOAD ADD DUP1 DUP3 SSTORE DUP1 SWAP2 POP POP PUSH1 0x1 SWAP1 SUB SWAP1 PUSH1 0x0 MSTORE PUSH1 0x20 PUSH1 0x0 KECCAK256 SWAP1 PUSH1 0x2 MUL ADD PUSH1 0x0 SWAP1 SWAP2 SWAP1 SWAP2 SWAP1 SWAP2 POP PUSH1 0x0 DUP3 ADD MLOAD DUP2 PUSH1 0x0 ADD SWAP1 DUP1 MLOAD SWAP1 PUSH1 0x20 ADD SWAP1 PUSH2 0xA55 SWAP3 SWAP2 SWAP1 PUSH2 0xE95 JUMP JUMPDEST POP PUSH1 0x20 DUP3 ADD MLOAD DUP2 PUSH1 0x1 ADD SSTORE POP POP DUP1 DUP1 PUSH2 0xA6D SWAP1 PUSH2 0x165F JUMP JUMPDEST SWAP2 POP POP PUSH2 0x9AF JUMP JUMPDEST POP POP JUMP JUMPDEST PUSH1 0x1 PUSH1 0x0 SWAP1 SLOAD SWAP1 PUSH2 0x100 EXP SWAP1 DIV PUSH20 0xFFFFFFFFFFFFFFFFFFFFFFFFFFFFFFFFFFFFFFFF AND PUSH20 0xFFFFFFFFFFFFFFFFFFFFFFFFFFFFFFFFFFFFFFFF AND CALLER PUSH20 0xFFFFFFFFFFFFFFFFFFFFFFFFFFFFFFFFFFFFFFFF AND EQ PUSH2 0xB09 JUMPI PUSH1 0x40 MLOAD PUSH32 0x8C379A000000000000000000000000000000000000000000000000000000000 DUP2 MSTORE PUSH1 0x4 ADD PUSH2 0xB00 SWAP1 PUSH2 0x1362 JUMP JUMPDEST PUSH1 0x40 MLOAD DUP1 SWAP2 SUB SWAP1 REVERT JUMPDEST PUSH1 0x1 PUSH1 0x2 DUP2 GT ISZERO PUSH2 0xB43 JUMPI PUSH32 0x4E487B7100000000000000000000000000000000000000000000000000000000 PUSH1 0x0 MSTORE PUSH1 0x21 PUSH1 0x4 MSTORE PUSH1 0x24 PUSH1 0x0 REVERT JUMPDEST PUSH1 0x4 PUSH1 0x0 SWAP1 SLOAD SWAP1 PUSH2 0x100 EXP SWAP1 DIV PUSH1 0xFF AND PUSH1 0x2 DUP2 GT ISZERO PUSH2 0xB8B JUMPI PUSH32 0x4E487B7100000000000000000000000000000000000000000000000000000000 PUSH1 0x0 MSTORE PUSH1 0x21 PUSH1 0x4 MSTORE PUSH1 0x24 PUSH1 0x0 REVERT JUMPDEST EQ PUSH2 0xBCB JUMPI PUSH1 0x40 MLOAD PUSH32 0x8C379A000000000000000000000000000000000000000000000000000000000 DUP2 MSTORE PUSH1 0x4 ADD PUSH2 0xBC2 SWAP1 PUSH2 0x13E2 JUMP JUMPDEST PUSH1 0x40 MLOAD DUP1 SWAP2 SUB SWAP1 REVERT JUMPDEST PUSH1 0x2 PUSH1 0x4 PUSH1 0x0 PUSH2 0x100 EXP DUP2 SLOAD DUP2 PUSH1 0xFF MUL NOT AND SWAP1 DUP4 PUSH1 0x2 DUP2 GT ISZERO PUSH2 0xC17 JUMPI PUSH32 0x4E487B7100000000000000000000000000000000000000000000000000000000 PUSH1 0x0 MSTORE PUSH1 0x21 PUSH1 0x4 MSTORE PUSH1 0x24 PUSH1 0x0 REVERT JUMPDEST MUL OR SWAP1 SSTORE POP JUMP JUMPDEST PUSH1 0x4 PUSH1 0x0 SWAP1 SLOAD SWAP1 PUSH2 0x100 EXP SWAP1 DIV PUSH1 0xFF AND DUP2 JUMP JUMPDEST PUSH1 0x60 PUSH1 0x2 DUP1 DUP2 GT ISZERO PUSH2 0xC6C JUMPI PUSH32 0x4E487B7100000000000000000000000000000000000000000000000000000000 PUSH1 0x0 MSTORE PUSH1 0x21 PUSH1 0x4 MSTORE PUSH1 0x24 PUSH1 0x0 REVERT JUMPDEST PUSH1 0x4 PUSH1 0x0 SWAP1 SLOAD SWAP1 PUSH2 0x100 EXP SWAP1 DIV PUSH1 0xFF AND PUSH1 0x2 DUP2 GT ISZERO PUSH2 0xCB4 JUMPI PUSH32 0x4E487B7100000000000000000000000000000000000000000000000000000000 PUSH1 0x0 MSTORE PUSH1 0x21 PUSH1 0x4 MSTORE PUSH1 0x24 PUSH1 0x0 REVERT JUMPDEST EQ PUSH2 0xCF4 JUMPI PUSH1 0x40 MLOAD PUSH32 0x8C379A000000000000000000000000000000000000000000000000000000000 DUP2 MSTORE PUSH1 0x4 ADD PUSH2 0xCEB SWAP1 PUSH2 0x13A2 JUMP JUMPDEST PUSH1 0x40 MLOAD DUP1 SWAP2 SUB SWAP1 REVERT JUMPDEST PUSH1 0x0 DUP1 JUMPDEST PUSH1 0x3 DUP1 SLOAD SWAP1 POP DUP2 LT ISZERO PUSH2 0xE90 JUMPI DUP2 PUSH1 0x3 DUP3 DUP2 SLOAD DUP2 LT PUSH2 0xD40 JUMPI PUSH32 0x4E487B7100000000000000000000000000000000000000000000000000000000 PUSH1 0x0 MSTORE PUSH1 0x32 PUSH1 0x4 MSTORE PUSH1 0x24 PUSH1 0x0 REVERT JUMPDEST SWAP1 PUSH1 0x0 MSTORE PUSH1 0x20 PUSH1 0x0 KECCAK256 SWAP1 PUSH1 0x2 MUL ADD PUSH1 0x1 ADD SLOAD GT ISZERO PUSH2 0xE7D JUMPI PUSH1 0x3 DUP2 DUP2 SLOAD DUP2 LT PUSH2 0xD92 JUMPI PUSH32 0x4E487B7100000000000000000000000000000000000000000000000000000000 PUSH1 0x0 MSTORE PUSH1 0x32 PUSH1 0x4 MSTORE PUSH1 0x24 PUSH1 0x0 REVERT JUMPDEST SWAP1 PUSH1 0x0 MSTORE PUSH1 0x20 PUSH1 0x0 KECCAK256 SWAP1 PUSH1 0x2 MUL ADD PUSH1 0x1 ADD SLOAD SWAP2 POP PUSH1 0x3 DUP2 DUP2 SLOAD DUP2 LT PUSH2 0xDE0 JUMPI PUSH32 0x4E487B7100000000000000000000000000000000000000000000000000000000 PUSH1 0x0 MSTORE PUSH1 0x32 PUSH1 0x4 MSTORE PUSH1 0x24 PUSH1 0x0 REVERT JUMPDEST SWAP1 PUSH1 0x0 MSTORE PUSH1 0x20 PUSH1 0x0 KECCAK256 SWAP1 PUSH1 0x2 MUL ADD PUSH1 0x0 ADD DUP1 SLOAD PUSH2 0xDFC SWAP1 PUSH2 0x15FC JUMP JUMPDEST DUP1 PUSH1 0x1F ADD PUSH1 0x20 DUP1 SWAP2 DIV MUL PUSH1 0x20 ADD PUSH1 0x40 MLOAD SWAP1 DUP2 ADD PUSH1 0x40 MSTORE DUP1 SWAP3 SWAP2 SWAP1 DUP2 DUP2 MSTORE PUSH1 0x20 ADD DUP3 DUP1 SLOAD PUSH2 0xE28 SWAP1 PUSH2 0x15FC JUMP JUMPDEST DUP1 ISZERO PUSH2 0xE75 JUMPI DUP1 PUSH1 0x1F LT PUSH2 0xE4A JUMPI PUSH2 0x100 DUP1 DUP4 SLOAD DIV MUL DUP4 MSTORE SWAP2 PUSH1 0x20 ADD SWAP2 PUSH2 0xE75 JUMP JUMPDEST DUP3 ADD SWAP2 SWAP1 PUSH1 0x0 MSTORE PUSH1 0x20 PUSH1 0x0 KECCAK256 SWAP1 JUMPDEST DUP2 SLOAD DUP2 MSTORE SWAP1 PUSH1 0x1 ADD SWAP1 PUSH1 0x20 ADD DUP1 DUP4 GT PUSH2 0xE58 JUMPI DUP3 SWAP1 SUB PUSH1 0x1F AND DUP3 ADD SWAP2 JUMPDEST POP POP POP POP POP SWAP3 POP JUMPDEST DUP1 DUP1 PUSH2 0xE88 SWAP1 PUSH2 0x165F JUMP JUMPDEST SWAP2 POP POP PUSH2 0xCF8 JUMP JUMPDEST POP POP SWAP1 JUMP JUMPDEST DUP3 DUP1 SLOAD PUSH2 0xEA1 SWAP1 PUSH2 0x15FC JUMP JUMPDEST SWAP1 PUSH1 0x0 MSTORE PUSH1 0x20 PUSH1 0x0 KECCAK256 SWAP1 PUSH1 0x1F ADD PUSH1 0x20 SWAP1 DIV DUP2 ADD SWAP3 DUP3 PUSH2 0xEC3 JUMPI PUSH1 0x0 DUP6 SSTORE PUSH2 0xF0A JUMP JUMPDEST DUP3 PUSH1 0x1F LT PUSH2 0xEDC JUMPI DUP1 MLOAD PUSH1 0xFF NOT AND DUP4 DUP1 ADD OR DUP6 SSTORE PUSH2 0xF0A JUMP JUMPDEST DUP3 DUP1 ADD PUSH1 0x1 ADD DUP6 SSTORE DUP3 ISZERO PUSH2 0xF0A JUMPI SWAP2 DUP3 ADD JUMPDEST DUP3 DUP2 GT ISZERO PUSH2 0xF09 JUMPI DUP3 MLOAD DUP3 SSTORE SWAP2 PUSH1 0x20 ADD SWAP2 SWAP1 PUSH1 0x1 ADD SWAP1 PUSH2 0xEEE JUMP JUMPDEST JUMPDEST POP SWAP1 POP PUSH2 0xF17 SWAP2 SWAP1 PUSH2 0xF1B JUMP JUMPDEST POP SWAP1 JUMP JUMPDEST JUMPDEST DUP1 DUP3 GT ISZERO PUSH2 0xF34 JUMPI PUSH1 0x0 DUP2 PUSH1 0x0 SWAP1 SSTORE POP PUSH1 0x1 ADD PUSH2 0xF1C JUMP JUMPDEST POP SWAP1 JUMP JUMPDEST PUSH1 0x0 PUSH2 0xF4B PUSH2 0xF46 DUP5 PUSH2 0x147E JUMP JUMPDEST PUSH2 0x1459 JUMP JUMPDEST SWAP1 POP DUP1 DUP4 DUP3 MSTORE PUSH1 0x20 DUP3 ADD SWAP1 POP DUP3 DUP6 PUSH1 0x20 DUP7 MUL DUP3 ADD GT ISZERO PUSH2 0xF6A JUMPI PUSH1 0x0 DUP1 REVERT JUMPDEST PUSH1 0x0 JUMPDEST DUP6 DUP2 LT ISZERO PUSH2 0xFB4 JUMPI DUP2 CALLDATALOAD PUSH8 0xFFFFFFFFFFFFFFFF DUP2 GT ISZERO PUSH2 0xF8C JUMPI PUSH1 0x0 DUP1 REVERT JUMPDEST DUP1 DUP7 ADD PUSH2 0xF99 DUP10 DUP3 PUSH2 0x103B JUMP JUMPDEST DUP6 MSTORE PUSH1 0x20 DUP6 ADD SWAP5 POP PUSH1 0x20 DUP5 ADD SWAP4 POP POP POP PUSH1 0x1 DUP2 ADD SWAP1 POP PUSH2 0xF6D JUMP JUMPDEST POP POP POP SWAP4 SWAP3 POP POP POP JUMP JUMPDEST PUSH1 0x0 PUSH2 0xFD1 PUSH2 0xFCC DUP5 PUSH2 0x14AA JUMP JUMPDEST PUSH2 0x1459 JUMP JUMPDEST SWAP1 POP DUP3 DUP2 MSTORE PUSH1 0x20 DUP2 ADD DUP5 DUP5 DUP5 ADD GT ISZERO PUSH2 0xFE9 JUMPI PUSH1 0x0 DUP1 REVERT JUMPDEST PUSH2 0xFF4 DUP5 DUP3 DUP6 PUSH2 0x15BA JUMP JUMPDEST POP SWAP4 SWAP3 POP POP POP JUMP JUMPDEST PUSH1 0x0 DUP2 CALLDATALOAD SWAP1 POP PUSH2 0x100B DUP2 PUSH2 0x191D JUMP JUMPDEST SWAP3 SWAP2 POP POP JUMP JUMPDEST PUSH1 0x0 DUP3 PUSH1 0x1F DUP4 ADD SLT PUSH2 0x1022 JUMPI PUSH1 0x0 DUP1 REVERT JUMPDEST DUP2 CALLDATALOAD PUSH2 0x1032 DUP5 DUP3 PUSH1 0x20 DUP7 ADD PUSH2 0xF38 JUMP JUMPDEST SWAP2 POP POP SWAP3 SWAP2 POP POP JUMP JUMPDEST PUSH1 0x0 DUP3 PUSH1 0x1F DUP4 ADD SLT PUSH2 0x104C JUMPI PUSH1 0x0 DUP1 REVERT JUMPDEST DUP2 CALLDATALOAD PUSH2 0x105C DUP5 DUP3 PUSH1 0x20 DUP7 ADD PUSH2 0xFBE JUMP JUMPDEST SWAP2 POP POP SWAP3 SWAP2 POP POP JUMP JUMPDEST PUSH1 0x0 DUP2 CALLDATALOAD SWAP1 POP PUSH2 0x1074 DUP2 PUSH2 0x1934 JUMP JUMPDEST SWAP3 SWAP2 POP POP JUMP JUMPDEST PUSH1 0x0 PUSH1 0x20 DUP3 DUP5 SUB SLT ISZERO PUSH2 0x108C JUMPI PUSH1 0x0 DUP1 REVERT JUMPDEST PUSH1 0x0 PUSH2 0x109A DUP5 DUP3 DUP6 ADD PUSH2 0xFFC JUMP JUMPDEST SWAP2 POP POP SWAP3 SWAP2 POP POP JUMP JUMPDEST PUSH1 0x0 PUSH1 0x20 DUP3 DUP5 SUB SLT ISZERO PUSH2 0x10B5 JUMPI PUSH1 0x0 DUP1 REVERT JUMPDEST PUSH1 0x0 DUP3 ADD CALLDATALOAD PUSH8 0xFFFFFFFFFFFFFFFF DUP2 GT ISZERO PUSH2 0x10CF JUMPI PUSH1 0x0 DUP1 REVERT JUMPDEST PUSH2 0x10DB DUP5 DUP3 DUP6 ADD PUSH2 0x1011 JUMP JUMPDEST SWAP2 POP POP SWAP3 SWAP2 POP POP JUMP JUMPDEST PUSH1 0x0 PUSH1 0x20 DUP3 DUP5 SUB SLT ISZERO PUSH2 0x10F6 JUMPI PUSH1 0x0 DUP1 REVERT JUMPDEST PUSH1 0x0 PUSH2 0x1104 DUP5 DUP3 DUP6 ADD PUSH2 0x1065 JUMP JUMPDEST SWAP2 POP POP SWAP3 SWAP2 POP POP JUMP JUMPDEST PUSH2 0x1116 DUP2 PUSH2 0x154D JUMP JUMPDEST DUP3 MSTORE POP POP JUMP JUMPDEST PUSH2 0x1125 DUP2 PUSH2 0x155F JUMP JUMPDEST DUP3 MSTORE POP POP JUMP JUMPDEST PUSH2 0x1134 DUP2 PUSH2 0x15A8 JUMP JUMPDEST DUP3 MSTORE POP POP JUMP JUMPDEST PUSH1 0x0 PUSH2 0x1145 DUP3 PUSH2 0x14DB JUMP JUMPDEST PUSH2 0x114F DUP2 DUP6 PUSH2 0x14E6 JUMP JUMPDEST SWAP4 POP PUSH2 0x115F DUP2 DUP6 PUSH1 0x20 DUP7 ADD PUSH2 0x15C9 JUMP JUMPDEST PUSH2 0x1168 DUP2 PUSH2 0x1764 JUMP JUMPDEST DUP5 ADD SWAP2 POP POP SWAP3 SWAP2 POP POP JUMP JUMPDEST PUSH1 0x0 PUSH2 0x1180 PUSH1 0x14 DUP4 PUSH2 0x14E6 JUMP JUMPDEST SWAP2 POP PUSH2 0x118B DUP3 PUSH2 0x1775 JUMP JUMPDEST PUSH1 0x20 DUP3 ADD SWAP1 POP SWAP2 SWAP1 POP JUMP JUMPDEST PUSH1 0x0 PUSH2 0x11A3 PUSH1 0xE DUP4 PUSH2 0x14E6 JUMP JUMPDEST SWAP2 POP PUSH2 0x11AE DUP3 PUSH2 0x179E JUMP JUMPDEST PUSH1 0x20 DUP3 ADD SWAP1 POP SWAP2 SWAP1 POP JUMP JUMPDEST PUSH1 0x0 PUSH2 0x11C6 PUSH1 0x2D DUP4 PUSH2 0x14E6 JUMP JUMPDEST SWAP2 POP PUSH2 0x11D1 DUP3 PUSH2 0x17C7 JUMP JUMPDEST PUSH1 0x40 DUP3 ADD SWAP1 POP SWAP2 SWAP1 POP JUMP JUMPDEST PUSH1 0x0 PUSH2 0x11E9 PUSH1 0x28 DUP4 PUSH2 0x14E6 JUMP JUMPDEST SWAP2 POP PUSH2 0x11F4 DUP3 PUSH2 0x1816 JUMP JUMPDEST PUSH1 0x40 DUP3 ADD SWAP1 POP SWAP2 SWAP1 POP JUMP JUMPDEST PUSH1 0x0 PUSH2 0x120C PUSH1 0x1A DUP4 PUSH2 0x14E6 JUMP JUMPDEST SWAP2 POP PUSH2 0x1217 DUP3 PUSH2 0x1865 JUMP JUMPDEST PUSH1 0x20 DUP3 ADD SWAP1 POP SWAP2 SWAP1 POP JUMP JUMPDEST PUSH1 0x0 PUSH2 0x122F PUSH1 0x15 DUP4 PUSH2 0x14E6 JUMP JUMPDEST SWAP2 POP PUSH2 0x123A DUP3 PUSH2 0x188E JUMP JUMPDEST PUSH1 0x20 DUP3 ADD SWAP1 POP SWAP2 SWAP1 POP JUMP JUMPDEST PUSH1 0x0 PUSH2 0x1252 PUSH1 0x1B DUP4 PUSH2 0x14E6 JUMP JUMPDEST SWAP2 POP PUSH2 0x125D DUP3 PUSH2 0x18B7 JUMP JUMPDEST PUSH1 0x20 DUP3 ADD SWAP1 POP SWAP2 SWAP1 POP JUMP JUMPDEST PUSH1 0x0 PUSH2 0x1275 PUSH1 0x18 DUP4 PUSH2 0x14E6 JUMP JUMPDEST SWAP2 POP PUSH2 0x1280 DUP3 PUSH2 0x18E0 JUMP JUMPDEST PUSH1 0x20 DUP3 ADD SWAP1 POP SWAP2 SWAP1 POP JUMP JUMPDEST PUSH2 0x1294 DUP2 PUSH2 0x159E JUMP JUMPDEST DUP3 MSTORE POP POP JUMP JUMPDEST PUSH1 0x0 PUSH1 0x20 DUP3 ADD SWAP1 POP PUSH2 0x12AF PUSH1 0x0 DUP4 ADD DUP5 PUSH2 0x110D JUMP JUMPDEST SWAP3 SWAP2 POP POP JUMP JUMPDEST PUSH1 0x0 PUSH1 0x20 DUP3 ADD SWAP1 POP PUSH2 0x12CA PUSH1 0x0 DUP4 ADD DUP5 PUSH2 0x112B JUMP JUMPDEST SWAP3 SWAP2 POP POP JUMP JUMPDEST PUSH1 0x0 PUSH1 0x20 DUP3 ADD SWAP1 POP DUP2 DUP2 SUB PUSH1 0x0 DUP4 ADD MSTORE PUSH2 0x12EA DUP2 DUP5 PUSH2 0x113A JUMP JUMPDEST SWAP1 POP SWAP3 SWAP2 POP POP JUMP JUMPDEST PUSH1 0x0 PUSH1 0x40 DUP3 ADD SWAP1 POP DUP2 DUP2 SUB PUSH1 0x0 DUP4 ADD MSTORE PUSH2 0x130C DUP2 DUP6 PUSH2 0x113A JUMP JUMPDEST SWAP1 POP PUSH2 0x131B PUSH1 0x20 DUP4 ADD DUP5 PUSH2 0x128B JUMP JUMPDEST SWAP4 SWAP3 POP POP POP JUMP JUMPDEST PUSH1 0x0 PUSH1 0x20 DUP3 ADD SWAP1 POP DUP2 DUP2 SUB PUSH1 0x0 DUP4 ADD MSTORE PUSH2 0x133B DUP2 PUSH2 0x1173 JUMP JUMPDEST SWAP1 POP SWAP2 SWAP1 POP JUMP JUMPDEST PUSH1 0x0 PUSH1 0x20 DUP3 ADD SWAP1 POP DUP2 DUP2 SUB PUSH1 0x0 DUP4 ADD MSTORE PUSH2 0x135B DUP2 PUSH2 0x1196 JUMP JUMPDEST SWAP1 POP SWAP2 SWAP1 POP JUMP JUMPDEST PUSH1 0x0 PUSH1 0x20 DUP3 ADD SWAP1 POP DUP2 DUP2 SUB PUSH1 0x0 DUP4 ADD MSTORE PUSH2 0x137B DUP2 PUSH2 0x11B9 JUMP JUMPDEST SWAP1 POP SWAP2 SWAP1 POP JUMP JUMPDEST PUSH1 0x0 PUSH1 0x20 DUP3 ADD SWAP1 POP DUP2 DUP2 SUB PUSH1 0x0 DUP4 ADD MSTORE PUSH2 0x139B DUP2 PUSH2 0x11DC JUMP JUMPDEST SWAP1 POP SWAP2 SWAP1 POP JUMP JUMPDEST PUSH1 0x0 PUSH1 0x20 DUP3 ADD SWAP1 POP DUP2 DUP2 SUB PUSH1 0x0 DUP4 ADD MSTORE PUSH2 0x13BB DUP2 PUSH2 0x11FF JUMP JUMPDEST SWAP1 POP SWAP2 SWAP1 POP JUMP JUMPDEST PUSH1 0x0 PUSH1 0x20 DUP3 ADD SWAP1 POP DUP2 DUP2 SUB PUSH1 0x0 DUP4 ADD MSTORE PUSH2 0x13DB DUP2 PUSH2 0x1222 JUMP JUMPDEST SWAP1 POP SWAP2 SWAP1 POP JUMP JUMPDEST PUSH1 0x0 PUSH1 0x20 DUP3 ADD SWAP1 POP DUP2 DUP2 SUB PUSH1 0x0 DUP4 ADD MSTORE PUSH2 0x13FB DUP2 PUSH2 0x1245 JUMP JUMPDEST SWAP1 POP SWAP2 SWAP1 POP JUMP JUMPDEST PUSH1 0x0 PUSH1 0x20 DUP3 ADD SWAP1 POP DUP2 DUP2 SUB PUSH1 0x0 DUP4 ADD MSTORE PUSH2 0x141B DUP2 PUSH2 0x1268 JUMP JUMPDEST SWAP1 POP SWAP2 SWAP1 POP JUMP JUMPDEST PUSH1 0x0 PUSH1 0x60 DUP3 ADD SWAP1 POP PUSH2 0x1437 PUSH1 0x0 DUP4 ADD DUP7 PUSH2 0x128B JUMP JUMPDEST PUSH2 0x1444 PUSH1 0x20 DUP4 ADD DUP6 PUSH2 0x111C JUMP JUMPDEST PUSH2 0x1451 PUSH1 0x40 DUP4 ADD DUP5 PUSH2 0x128B JUMP JUMPDEST SWAP5 SWAP4 POP POP POP POP JUMP JUMPDEST PUSH1 0x0 PUSH2 0x1463 PUSH2 0x1474 JUMP JUMPDEST SWAP1 POP PUSH2 0x146F DUP3 DUP3 PUSH2 0x162E JUMP JUMPDEST SWAP2 SWAP1 POP JUMP JUMPDEST PUSH1 0x0 PUSH1 0x40 MLOAD SWAP1 POP SWAP1 JUMP JUMPDEST PUSH1 0x0 PUSH8 0xFFFFFFFFFFFFFFFF DUP3 GT ISZERO PUSH2 0x1499 JUMPI PUSH2 0x1498 PUSH2 0x1735 JUMP JUMPDEST JUMPDEST PUSH1 0x20 DUP3 MUL SWAP1 POP PUSH1 0x20 DUP2 ADD SWAP1 POP SWAP2 SWAP1 POP JUMP JUMPDEST PUSH1 0x0 PUSH8 0xFFFFFFFFFFFFFFFF DUP3 GT ISZERO PUSH2 0x14C5 JUMPI PUSH2 0x14C4 PUSH2 0x1735 JUMP JUMPDEST JUMPDEST PUSH2 0x14CE DUP3 PUSH2 0x1764 JUMP JUMPDEST SWAP1 POP PUSH1 0x20 DUP2 ADD SWAP1 POP SWAP2 SWAP1 POP JUMP JUMPDEST PUSH1 0x0 DUP2 MLOAD SWAP1 POP SWAP2 SWAP1 POP JUMP JUMPDEST PUSH1 0x0 DUP3 DUP3 MSTORE PUSH1 0x20 DUP3 ADD SWAP1 POP SWAP3 SWAP2 POP POP JUMP JUMPDEST PUSH1 0x0 PUSH2 0x1502 DUP3 PUSH2 0x159E JUMP JUMPDEST SWAP2 POP PUSH2 0x150D DUP4 PUSH2 0x159E JUMP JUMPDEST SWAP3 POP DUP3 PUSH32 0xFFFFFFFFFFFFFFFFFFFFFFFFFFFFFFFFFFFFFFFFFFFFFFFFFFFFFFFFFFFFFFFF SUB DUP3 GT ISZERO PUSH2 0x1542 JUMPI PUSH2 0x1541 PUSH2 0x16A8 JUMP JUMPDEST JUMPDEST DUP3 DUP3 ADD SWAP1 POP SWAP3 SWAP2 POP POP JUMP JUMPDEST PUSH1 0x0 PUSH2 0x1558 DUP3 PUSH2 0x157E JUMP JUMPDEST SWAP1 POP SWAP2 SWAP1 POP JUMP JUMPDEST PUSH1 0x0 DUP2 ISZERO ISZERO SWAP1 POP SWAP2 SWAP1 POP JUMP JUMPDEST PUSH1 0x0 DUP2 SWAP1 POP PUSH2 0x1579 DUP3 PUSH2 0x1909 JUMP JUMPDEST SWAP2 SWAP1 POP JUMP JUMPDEST PUSH1 0x0 PUSH20 0xFFFFFFFFFFFFFFFFFFFFFFFFFFFFFFFFFFFFFFFF DUP3 AND SWAP1 POP SWAP2 SWAP1 POP JUMP JUMPDEST PUSH1 0x0 DUP2 SWAP1 POP SWAP2 SWAP1 POP JUMP JUMPDEST PUSH1 0x0 PUSH2 0x15B3 DUP3 PUSH2 0x156B JUMP JUMPDEST SWAP1 POP SWAP2 SWAP1 POP JUMP JUMPDEST DUP3 DUP2 DUP4 CALLDATACOPY PUSH1 0x0 DUP4 DUP4 ADD MSTORE POP POP POP JUMP JUMPDEST PUSH1 0x0 JUMPDEST DUP4 DUP2 LT ISZERO PUSH2 0x15E7 JUMPI DUP1 DUP3 ADD MLOAD DUP2 DUP5 ADD MSTORE PUSH1 0x20 DUP2 ADD SWAP1 POP PUSH2 0x15CC JUMP JUMPDEST DUP4 DUP2 GT ISZERO PUSH2 0x15F6 JUMPI PUSH1 0x0 DUP5 DUP5 ADD MSTORE JUMPDEST POP POP POP POP JUMP JUMPDEST PUSH1 0x0 PUSH1 0x2 DUP3 DIV SWAP1 POP PUSH1 0x1 DUP3 AND DUP1 PUSH2 0x1614 JUMPI PUSH1 0x7F DUP3 AND SWAP2 POP JUMPDEST PUSH1 0x20 DUP3 LT DUP2 EQ ISZERO PUSH2 0x1628 JUMPI PUSH2 0x1627 PUSH2 0x1706 JUMP JUMPDEST JUMPDEST POP SWAP2 SWAP1 POP JUMP JUMPDEST PUSH2 0x1637 DUP3 PUSH2 0x1764 JUMP JUMPDEST DUP2 ADD DUP2 DUP2 LT PUSH8 0xFFFFFFFFFFFFFFFF DUP3 GT OR ISZERO PUSH2 0x1656 JUMPI PUSH2 0x1655 PUSH2 0x1735 JUMP JUMPDEST JUMPDEST DUP1 PUSH1 0x40 MSTORE POP POP POP JUMP JUMPDEST PUSH1 0x0 PUSH2 0x166A DUP3 PUSH2 0x159E JUMP JUMPDEST SWAP2 POP PUSH32 0xFFFFFFFFFFFFFFFFFFFFFFFFFFFFFFFFFFFFFFFFFFFFFFFFFFFFFFFFFFFFFFFF DUP3 EQ ISZERO PUSH2 0x169D JUMPI PUSH2 0x169C PUSH2 0x16A8 JUMP JUMPDEST JUMPDEST PUSH1 0x1 DUP3 ADD SWAP1 POP SWAP2 SWAP1 POP JUMP JUMPDEST PUSH32 0x4E487B7100000000000000000000000000000000000000000000000000000000 PUSH1 0x0 MSTORE PUSH1 0x11 PUSH1 0x4 MSTORE PUSH1 0x24 PUSH1 0x0 REVERT JUMPDEST PUSH32 0x4E487B7100000000000000000000000000000000000000000000000000000000 PUSH1 0x0 MSTORE PUSH1 0x21 PUSH1 0x4 MSTORE PUSH1 0x24 PUSH1 0x0 REVERT JUMPDEST PUSH32 0x4E487B7100000000000000000000000000000000000000000000000000000000 PUSH1 0x0 MSTORE PUSH1 0x22 PUSH1 0x4 MSTORE PUSH1 0x24 PUSH1 0x0 REVERT JUMPDEST PUSH32 0x4E487B7100000000000000000000000000000000000000000000000000000000 PUSH1 0x0 MSTORE PUSH1 0x41 PUSH1 0x4 MSTORE PUSH1 0x24 PUSH1 0x0 REVERT JUMPDEST PUSH1 0x0 PUSH1 0x1F NOT PUSH1 0x1F DUP4 ADD AND SWAP1 POP SWAP2 SWAP1 POP JUMP JUMPDEST PUSH32 0x486173206E6F20726967687420746F20766F7465000000000000000000000000 PUSH1 0x0 DUP3 ADD MSTORE POP JUMP JUMPDEST PUSH32 0x416C726561647920766F7465642E000000000000000000000000000000000000 PUSH1 0x0 DUP3 ADD MSTORE POP JUMP JUMPDEST PUSH32 0x4F6E6C79206368616972706572736F6E2063616E20737461727420616E642065 PUSH1 0x0 DUP3 ADD MSTORE PUSH32 0x6E642074686520766F74696E6700000000000000000000000000000000000000 PUSH1 0x20 DUP3 ADD MSTORE POP JUMP JUMPDEST PUSH32 0x4F6E6C79206368616972706572736F6E2063616E206769766520726967687420 PUSH1 0x0 DUP3 ADD MSTORE PUSH32 0x746F20766F74652E000000000000000000000000000000000000000000000000 PUSH1 0x20 DUP3 ADD MSTORE POP JUMP JUMPDEST PUSH32 0x6974206D75737420626520696E20456E64656420506572696F64000000000000 PUSH1 0x0 DUP3 ADD MSTORE POP JUMP JUMPDEST PUSH32 0x6974206D75737420626520696E20537461727465640000000000000000000000 PUSH1 0x0 DUP3 ADD MSTORE POP JUMP JUMPDEST PUSH32 0x6974206D75737420626520696E20566F74696E6720506572696F640000000000 PUSH1 0x0 DUP3 ADD MSTORE POP JUMP JUMPDEST PUSH32 0x54686520766F74657220616C726561647920766F7465642E0000000000000000 PUSH1 0x0 DUP3 ADD MSTORE POP JUMP JUMPDEST PUSH1 0x3 DUP2 LT PUSH2 0x191A JUMPI PUSH2 0x1919 PUSH2 0x16D7 JUMP JUMPDEST JUMPDEST POP JUMP JUMPDEST PUSH2 0x1926 DUP2 PUSH2 0x154D JUMP JUMPDEST DUP2 EQ PUSH2 0x1931 JUMPI PUSH1 0x0 DUP1 REVERT JUMPDEST POP JUMP JUMPDEST PUSH2 0x193D DUP2 PUSH2 0x159E JUMP JUMPDEST DUP2 EQ PUSH2 0x1948 JUMPI PUSH1 0x0 DUP1 REVERT JUMPDEST POP JUMP INVALID LOG2 PUSH5 0x6970667358 0x22 SLT KECCAK256 0xF 0xC5 DUP12 PUSH1 0xB5 SWAP4 EXP DUP9 0x28 DUP9 DUP15 PUSH20 0x40F6C203C338E3CC22F187DDB8356B19A97090A8 PUSH5 0x736F6C6343 STOP ADDMOD DIV STOP CALLER "
        },
        "methodIdentifiers": {
          "addCandidates(string[])": "a999e562",
          "candidates(uint256)": "3477ee2e",
          "chairperson()": "2e4176cf",
          "endVote()": "b9223946",
          "get_test()": "3c41db55",
          "giveRightToVote(address)": "9e7b8d61",
          "startVote()": "4c0a6af0",
          "state()": "c19d93fb",
          "vote(uint256)": "0121b93f",
          "voters(address)": "a3ec138d",
          "winningCandidate()": "d28178d7"
        }
      }
    }
  }
}